{
	"data": {
		"bytecode": {
			"linkReferences": {},
			"object": "60806040527348e04110aa4691ec3e9493187e6e9a3db613e6e4606660006101000a81548173ffffffffffffffffffffffffffffffffffffffff021916908373ffffffffffffffffffffffffffffffffffffffff160217905550735615cdab10dc425a742d643d949a7f474c01abc4606760006101000a81548173ffffffffffffffffffffffffffffffffffffffff021916908373ffffffffffffffffffffffffffffffffffffffff160217905550348015620000bb57600080fd5b5060405162004f3238038062004f328339818101604052810190620000e1919062000576565b600080835190505b80821015620001a257828281518110620001085762000107620005fb565b5b60200260200101516065858481518110620001285762000127620005fb565b5b60200260200101516040516200013f919062000677565b908152602001604051809103902060006101000a81548173ffffffffffffffffffffffffffffffffffffffff021916908373ffffffffffffffffffffffffffffffffffffffff1602179055506001826200019a9190620006c9565b9150620000e9565b5050505062000704565b6000604051905090565b600080fd5b600080fd5b600080fd5b6000601f19601f8301169050919050565b7f4e487b7100000000000000000000000000000000000000000000000000000000600052604160045260246000fd5b6200021082620001c5565b810181811067ffffffffffffffff82111715620002325762000231620001d6565b5b80604052505050565b600062000247620001ac565b905062000255828262000205565b919050565b600067ffffffffffffffff821115620002785762000277620001d6565b5b602082029050602081019050919050565b600080fd5b600080fd5b600067ffffffffffffffff821115620002b157620002b0620001d6565b5b620002bc82620001c5565b9050602081019050919050565b60005b83811015620002e9578082015181840152602081019050620002cc565b60008484015250505050565b60006200030c620003068462000293565b6200023b565b9050828152602081018484840111156200032b576200032a6200028e565b5b62000338848285620002c9565b509392505050565b600082601f830112620003585762000357620001c0565b5b81516200036a848260208601620002f5565b91505092915050565b60006200038a62000384846200025a565b6200023b565b90508083825260208201905060208402830185811115620003b057620003af62000289565b5b835b81811015620003fe57805167ffffffffffffffff811115620003d957620003d8620001c0565b5b808601620003e8898262000340565b85526020850194505050602081019050620003b2565b5050509392505050565b600082601f83011262000420576200041f620001c0565b5b81516200043284826020860162000373565b91505092915050565b600067ffffffffffffffff821115620004595762000458620001d6565b5b602082029050602081019050919050565b600073ffffffffffffffffffffffffffffffffffffffff82169050919050565b600062000497826200046a565b9050919050565b620004a9816200048a565b8114620004b557600080fd5b50565b600081519050620004c9816200049e565b92915050565b6000620004e6620004e0846200043b565b6200023b565b905080838252602082019050602084028301858111156200050c576200050b62000289565b5b835b81811015620005395780620005248882620004b8565b8452602084019350506020810190506200050e565b5050509392505050565b600082601f8301126200055b576200055a620001c0565b5b81516200056d848260208601620004cf565b91505092915050565b6000806040838503121562000590576200058f620001b6565b5b600083015167ffffffffffffffff811115620005b157620005b0620001bb565b5b620005bf8582860162000408565b925050602083015167ffffffffffffffff811115620005e357620005e2620001bb565b5b620005f18582860162000543565b9150509250929050565b7f4e487b7100000000000000000000000000000000000000000000000000000000600052603260045260246000fd5b600081519050919050565b600081905092915050565b60006200064d826200062a565b62000659818562000635565b93506200066b818560208601620002c9565b80840191505092915050565b600062000685828462000640565b915081905092915050565b6000819050919050565b7f4e487b7100000000000000000000000000000000000000000000000000000000600052601160045260246000fd5b6000620006d68262000690565b9150620006e38362000690565b9250828201905080821115620006fe57620006fd6200069a565b5b92915050565b61481e80620007146000396000f3fe6080604052600436106101395760003560e01c80638474c288116100ab578063c23f001f1161006f578063c23f001f14610450578063d08ec4751461048d578063d8a90c40146104cb578063f04ad9d7146104fb578063f2fde38b1461052c578063f3fef3a31461055557610140565b80638474c288146103445780638aef324c1461036d5780638da5cb5b146103aa578063a0cd6049146103d5578063a59be9141461041357610140565b806347e7ef24116100fd57806347e7ef24146102425780635367cd9c1461026b5780635d25309d14610287578063715018a6146102c457806379bbce8f146102db57806382155e7e1461030657610140565b80631109ec99146101425780631661f8181461017f578063226ee4ef146101a85780632e98c814146101e657806346af60701461021757610140565b3661014057005b005b34801561014e57600080fd5b5061016960048036038101906101649190612dd8565b61057e565b6040516101769190612e27565b60405180910390f35b34801561018b57600080fd5b506101a660048036038101906101a1919061305e565b610641565b005b3480156101b457600080fd5b506101cf60048036038101906101ca91906130d6565b610a7a565b6040516101dd9291906132a5565b60405180910390f35b61020060048036038101906101fb9190612dd8565b610ab1565b60405161020e9291906132a5565b60405180910390f35b34801561022357600080fd5b5061022c610ae1565b60405161023991906132eb565b60405180910390f35b34801561024e57600080fd5b5061026960048036038101906102649190612dd8565b610b07565b005b61028560048036038101906102809190612dd8565b610c15565b005b34801561029357600080fd5b506102ae60048036038101906102a991906133bb565b610f27565b6040516102bb91906132eb565b60405180910390f35b3480156102d057600080fd5b506102d9610f70565b005b3480156102e757600080fd5b506102f0610f84565b6040516102fd91906132eb565b60405180910390f35b34801561031257600080fd5b5061032d60048036038101906103289190612dd8565b610faa565b60405161033b9291906132a5565b60405180910390f35b34801561035057600080fd5b5061036b60048036038101906103669190613404565b611309565b005b34801561037957600080fd5b50610394600480360381019061038f91906130d6565b611693565b6040516103a19190612e27565b60405180910390f35b3480156103b657600080fd5b506103bf611918565b6040516103cc91906132eb565b60405180910390f35b3480156103e157600080fd5b506103fc60048036038101906103f79190613404565b611942565b60405161040a9291906132a5565b60405180910390f35b34801561041f57600080fd5b5061043a60048036038101906104359190613457565b611974565b6040516104479190612e27565b60405180910390f35b34801561045c57600080fd5b5061047760048036038101906104729190613497565b611a43565b6040516104849190612e27565b60405180910390f35b34801561049957600080fd5b506104b460048036038101906104af9190612dd8565b611a68565b6040516104c29291906132a5565b60405180910390f35b6104e560048036038101906104e091906134d7565b611a98565b6040516104f29190612e27565b60405180910390f35b610515600480360381019061051091906134d7565b611c9e565b6040516105239291906132a5565b60405180910390f35b34801561053857600080fd5b50610553600480360381019061054e91906134d7565b611cd0565b005b34801561056157600080fd5b5061057c60048036038101906105779190612dd8565b611d53565b005b60008261058a81611ed4565b6105c9576040517f08c379a00000000000000000000000000000000000000000000000000000000081526004016105c090613561565b60405180910390fd5b600060656040516105d9906135d8565b908152602001604051809103902060009054906101000a900473ffffffffffffffffffffffffffffffffffffffff1690506000610617828787611fd0565b9150508060008151811061062e5761062d6135ed565b5b6020026020010151935050505092915050565b6000825190506000810361068a576040517f08c379a000000000000000000000000000000000000000000000000000000000815260040161068190613668565b60405180910390fd5b815181146106cd576040517f08c379a00000000000000000000000000000000000000000000000000000000081526004016106c4906136d4565b60405180910390fd5b60005b81811015610a745760008382815181106106ed576106ec6135ed565b5b6020026020010151036107075780806001019150506106d0565b82818151811061071a576107196135ed565b5b6020026020010151606860003373ffffffffffffffffffffffffffffffffffffffff1673ffffffffffffffffffffffffffffffffffffffff1681526020019081526020016000206000868481518110610776576107756135ed565b5b602002602001015173ffffffffffffffffffffffffffffffffffffffff1673ffffffffffffffffffffffffffffffffffffffff1681526020019081526020016000205410156107fa576040517f08c379a00000000000000000000000000000000000000000000000000000000081526004016107f190613740565b60405180910390fd5b82818151811061080d5761080c6135ed565b5b6020026020010151606860003373ffffffffffffffffffffffffffffffffffffffff1673ffffffffffffffffffffffffffffffffffffffff1681526020019081526020016000206000868481518110610869576108686135ed565b5b602002602001015173ffffffffffffffffffffffffffffffffffffffff1673ffffffffffffffffffffffffffffffffffffffff16815260200190815260200160002060008282546108ba919061378f565b925050819055508381815181106108d4576108d36135ed565b5b602002602001015173ffffffffffffffffffffffffffffffffffffffff16633790cf5784838151811061090a576109096135ed565b5b60200260200101516040518263ffffffff1660e01b815260040161092e9190612e27565b600060405180830381600087803b15801561094857600080fd5b505af1925050508015610959575060015b610a33576109656137d0565b806308c379a0036109c157506109796137f2565b8061098457506109c3565b7f551303dd5f39cbfe6daba6b3e27754b8a7d72f519756a2cde2b92c2bbde159a7816040516109b391906138f0565b60405180910390a150610a2e565b505b3d80600081146109ef576040519150601f19603f3d011682016040523d82523d6000602084013e6109f4565b606091505b507f1d577abe557bcd9a1615464321c9b76968f5c8594282ef564970ebd2f9729fdf81604051610a249190613967565b60405180910390a1505b610a69565b7f551303dd5f39cbfe6daba6b3e27754b8a7d72f519756a2cde2b92c2bbde159a7604051610a60906139fb565b60405180910390a15b8060010190506106d0565b50505050565b6060806000610a8a868686611693565b9050610a968482610faa565b8093508194505050610aa88383610641565b50935093915050565b606080610abe8484610c15565b610ac88484610faa565b8092508193505050610ada8282610641565b9250929050565b606660009054906101000a900473ffffffffffffffffffffffffffffffffffffffff1681565b81610b1181611ed4565b610b50576040517f08c379a0000000000000000000000000000000000000000000000000000000008152600401610b4790613561565b60405180910390fd5b610b7d3330848673ffffffffffffffffffffffffffffffffffffffff16612123909392919063ffffffff16565b81606860003373ffffffffffffffffffffffffffffffffffffffff1673ffffffffffffffffffffffffffffffffffffffff16815260200190815260200160002060008573ffffffffffffffffffffffffffffffffffffffff1673ffffffffffffffffffffffffffffffffffffffff1681526020019081526020016000206000828254610c099190613a1b565b92505081905550505050565b81610c1f81611ed4565b610c5e576040517f08c379a0000000000000000000000000000000000000000000000000000000008152600401610c5590613561565b60405180910390fd5b60006065604051610c6e906135d8565b908152602001604051809103902060009054906101000a900473ffffffffffffffffffffffffffffffffffffffff1690506000610cab82866121ac565b90506000610cb7612494565b73ffffffffffffffffffffffffffffffffffffffff1663fb3bdb4134878530426040518663ffffffff1660e01b8152600401610cf69493929190613a4f565b60006040518083038185885af1158015610d14573d6000803e3d6000fd5b50505050506040513d6000823e3d601f19601f82011682018060405250810190610d3e9190613b47565b905080600081518110610d5457610d536135ed565b5b6020026020010151341115610e8c57600081600081518110610d7957610d786135ed565b5b602002602001015134610d8c919061378f565b905060003373ffffffffffffffffffffffffffffffffffffffff1682600067ffffffffffffffff811115610dc357610dc2612e58565b5b6040519080825280601f01601f191660200182016040528015610df55781602001600182028036833780820191505090505b50604051610e039190613bcc565b60006040518083038185875af1925050503d8060008114610e40576040519150601f19603f3d011682016040523d82523d6000602084013e610e45565b606091505b5050905080610e89576040517f08c379a0000000000000000000000000000000000000000000000000000000008152600401610e8090613c2f565b60405180910390fd5b50505b84606860003373ffffffffffffffffffffffffffffffffffffffff1673ffffffffffffffffffffffffffffffffffffffff16815260200190815260200160002060008873ffffffffffffffffffffffffffffffffffffffff1673ffffffffffffffffffffffffffffffffffffffff1681526020019081526020016000206000828254610f189190613a1b565b92505081905550505050505050565b6065818051602081018201805184825260208301602085012081835280955050505050506000915054906101000a900473ffffffffffffffffffffffffffffffffffffffff1681565b610f786124be565b610f82600061253c565b565b606760009054906101000a900473ffffffffffffffffffffffffffffffffffffffff1681565b60608083610fb781611ed4565b610ff6576040517f08c379a0000000000000000000000000000000000000000000000000000000008152600401610fed90613561565b60405180910390fd5b83606860003373ffffffffffffffffffffffffffffffffffffffff1673ffffffffffffffffffffffffffffffffffffffff16815260200190815260200160002060008773ffffffffffffffffffffffffffffffffffffffff1673ffffffffffffffffffffffffffffffffffffffff1681526020019081526020016000205410156110b5576040517f08c379a00000000000000000000000000000000000000000000000000000000081526004016110ac90613c9b565b60405180910390fd5b60008590508073ffffffffffffffffffffffffffffffffffffffff16634c02cad1866040518263ffffffff1660e01b81526004016110f39190612e27565b6000604051808303816000875af1158015611112573d6000803e3d6000fd5b505050506040513d6000823e3d601f19601f8201168201806040525081019061113b9190613d67565b809450819550505084606860003373ffffffffffffffffffffffffffffffffffffffff1673ffffffffffffffffffffffffffffffffffffffff16815260200190815260200160002060008873ffffffffffffffffffffffffffffffffffffffff1673ffffffffffffffffffffffffffffffffffffffff16815260200190815260200160002060008282546111cf919061378f565b9250508190555060008451905060005b818110156112c1578481815181106111fa576111f96135ed565b5b6020026020010151606860003373ffffffffffffffffffffffffffffffffffffffff1673ffffffffffffffffffffffffffffffffffffffff1681526020019081526020016000206000888481518110611256576112556135ed565b5b602002602001015173ffffffffffffffffffffffffffffffffffffffff1673ffffffffffffffffffffffffffffffffffffffff16815260200190815260200160002060008282546112a79190613a1b565b9250508190555080806112b990613ddf565b9150506111df565b507f3d29f82a20ec733db9f357c4dc1ae0ee60c572cc4b877384aa4639e4d877b188338887876040516112f79493929190613e27565b60405180910390a15050509250929050565b8261131381612602565b611352576040517f08c379a000000000000000000000000000000000000000000000000000000000815260040161134990613ec6565b60405180910390fd5b8261135c81611ed4565b61139b576040517f08c379a000000000000000000000000000000000000000000000000000000000815260040161139290613561565b60405180910390fd5b6000806113a9878787611fd0565b915091506000816000815181106113c3576113c26135ed565b5b602002602001015190506113fa3330838b73ffffffffffffffffffffffffffffffffffffffff16612123909392919063ffffffff16565b8773ffffffffffffffffffffffffffffffffffffffff1663095ea7b3606760009054906101000a900473ffffffffffffffffffffffffffffffffffffffff16836040518363ffffffff1660e01b8152600401611457929190613ee6565b6020604051808303816000875af1158015611476573d6000803e3d6000fd5b505050506040513d601f19601f8201168201806040525081019061149a9190613f47565b5060006114a5612494565b73ffffffffffffffffffffffffffffffffffffffff16638803dbee88848730426040518663ffffffff1660e01b81526004016114e5959493929190613f74565b6000604051808303816000875af1158015611504573d6000803e3d6000fd5b505050506040513d6000823e3d601f19601f8201168201806040525081019061152d9190613b47565b90508181600081518110611544576115436135ed565b5b602002602001015110156115f5578873ffffffffffffffffffffffffffffffffffffffff1663095ea7b3606760009054906101000a900473ffffffffffffffffffffffffffffffffffffffff1660006040518363ffffffff1660e01b81526004016115b0929190614013565b6020604051808303816000875af11580156115cf573d6000803e3d6000fd5b505050506040513d601f19601f820116820180604052508101906115f39190613f47565b505b86606860003373ffffffffffffffffffffffffffffffffffffffff1673ffffffffffffffffffffffffffffffffffffffff16815260200190815260200160002060008a73ffffffffffffffffffffffffffffffffffffffff1673ffffffffffffffffffffffffffffffffffffffff16815260200190815260200160002060008282546116819190613a1b565b92505081905550505050505050505050565b60008361169f81612602565b6116de576040517f08c379a00000000000000000000000000000000000000000000000000000000081526004016116d590613ec6565b60405180910390fd5b826116e881611ed4565b611727576040517f08c379a000000000000000000000000000000000000000000000000000000000815260040161171e90613561565b60405180910390fd5b600061173387866121ac565b90506000815190506117683330898b73ffffffffffffffffffffffffffffffffffffffff16612123909392919063ffffffff16565b6117b5606760009054906101000a900473ffffffffffffffffffffffffffffffffffffffff16888a73ffffffffffffffffffffffffffffffffffffffff166127769092919063ffffffff16565b60006117bf612494565b73ffffffffffffffffffffffffffffffffffffffff166338ed17398960008630426040518663ffffffff1660e01b815260040161180095949392919061403c565b6000604051808303816000875af115801561181f573d6000803e3d6000fd5b505050506040513d6000823e3d601f19601f820116820180604052508101906118489190613b47565b905060008160018461185a919061378f565b8151811061186b5761186a6135ed565b5b6020026020010151905080606860003373ffffffffffffffffffffffffffffffffffffffff1673ffffffffffffffffffffffffffffffffffffffff16815260200190815260200160002060008a73ffffffffffffffffffffffffffffffffffffffff1673ffffffffffffffffffffffffffffffffffffffff16815260200190815260200160002060008282546119019190613a1b565b925050819055508096505050505050509392505050565b6000603360009054906101000a900473ffffffffffffffffffffffffffffffffffffffff16905090565b606080611950858585611309565b61195a8484610faa565b809250819350505061196c8282610641565b935093915050565b60008161198081611ed4565b6119bf576040517f08c379a00000000000000000000000000000000000000000000000000000000081526004016119b690613561565b60405180910390fd5b600060656040516119cf906135d8565b908152602001604051809103902060009054906101000a900473ffffffffffffffffffffffffffffffffffffffff1690506000611a0d8287876128c5565b9150508060018251611a1f919061378f565b81518110611a3057611a2f6135ed565b5b6020026020010151935050505092915050565b6068602052816000526040600020602052806000526040600020600091509150505481565b606080611a758484610b07565b611a7f8484610faa565b8092508193505050611a918282610641565b9250929050565b600081611aa481611ed4565b611ae3576040517f08c379a0000000000000000000000000000000000000000000000000000000008152600401611ada90613561565b60405180910390fd5b600034905060006065604051611af8906135d8565b908152602001604051809103902060009054906101000a900473ffffffffffffffffffffffffffffffffffffffff1690506000611b3582876121ac565b90506000815190506000611b47612494565b73ffffffffffffffffffffffffffffffffffffffff16637ff36ab58660008630426040518663ffffffff1660e01b8152600401611b879493929190614096565b60006040518083038185885af1158015611ba5573d6000803e3d6000fd5b50505050506040513d6000823e3d601f19601f82011682018060405250810190611bcf9190613b47565b9050600081600184611be1919061378f565b81518110611bf257611bf16135ed565b5b6020026020010151905080606860003373ffffffffffffffffffffffffffffffffffffffff1673ffffffffffffffffffffffffffffffffffffffff16815260200190815260200160002060008b73ffffffffffffffffffffffffffffffffffffffff1673ffffffffffffffffffffffffffffffffffffffff1681526020019081526020016000206000828254611c889190613a1b565b9250508190555080975050505050505050919050565b6060806000611cac84611a98565b9050611cb88482610faa565b8093508194505050611cca8383610641565b50915091565b611cd86124be565b600073ffffffffffffffffffffffffffffffffffffffff168173ffffffffffffffffffffffffffffffffffffffff1603611d47576040517f08c379a0000000000000000000000000000000000000000000000000000000008152600401611d3e90614154565b60405180910390fd5b611d508161253c565b50565b80606860003373ffffffffffffffffffffffffffffffffffffffff1673ffffffffffffffffffffffffffffffffffffffff16815260200190815260200160002060008473ffffffffffffffffffffffffffffffffffffffff1673ffffffffffffffffffffffffffffffffffffffff168152602001908152602001600020541015611e12576040517f08c379a0000000000000000000000000000000000000000000000000000000008152600401611e09906141c0565b60405180910390fd5b611e3d33828473ffffffffffffffffffffffffffffffffffffffff16612a0d9092919063ffffffff16565b80606860003373ffffffffffffffffffffffffffffffffffffffff1673ffffffffffffffffffffffffffffffffffffffff16815260200190815260200160002060008473ffffffffffffffffffffffffffffffffffffffff1673ffffffffffffffffffffffffffffffffffffffff1681526020019081526020016000206000828254611ec9919061378f565b925050819055505050565b60006065604051611ee49061422c565b908152602001604051809103902060009054906101000a900473ffffffffffffffffffffffffffffffffffffffff1673ffffffffffffffffffffffffffffffffffffffff168273ffffffffffffffffffffffffffffffffffffffff1603611f4e5760019050611fcb565b6065604051611f5c9061428d565b908152602001604051809103902060009054906101000a900473ffffffffffffffffffffffffffffffffffffffff1673ffffffffffffffffffffffffffffffffffffffff168273ffffffffffffffffffffffffffffffffffffffff1603611fc65760019050611fcb565b600090505b919050565b606080611fdd85856121ac565b9150600082519050611fed612494565b73ffffffffffffffffffffffffffffffffffffffff16631f00ca7485856040518363ffffffff1660e01b81526004016120279291906142a2565b600060405180830381865afa158015612044573d6000803e3d6000fd5b505050506040513d6000823e3d601f19601f8201168201806040525081019061206d9190613b47565b9150815181146120b2576040517f08c379a00000000000000000000000000000000000000000000000000000000081526004016120a9906136d4565b60405180910390fd5b816001826120c0919061378f565b815181106120d1576120d06135ed565b5b6020026020010151841461211a576040517f08c379a00000000000000000000000000000000000000000000000000000000081526004016121119061431e565b60405180910390fd5b50935093915050565b6121a6846323b872dd60e01b8585856040516024016121449392919061433e565b604051602081830303815290604052907bffffffffffffffffffffffffffffffffffffffffffffffffffffffff19166020820180517bffffffffffffffffffffffffffffffffffffffffffffffffffffffff8381831617835250505050612a93565b50505050565b606060656040516121bc906143c1565b908152602001604051809103902060009054906101000a900473ffffffffffffffffffffffffffffffffffffffff1673ffffffffffffffffffffffffffffffffffffffff168373ffffffffffffffffffffffffffffffffffffffff1603612312576000600267ffffffffffffffff81111561223a57612239612e58565b5b6040519080825280602002602001820160405280156122685781602001602082028036833780820191505090505b50905083816000815181106122805761227f6135ed565b5b602002602001019073ffffffffffffffffffffffffffffffffffffffff16908173ffffffffffffffffffffffffffffffffffffffff168152505082816001815181106122cf576122ce6135ed565b5b602002602001019073ffffffffffffffffffffffffffffffffffffffff16908173ffffffffffffffffffffffffffffffffffffffff16815250508091505061248e565b6000600367ffffffffffffffff81111561232f5761232e612e58565b5b60405190808252806020026020018201604052801561235d5781602001602082028036833780820191505090505b5090508381600081518110612375576123746135ed565b5b602002602001019073ffffffffffffffffffffffffffffffffffffffff16908173ffffffffffffffffffffffffffffffffffffffff168152505060656040516123bd906143c1565b908152602001604051809103902060009054906101000a900473ffffffffffffffffffffffffffffffffffffffff1681600181518110612400576123ff6135ed565b5b602002602001019073ffffffffffffffffffffffffffffffffffffffff16908173ffffffffffffffffffffffffffffffffffffffff1681525050828160028151811061244f5761244e6135ed565b5b602002602001019073ffffffffffffffffffffffffffffffffffffffff16908173ffffffffffffffffffffffffffffffffffffffff1681525050809150505b92915050565b6000606760009054906101000a900473ffffffffffffffffffffffffffffffffffffffff16905090565b6124c6612b5b565b73ffffffffffffffffffffffffffffffffffffffff166124e4611918565b73ffffffffffffffffffffffffffffffffffffffff161461253a576040517f08c379a000000000000000000000000000000000000000000000000000000000815260040161253190614422565b60405180910390fd5b565b6000603360009054906101000a900473ffffffffffffffffffffffffffffffffffffffff16905081603360006101000a81548173ffffffffffffffffffffffffffffffffffffffff021916908373ffffffffffffffffffffffffffffffffffffffff1602179055508173ffffffffffffffffffffffffffffffffffffffff168173ffffffffffffffffffffffffffffffffffffffff167f8be0079c531659141344cd1fd0a4f28419497f9722a3daafe3b4186f6b6457e060405160405180910390a35050565b60006065604051612612906143c1565b908152602001604051809103902060009054906101000a900473ffffffffffffffffffffffffffffffffffffffff1673ffffffffffffffffffffffffffffffffffffffff168273ffffffffffffffffffffffffffffffffffffffff160361267c5760019050612771565b606560405161268a9061448e565b908152602001604051809103902060009054906101000a900473ffffffffffffffffffffffffffffffffffffffff1673ffffffffffffffffffffffffffffffffffffffff168273ffffffffffffffffffffffffffffffffffffffff16036126f45760019050612771565b6065604051612702906144ef565b908152602001604051809103902060009054906101000a900473ffffffffffffffffffffffffffffffffffffffff1673ffffffffffffffffffffffffffffffffffffffff168273ffffffffffffffffffffffffffffffffffffffff160361276c5760019050612771565b600090505b919050565b6000811480612800575060008373ffffffffffffffffffffffffffffffffffffffff1663dd62ed3e30856040518363ffffffff1660e01b81526004016127bd929190614504565b602060405180830381865afa1580156127da573d6000803e3d6000fd5b505050506040513d601f19601f820116820180604052508101906127fe919061452d565b145b61283f576040517f08c379a0000000000000000000000000000000000000000000000000000000008152600401612836906145cc565b60405180910390fd5b6128c08363095ea7b360e01b848460405160240161285e929190613ee6565b604051602081830303815290604052907bffffffffffffffffffffffffffffffffffffffffffffffffffffffff19166020820180517bffffffffffffffffffffffffffffffffffffffffffffffffffffffff8381831617835250505050612a93565b505050565b6060806128d285846121ac565b91506000825190506128e2612494565b73ffffffffffffffffffffffffffffffffffffffff1663d06ca61f86856040518363ffffffff1660e01b815260040161291c9291906142a2565b600060405180830381865afa158015612939573d6000803e3d6000fd5b505050506040513d6000823e3d601f19601f820116820180604052508101906129629190613b47565b9150815181146129a7576040517f08c379a000000000000000000000000000000000000000000000000000000000815260040161299e906136d4565b60405180910390fd5b816000815181106129bb576129ba6135ed565b5b60200260200101518514612a04576040517f08c379a00000000000000000000000000000000000000000000000000000000081526004016129fb90614638565b60405180910390fd5b50935093915050565b612a8e8363a9059cbb60e01b8484604051602401612a2c929190613ee6565b604051602081830303815290604052907bffffffffffffffffffffffffffffffffffffffffffffffffffffffff19166020820180517bffffffffffffffffffffffffffffffffffffffffffffffffffffffff8381831617835250505050612a93565b505050565b6000612af5826040518060400160405280602081526020017f5361666545524332303a206c6f772d6c6576656c2063616c6c206661696c65648152508573ffffffffffffffffffffffffffffffffffffffff16612b639092919063ffffffff16565b9050600081511480612b17575080806020019051810190612b169190613f47565b5b612b56576040517f08c379a0000000000000000000000000000000000000000000000000000000008152600401612b4d906146ca565b60405180910390fd5b505050565b600033905090565b6060612b728484600085612b7b565b90509392505050565b606082471015612bc0576040517f08c379a0000000000000000000000000000000000000000000000000000000008152600401612bb79061475c565b60405180910390fd5b6000808673ffffffffffffffffffffffffffffffffffffffff168587604051612be99190613bcc565b60006040518083038185875af1925050503d8060008114612c26576040519150601f19603f3d011682016040523d82523d6000602084013e612c2b565b606091505b5091509150612c3c87838387612c48565b92505050949350505050565b60608315612caa576000835103612ca257612c6285612cbd565b612ca1576040517f08c379a0000000000000000000000000000000000000000000000000000000008152600401612c98906147c8565b60405180910390fd5b5b829050612cb5565b612cb48383612ce0565b5b949350505050565b6000808273ffffffffffffffffffffffffffffffffffffffff163b119050919050565b600082511115612cf35781518083602001fd5b806040517f08c379a0000000000000000000000000000000000000000000000000000000008152600401612d2791906138f0565b60405180910390fd5b6000604051905090565b600080fd5b600080fd5b600073ffffffffffffffffffffffffffffffffffffffff82169050919050565b6000612d6f82612d44565b9050919050565b612d7f81612d64565b8114612d8a57600080fd5b50565b600081359050612d9c81612d76565b92915050565b6000819050919050565b612db581612da2565b8114612dc057600080fd5b50565b600081359050612dd281612dac565b92915050565b60008060408385031215612def57612dee612d3a565b5b6000612dfd85828601612d8d565b9250506020612e0e85828601612dc3565b9150509250929050565b612e2181612da2565b82525050565b6000602082019050612e3c6000830184612e18565b92915050565b600080fd5b6000601f19601f8301169050919050565b7f4e487b7100000000000000000000000000000000000000000000000000000000600052604160045260246000fd5b612e9082612e47565b810181811067ffffffffffffffff82111715612eaf57612eae612e58565b5b80604052505050565b6000612ec2612d30565b9050612ece8282612e87565b919050565b600067ffffffffffffffff821115612eee57612eed612e58565b5b602082029050602081019050919050565b600080fd5b6000612f17612f1284612ed3565b612eb8565b90508083825260208201905060208402830185811115612f3a57612f39612eff565b5b835b81811015612f635780612f4f8882612d8d565b845260208401935050602081019050612f3c565b5050509392505050565b600082601f830112612f8257612f81612e42565b5b8135612f92848260208601612f04565b91505092915050565b600067ffffffffffffffff821115612fb657612fb5612e58565b5b602082029050602081019050919050565b6000612fda612fd584612f9b565b612eb8565b90508083825260208201905060208402830185811115612ffd57612ffc612eff565b5b835b8181101561302657806130128882612dc3565b845260208401935050602081019050612fff565b5050509392505050565b600082601f83011261304557613044612e42565b5b8135613055848260208601612fc7565b91505092915050565b6000806040838503121561307557613074612d3a565b5b600083013567ffffffffffffffff81111561309357613092612d3f565b5b61309f85828601612f6d565b925050602083013567ffffffffffffffff8111156130c0576130bf612d3f565b5b6130cc85828601613030565b9150509250929050565b6000806000606084860312156130ef576130ee612d3a565b5b60006130fd86828701612d8d565b935050602061310e86828701612dc3565b925050604061311f86828701612d8d565b9150509250925092565b600081519050919050565b600082825260208201905092915050565b6000819050602082019050919050565b61315e81612d64565b82525050565b60006131708383613155565b60208301905092915050565b6000602082019050919050565b600061319482613129565b61319e8185613134565b93506131a983613145565b8060005b838110156131da5781516131c18882613164565b97506131cc8361317c565b9250506001810190506131ad565b5085935050505092915050565b600081519050919050565b600082825260208201905092915050565b6000819050602082019050919050565b61321c81612da2565b82525050565b600061322e8383613213565b60208301905092915050565b6000602082019050919050565b6000613252826131e7565b61325c81856131f2565b935061326783613203565b8060005b8381101561329857815161327f8882613222565b975061328a8361323a565b92505060018101905061326b565b5085935050505092915050565b600060408201905081810360008301526132bf8185613189565b905081810360208301526132d38184613247565b90509392505050565b6132e581612d64565b82525050565b600060208201905061330060008301846132dc565b92915050565b600080fd5b600067ffffffffffffffff82111561332657613325612e58565b5b61332f82612e47565b9050602081019050919050565b82818337600083830152505050565b600061335e6133598461330b565b612eb8565b90508281526020810184848401111561337a57613379613306565b5b61338584828561333c565b509392505050565b600082601f8301126133a2576133a1612e42565b5b81356133b284826020860161334b565b91505092915050565b6000602082840312156133d1576133d0612d3a565b5b600082013567ffffffffffffffff8111156133ef576133ee612d3f565b5b6133fb8482850161338d565b91505092915050565b60008060006060848603121561341d5761341c612d3a565b5b600061342b86828701612d8d565b935050602061343c86828701612d8d565b925050604061344d86828701612dc3565b9150509250925092565b6000806040838503121561346e5761346d612d3a565b5b600061347c85828601612dc3565b925050602061348d85828601612d8d565b9150509250929050565b600080604083850312156134ae576134ad612d3a565b5b60006134bc85828601612d8d565b92505060206134cd85828601612d8d565b9150509250929050565b6000602082840312156134ed576134ec612d3a565b5b60006134fb84828501612d8d565b91505092915050565b600082825260208201905092915050565b7f546f6b656e206e6f742072656465656d61626c65000000000000000000000000600082015250565b600061354b601483613504565b915061355682613515565b602082019050919050565b6000602082019050818103600083015261357a8161353e565b9050919050565b600081905092915050565b7f5743454c4f000000000000000000000000000000000000000000000000000000600082015250565b60006135c2600583613581565b91506135cd8261358c565b600582019050919050565b60006135e3826135b5565b9150819050919050565b7f4e487b7100000000000000000000000000000000000000000000000000000000600052603260045260246000fd5b7f417272617920656d707479000000000000000000000000000000000000000000600082015250565b6000613652600b83613504565b915061365d8261361c565b602082019050919050565b6000602082019050818103600083015261368181613645565b9050919050565b7f41727261797320756e657175616c000000000000000000000000000000000000600082015250565b60006136be600e83613504565b91506136c982613688565b602082019050919050565b600060208201905081810360008301526136ed816136b1565b9050919050565b7f496e73756666696369656e742054434f322062616c616e636500000000000000600082015250565b600061372a601983613504565b9150613735826136f4565b602082019050919050565b600060208201905081810360008301526137598161371d565b9050919050565b7f4e487b7100000000000000000000000000000000000000000000000000000000600052601160045260246000fd5b600061379a82612da2565b91506137a583612da2565b92508282039050818111156137bd576137bc613760565b5b92915050565b60008160e01c9050919050565b600060033d11156137ef5760046000803e6137ec6000516137c3565b90505b90565b600060443d1061387f57613804612d30565b60043d036004823e80513d602482011167ffffffffffffffff8211171561382c57505061387f565b808201805167ffffffffffffffff81111561384a575050505061387f565b80602083010160043d03850181111561386757505050505061387f565b61387682602001850186612e87565b82955050505050505b90565b600081519050919050565b60005b838110156138ab578082015181840152602081019050613890565b60008484015250505050565b60006138c282613882565b6138cc8185613504565b93506138dc81856020860161388d565b6138e581612e47565b840191505092915050565b6000602082019050818103600083015261390a81846138b7565b905092915050565b600081519050919050565b600082825260208201905092915050565b600061393982613912565b613943818561391d565b935061395381856020860161388d565b61395c81612e47565b840191505092915050565b60006020820190508181036000830152613981818461392e565b905092915050565b7f726574697265642074636f3220776974682063686565736563616b652e206e6960008201527f6365210000000000000000000000000000000000000000000000000000000000602082015250565b60006139e5602383613504565b91506139f082613989565b604082019050919050565b60006020820190508181036000830152613a14816139d8565b9050919050565b6000613a2682612da2565b9150613a3183612da2565b9250828201905080821115613a4957613a48613760565b5b92915050565b6000608082019050613a646000830187612e18565b8181036020830152613a768186613189565b9050613a8560408301856132dc565b613a926060830184612e18565b95945050505050565b600081519050613aaa81612dac565b92915050565b6000613ac3613abe84612f9b565b612eb8565b90508083825260208201905060208402830185811115613ae657613ae5612eff565b5b835b81811015613b0f5780613afb8882613a9b565b845260208401935050602081019050613ae8565b5050509392505050565b600082601f830112613b2e57613b2d612e42565b5b8151613b3e848260208601613ab0565b91505092915050565b600060208284031215613b5d57613b5c612d3a565b5b600082015167ffffffffffffffff811115613b7b57613b7a612d3f565b5b613b8784828501613b19565b91505092915050565b600081905092915050565b6000613ba682613912565b613bb08185613b90565b9350613bc081856020860161388d565b80840191505092915050565b6000613bd88284613b9b565b915081905092915050565b7f4661696c656420746f2073656e6420737572706c7573206261636b0000000000600082015250565b6000613c19601b83613504565b9150613c2482613be3565b602082019050919050565b60006020820190508181036000830152613c4881613c0c565b9050919050565b7f496e73756666696369656e74204e43542f4243542062616c616e636500000000600082015250565b6000613c85601c83613504565b9150613c9082613c4f565b602082019050919050565b60006020820190508181036000830152613cb481613c78565b9050919050565b600081519050613cca81612d76565b92915050565b6000613ce3613cde84612ed3565b612eb8565b90508083825260208201905060208402830185811115613d0657613d05612eff565b5b835b81811015613d2f5780613d1b8882613cbb565b845260208401935050602081019050613d08565b5050509392505050565b600082601f830112613d4e57613d4d612e42565b5b8151613d5e848260208601613cd0565b91505092915050565b60008060408385031215613d7e57613d7d612d3a565b5b600083015167ffffffffffffffff811115613d9c57613d9b612d3f565b5b613da885828601613d39565b925050602083015167ffffffffffffffff811115613dc957613dc8612d3f565b5b613dd585828601613b19565b9150509250929050565b6000613dea82612da2565b91507fffffffffffffffffffffffffffffffffffffffffffffffffffffffffffffffff8203613e1c57613e1b613760565b5b600182019050919050565b6000608082019050613e3c60008301876132dc565b613e4960208301866132dc565b8181036040830152613e5b8185613189565b90508181036060830152613e6f8184613247565b905095945050505050565b7f546f6b656e206e6f7420737761707061626c6500000000000000000000000000600082015250565b6000613eb0601383613504565b9150613ebb82613e7a565b602082019050919050565b60006020820190508181036000830152613edf81613ea3565b9050919050565b6000604082019050613efb60008301856132dc565b613f086020830184612e18565b9392505050565b60008115159050919050565b613f2481613f0f565b8114613f2f57600080fd5b50565b600081519050613f4181613f1b565b92915050565b600060208284031215613f5d57613f5c612d3a565b5b6000613f6b84828501613f32565b91505092915050565b600060a082019050613f896000830188612e18565b613f966020830187612e18565b8181036040830152613fa88186613189565b9050613fb760608301856132dc565b613fc46080830184612e18565b9695505050505050565b6000819050919050565b6000819050919050565b6000613ffd613ff8613ff384613fce565b613fd8565b612da2565b9050919050565b61400d81613fe2565b82525050565b600060408201905061402860008301856132dc565b6140356020830184614004565b9392505050565b600060a0820190506140516000830188612e18565b61405e6020830187614004565b81810360408301526140708186613189565b905061407f60608301856132dc565b61408c6080830184612e18565b9695505050505050565b60006080820190506140ab6000830187614004565b81810360208301526140bd8186613189565b90506140cc60408301856132dc565b6140d96060830184612e18565b95945050505050565b7f4f776e61626c653a206e6577206f776e657220697320746865207a65726f206160008201527f6464726573730000000000000000000000000000000000000000000000000000602082015250565b600061413e602683613504565b9150614149826140e2565b604082019050919050565b6000602082019050818103600083015261416d81614131565b9050919050565b7f496e73756666696369656e742062616c616e6365000000000000000000000000600082015250565b60006141aa601483613504565b91506141b582614174565b602082019050919050565b600060208201905081810360008301526141d98161419d565b9050919050565b7f4243540000000000000000000000000000000000000000000000000000000000600082015250565b6000614216600383613581565b9150614221826141e0565b600382019050919050565b600061423782614209565b9150819050919050565b7f4e43540000000000000000000000000000000000000000000000000000000000600082015250565b6000614277600383613581565b915061428282614241565b600382019050919050565b60006142988261426a565b9150819050919050565b60006040820190506142b76000830185612e18565b81810360208301526142c98184613189565b90509392505050565b7f4f757470757420616d6f756e74206d69736d6174636800000000000000000000600082015250565b6000614308601683613504565b9150614313826142d2565b602082019050919050565b60006020820190508181036000830152614337816142fb565b9050919050565b600060608201905061435360008301866132dc565b61436060208301856132dc565b61436d6040830184612e18565b949350505050565b7f6368555344000000000000000000000000000000000000000000000000000000600082015250565b60006143ab600583613581565b91506143b682614375565b600582019050919050565b60006143cc8261439e565b9150819050919050565b7f4f776e61626c653a2063616c6c6572206973206e6f7420746865206f776e6572600082015250565b600061440c602083613504565b9150614417826143d6565b602082019050919050565b6000602082019050818103600083015261443b816143ff565b9050919050565b7f6368434f32000000000000000000000000000000000000000000000000000000600082015250565b6000614478600583613581565b915061448382614442565b600582019050919050565b60006144998261446b565b9150819050919050565b7f43454c4f00000000000000000000000000000000000000000000000000000000600082015250565b60006144d9600483613581565b91506144e4826144a3565b600482019050919050565b60006144fa826144cc565b9150819050919050565b600060408201905061451960008301856132dc565b61452660208301846132dc565b9392505050565b60006020828403121561454357614542612d3a565b5b600061455184828501613a9b565b91505092915050565b7f5361666545524332303a20617070726f76652066726f6d206e6f6e2d7a65726f60008201527f20746f206e6f6e2d7a65726f20616c6c6f77616e636500000000000000000000602082015250565b60006145b6603683613504565b91506145c18261455a565b604082019050919050565b600060208201905081810360008301526145e5816145a9565b9050919050565b7f496e70757420616d6f756e74206d69736d617463680000000000000000000000600082015250565b6000614622601583613504565b915061462d826145ec565b602082019050919050565b6000602082019050818103600083015261465181614615565b9050919050565b7f5361666545524332303a204552433230206f7065726174696f6e20646964206e60008201527f6f74207375636365656400000000000000000000000000000000000000000000602082015250565b60006146b4602a83613504565b91506146bf82614658565b604082019050919050565b600060208201905081810360008301526146e3816146a7565b9050919050565b7f416464726573733a20696e73756666696369656e742062616c616e636520666f60008201527f722063616c6c0000000000000000000000000000000000000000000000000000602082015250565b6000614746602683613504565b9150614751826146ea565b604082019050919050565b6000602082019050818103600083015261477581614739565b9050919050565b7f416464726573733a2063616c6c20746f206e6f6e2d636f6e7472616374000000600082015250565b60006147b2601d83613504565b91506147bd8261477c565b602082019050919050565b600060208201905081810360008301526147e1816147a5565b905091905056fea2646970667358221220f1c6d16367d21066907cdbf225fb0e8e6b6211368877cd6b7f4cbddb04a18efd64736f6c63430008120033",
			"opcodes": "PUSH1 0x80 PUSH1 0x40 MSTORE PUSH20 0x48E04110AA4691EC3E9493187E6E9A3DB613E6E4 PUSH1 0x66 PUSH1 0x0 PUSH2 0x100 EXP DUP2 SLOAD DUP2 PUSH20 0xFFFFFFFFFFFFFFFFFFFFFFFFFFFFFFFFFFFFFFFF MUL NOT AND SWAP1 DUP4 PUSH20 0xFFFFFFFFFFFFFFFFFFFFFFFFFFFFFFFFFFFFFFFF AND MUL OR SWAP1 SSTORE POP PUSH20 0x5615CDAB10DC425A742D643D949A7F474C01ABC4 PUSH1 0x67 PUSH1 0x0 PUSH2 0x100 EXP DUP2 SLOAD DUP2 PUSH20 0xFFFFFFFFFFFFFFFFFFFFFFFFFFFFFFFFFFFFFFFF MUL NOT AND SWAP1 DUP4 PUSH20 0xFFFFFFFFFFFFFFFFFFFFFFFFFFFFFFFFFFFFFFFF AND MUL OR SWAP1 SSTORE POP CALLVALUE DUP1 ISZERO PUSH3 0xBB JUMPI PUSH1 0x0 DUP1 REVERT JUMPDEST POP PUSH1 0x40 MLOAD PUSH3 0x4F32 CODESIZE SUB DUP1 PUSH3 0x4F32 DUP4 CODECOPY DUP2 DUP2 ADD PUSH1 0x40 MSTORE DUP2 ADD SWAP1 PUSH3 0xE1 SWAP2 SWAP1 PUSH3 0x576 JUMP JUMPDEST PUSH1 0x0 DUP1 DUP4 MLOAD SWAP1 POP JUMPDEST DUP1 DUP3 LT ISZERO PUSH3 0x1A2 JUMPI DUP3 DUP3 DUP2 MLOAD DUP2 LT PUSH3 0x108 JUMPI PUSH3 0x107 PUSH3 0x5FB JUMP JUMPDEST JUMPDEST PUSH1 0x20 MUL PUSH1 0x20 ADD ADD MLOAD PUSH1 0x65 DUP6 DUP5 DUP2 MLOAD DUP2 LT PUSH3 0x128 JUMPI PUSH3 0x127 PUSH3 0x5FB JUMP JUMPDEST JUMPDEST PUSH1 0x20 MUL PUSH1 0x20 ADD ADD MLOAD PUSH1 0x40 MLOAD PUSH3 0x13F SWAP2 SWAP1 PUSH3 0x677 JUMP JUMPDEST SWAP1 DUP2 MSTORE PUSH1 0x20 ADD PUSH1 0x40 MLOAD DUP1 SWAP2 SUB SWAP1 KECCAK256 PUSH1 0x0 PUSH2 0x100 EXP DUP2 SLOAD DUP2 PUSH20 0xFFFFFFFFFFFFFFFFFFFFFFFFFFFFFFFFFFFFFFFF MUL NOT AND SWAP1 DUP4 PUSH20 0xFFFFFFFFFFFFFFFFFFFFFFFFFFFFFFFFFFFFFFFF AND MUL OR SWAP1 SSTORE POP PUSH1 0x1 DUP3 PUSH3 0x19A SWAP2 SWAP1 PUSH3 0x6C9 JUMP JUMPDEST SWAP2 POP PUSH3 0xE9 JUMP JUMPDEST POP POP POP POP PUSH3 0x704 JUMP JUMPDEST PUSH1 0x0 PUSH1 0x40 MLOAD SWAP1 POP SWAP1 JUMP JUMPDEST PUSH1 0x0 DUP1 REVERT JUMPDEST PUSH1 0x0 DUP1 REVERT JUMPDEST PUSH1 0x0 DUP1 REVERT JUMPDEST PUSH1 0x0 PUSH1 0x1F NOT PUSH1 0x1F DUP4 ADD AND SWAP1 POP SWAP2 SWAP1 POP JUMP JUMPDEST PUSH32 0x4E487B7100000000000000000000000000000000000000000000000000000000 PUSH1 0x0 MSTORE PUSH1 0x41 PUSH1 0x4 MSTORE PUSH1 0x24 PUSH1 0x0 REVERT JUMPDEST PUSH3 0x210 DUP3 PUSH3 0x1C5 JUMP JUMPDEST DUP2 ADD DUP2 DUP2 LT PUSH8 0xFFFFFFFFFFFFFFFF DUP3 GT OR ISZERO PUSH3 0x232 JUMPI PUSH3 0x231 PUSH3 0x1D6 JUMP JUMPDEST JUMPDEST DUP1 PUSH1 0x40 MSTORE POP POP POP JUMP JUMPDEST PUSH1 0x0 PUSH3 0x247 PUSH3 0x1AC JUMP JUMPDEST SWAP1 POP PUSH3 0x255 DUP3 DUP3 PUSH3 0x205 JUMP JUMPDEST SWAP2 SWAP1 POP JUMP JUMPDEST PUSH1 0x0 PUSH8 0xFFFFFFFFFFFFFFFF DUP3 GT ISZERO PUSH3 0x278 JUMPI PUSH3 0x277 PUSH3 0x1D6 JUMP JUMPDEST JUMPDEST PUSH1 0x20 DUP3 MUL SWAP1 POP PUSH1 0x20 DUP2 ADD SWAP1 POP SWAP2 SWAP1 POP JUMP JUMPDEST PUSH1 0x0 DUP1 REVERT JUMPDEST PUSH1 0x0 DUP1 REVERT JUMPDEST PUSH1 0x0 PUSH8 0xFFFFFFFFFFFFFFFF DUP3 GT ISZERO PUSH3 0x2B1 JUMPI PUSH3 0x2B0 PUSH3 0x1D6 JUMP JUMPDEST JUMPDEST PUSH3 0x2BC DUP3 PUSH3 0x1C5 JUMP JUMPDEST SWAP1 POP PUSH1 0x20 DUP2 ADD SWAP1 POP SWAP2 SWAP1 POP JUMP JUMPDEST PUSH1 0x0 JUMPDEST DUP4 DUP2 LT ISZERO PUSH3 0x2E9 JUMPI DUP1 DUP3 ADD MLOAD DUP2 DUP5 ADD MSTORE PUSH1 0x20 DUP2 ADD SWAP1 POP PUSH3 0x2CC JUMP JUMPDEST PUSH1 0x0 DUP5 DUP5 ADD MSTORE POP POP POP POP JUMP JUMPDEST PUSH1 0x0 PUSH3 0x30C PUSH3 0x306 DUP5 PUSH3 0x293 JUMP JUMPDEST PUSH3 0x23B JUMP JUMPDEST SWAP1 POP DUP3 DUP2 MSTORE PUSH1 0x20 DUP2 ADD DUP5 DUP5 DUP5 ADD GT ISZERO PUSH3 0x32B JUMPI PUSH3 0x32A PUSH3 0x28E JUMP JUMPDEST JUMPDEST PUSH3 0x338 DUP5 DUP3 DUP6 PUSH3 0x2C9 JUMP JUMPDEST POP SWAP4 SWAP3 POP POP POP JUMP JUMPDEST PUSH1 0x0 DUP3 PUSH1 0x1F DUP4 ADD SLT PUSH3 0x358 JUMPI PUSH3 0x357 PUSH3 0x1C0 JUMP JUMPDEST JUMPDEST DUP2 MLOAD PUSH3 0x36A DUP5 DUP3 PUSH1 0x20 DUP7 ADD PUSH3 0x2F5 JUMP JUMPDEST SWAP2 POP POP SWAP3 SWAP2 POP POP JUMP JUMPDEST PUSH1 0x0 PUSH3 0x38A PUSH3 0x384 DUP5 PUSH3 0x25A JUMP JUMPDEST PUSH3 0x23B JUMP JUMPDEST SWAP1 POP DUP1 DUP4 DUP3 MSTORE PUSH1 0x20 DUP3 ADD SWAP1 POP PUSH1 0x20 DUP5 MUL DUP4 ADD DUP6 DUP2 GT ISZERO PUSH3 0x3B0 JUMPI PUSH3 0x3AF PUSH3 0x289 JUMP JUMPDEST JUMPDEST DUP4 JUMPDEST DUP2 DUP2 LT ISZERO PUSH3 0x3FE JUMPI DUP1 MLOAD PUSH8 0xFFFFFFFFFFFFFFFF DUP2 GT ISZERO PUSH3 0x3D9 JUMPI PUSH3 0x3D8 PUSH3 0x1C0 JUMP JUMPDEST JUMPDEST DUP1 DUP7 ADD PUSH3 0x3E8 DUP10 DUP3 PUSH3 0x340 JUMP JUMPDEST DUP6 MSTORE PUSH1 0x20 DUP6 ADD SWAP5 POP POP POP PUSH1 0x20 DUP2 ADD SWAP1 POP PUSH3 0x3B2 JUMP JUMPDEST POP POP POP SWAP4 SWAP3 POP POP POP JUMP JUMPDEST PUSH1 0x0 DUP3 PUSH1 0x1F DUP4 ADD SLT PUSH3 0x420 JUMPI PUSH3 0x41F PUSH3 0x1C0 JUMP JUMPDEST JUMPDEST DUP2 MLOAD PUSH3 0x432 DUP5 DUP3 PUSH1 0x20 DUP7 ADD PUSH3 0x373 JUMP JUMPDEST SWAP2 POP POP SWAP3 SWAP2 POP POP JUMP JUMPDEST PUSH1 0x0 PUSH8 0xFFFFFFFFFFFFFFFF DUP3 GT ISZERO PUSH3 0x459 JUMPI PUSH3 0x458 PUSH3 0x1D6 JUMP JUMPDEST JUMPDEST PUSH1 0x20 DUP3 MUL SWAP1 POP PUSH1 0x20 DUP2 ADD SWAP1 POP SWAP2 SWAP1 POP JUMP JUMPDEST PUSH1 0x0 PUSH20 0xFFFFFFFFFFFFFFFFFFFFFFFFFFFFFFFFFFFFFFFF DUP3 AND SWAP1 POP SWAP2 SWAP1 POP JUMP JUMPDEST PUSH1 0x0 PUSH3 0x497 DUP3 PUSH3 0x46A JUMP JUMPDEST SWAP1 POP SWAP2 SWAP1 POP JUMP JUMPDEST PUSH3 0x4A9 DUP2 PUSH3 0x48A JUMP JUMPDEST DUP2 EQ PUSH3 0x4B5 JUMPI PUSH1 0x0 DUP1 REVERT JUMPDEST POP JUMP JUMPDEST PUSH1 0x0 DUP2 MLOAD SWAP1 POP PUSH3 0x4C9 DUP2 PUSH3 0x49E JUMP JUMPDEST SWAP3 SWAP2 POP POP JUMP JUMPDEST PUSH1 0x0 PUSH3 0x4E6 PUSH3 0x4E0 DUP5 PUSH3 0x43B JUMP JUMPDEST PUSH3 0x23B JUMP JUMPDEST SWAP1 POP DUP1 DUP4 DUP3 MSTORE PUSH1 0x20 DUP3 ADD SWAP1 POP PUSH1 0x20 DUP5 MUL DUP4 ADD DUP6 DUP2 GT ISZERO PUSH3 0x50C JUMPI PUSH3 0x50B PUSH3 0x289 JUMP JUMPDEST JUMPDEST DUP4 JUMPDEST DUP2 DUP2 LT ISZERO PUSH3 0x539 JUMPI DUP1 PUSH3 0x524 DUP9 DUP3 PUSH3 0x4B8 JUMP JUMPDEST DUP5 MSTORE PUSH1 0x20 DUP5 ADD SWAP4 POP POP PUSH1 0x20 DUP2 ADD SWAP1 POP PUSH3 0x50E JUMP JUMPDEST POP POP POP SWAP4 SWAP3 POP POP POP JUMP JUMPDEST PUSH1 0x0 DUP3 PUSH1 0x1F DUP4 ADD SLT PUSH3 0x55B JUMPI PUSH3 0x55A PUSH3 0x1C0 JUMP JUMPDEST JUMPDEST DUP2 MLOAD PUSH3 0x56D DUP5 DUP3 PUSH1 0x20 DUP7 ADD PUSH3 0x4CF JUMP JUMPDEST SWAP2 POP POP SWAP3 SWAP2 POP POP JUMP JUMPDEST PUSH1 0x0 DUP1 PUSH1 0x40 DUP4 DUP6 SUB SLT ISZERO PUSH3 0x590 JUMPI PUSH3 0x58F PUSH3 0x1B6 JUMP JUMPDEST JUMPDEST PUSH1 0x0 DUP4 ADD MLOAD PUSH8 0xFFFFFFFFFFFFFFFF DUP2 GT ISZERO PUSH3 0x5B1 JUMPI PUSH3 0x5B0 PUSH3 0x1BB JUMP JUMPDEST JUMPDEST PUSH3 0x5BF DUP6 DUP3 DUP7 ADD PUSH3 0x408 JUMP JUMPDEST SWAP3 POP POP PUSH1 0x20 DUP4 ADD MLOAD PUSH8 0xFFFFFFFFFFFFFFFF DUP2 GT ISZERO PUSH3 0x5E3 JUMPI PUSH3 0x5E2 PUSH3 0x1BB JUMP JUMPDEST JUMPDEST PUSH3 0x5F1 DUP6 DUP3 DUP7 ADD PUSH3 0x543 JUMP JUMPDEST SWAP2 POP POP SWAP3 POP SWAP3 SWAP1 POP JUMP JUMPDEST PUSH32 0x4E487B7100000000000000000000000000000000000000000000000000000000 PUSH1 0x0 MSTORE PUSH1 0x32 PUSH1 0x4 MSTORE PUSH1 0x24 PUSH1 0x0 REVERT JUMPDEST PUSH1 0x0 DUP2 MLOAD SWAP1 POP SWAP2 SWAP1 POP JUMP JUMPDEST PUSH1 0x0 DUP2 SWAP1 POP SWAP3 SWAP2 POP POP JUMP JUMPDEST PUSH1 0x0 PUSH3 0x64D DUP3 PUSH3 0x62A JUMP JUMPDEST PUSH3 0x659 DUP2 DUP6 PUSH3 0x635 JUMP JUMPDEST SWAP4 POP PUSH3 0x66B DUP2 DUP6 PUSH1 0x20 DUP7 ADD PUSH3 0x2C9 JUMP JUMPDEST DUP1 DUP5 ADD SWAP2 POP POP SWAP3 SWAP2 POP POP JUMP JUMPDEST PUSH1 0x0 PUSH3 0x685 DUP3 DUP5 PUSH3 0x640 JUMP JUMPDEST SWAP2 POP DUP2 SWAP1 POP SWAP3 SWAP2 POP POP JUMP JUMPDEST PUSH1 0x0 DUP2 SWAP1 POP SWAP2 SWAP1 POP JUMP JUMPDEST PUSH32 0x4E487B7100000000000000000000000000000000000000000000000000000000 PUSH1 0x0 MSTORE PUSH1 0x11 PUSH1 0x4 MSTORE PUSH1 0x24 PUSH1 0x0 REVERT JUMPDEST PUSH1 0x0 PUSH3 0x6D6 DUP3 PUSH3 0x690 JUMP JUMPDEST SWAP2 POP PUSH3 0x6E3 DUP4 PUSH3 0x690 JUMP JUMPDEST SWAP3 POP DUP3 DUP3 ADD SWAP1 POP DUP1 DUP3 GT ISZERO PUSH3 0x6FE JUMPI PUSH3 0x6FD PUSH3 0x69A JUMP JUMPDEST JUMPDEST SWAP3 SWAP2 POP POP JUMP JUMPDEST PUSH2 0x481E DUP1 PUSH3 0x714 PUSH1 0x0 CODECOPY PUSH1 0x0 RETURN INVALID PUSH1 0x80 PUSH1 0x40 MSTORE PUSH1 0x4 CALLDATASIZE LT PUSH2 0x139 JUMPI PUSH1 0x0 CALLDATALOAD PUSH1 0xE0 SHR DUP1 PUSH4 0x8474C288 GT PUSH2 0xAB JUMPI DUP1 PUSH4 0xC23F001F GT PUSH2 0x6F JUMPI DUP1 PUSH4 0xC23F001F EQ PUSH2 0x450 JUMPI DUP1 PUSH4 0xD08EC475 EQ PUSH2 0x48D JUMPI DUP1 PUSH4 0xD8A90C40 EQ PUSH2 0x4CB JUMPI DUP1 PUSH4 0xF04AD9D7 EQ PUSH2 0x4FB JUMPI DUP1 PUSH4 0xF2FDE38B EQ PUSH2 0x52C JUMPI DUP1 PUSH4 0xF3FEF3A3 EQ PUSH2 0x555 JUMPI PUSH2 0x140 JUMP JUMPDEST DUP1 PUSH4 0x8474C288 EQ PUSH2 0x344 JUMPI DUP1 PUSH4 0x8AEF324C EQ PUSH2 0x36D JUMPI DUP1 PUSH4 0x8DA5CB5B EQ PUSH2 0x3AA JUMPI DUP1 PUSH4 0xA0CD6049 EQ PUSH2 0x3D5 JUMPI DUP1 PUSH4 0xA59BE914 EQ PUSH2 0x413 JUMPI PUSH2 0x140 JUMP JUMPDEST DUP1 PUSH4 0x47E7EF24 GT PUSH2 0xFD JUMPI DUP1 PUSH4 0x47E7EF24 EQ PUSH2 0x242 JUMPI DUP1 PUSH4 0x5367CD9C EQ PUSH2 0x26B JUMPI DUP1 PUSH4 0x5D25309D EQ PUSH2 0x287 JUMPI DUP1 PUSH4 0x715018A6 EQ PUSH2 0x2C4 JUMPI DUP1 PUSH4 0x79BBCE8F EQ PUSH2 0x2DB JUMPI DUP1 PUSH4 0x82155E7E EQ PUSH2 0x306 JUMPI PUSH2 0x140 JUMP JUMPDEST DUP1 PUSH4 0x1109EC99 EQ PUSH2 0x142 JUMPI DUP1 PUSH4 0x1661F818 EQ PUSH2 0x17F JUMPI DUP1 PUSH4 0x226EE4EF EQ PUSH2 0x1A8 JUMPI DUP1 PUSH4 0x2E98C814 EQ PUSH2 0x1E6 JUMPI DUP1 PUSH4 0x46AF6070 EQ PUSH2 0x217 JUMPI PUSH2 0x140 JUMP JUMPDEST CALLDATASIZE PUSH2 0x140 JUMPI STOP JUMPDEST STOP JUMPDEST CALLVALUE DUP1 ISZERO PUSH2 0x14E JUMPI PUSH1 0x0 DUP1 REVERT JUMPDEST POP PUSH2 0x169 PUSH1 0x4 DUP1 CALLDATASIZE SUB DUP2 ADD SWAP1 PUSH2 0x164 SWAP2 SWAP1 PUSH2 0x2DD8 JUMP JUMPDEST PUSH2 0x57E JUMP JUMPDEST PUSH1 0x40 MLOAD PUSH2 0x176 SWAP2 SWAP1 PUSH2 0x2E27 JUMP JUMPDEST PUSH1 0x40 MLOAD DUP1 SWAP2 SUB SWAP1 RETURN JUMPDEST CALLVALUE DUP1 ISZERO PUSH2 0x18B JUMPI PUSH1 0x0 DUP1 REVERT JUMPDEST POP PUSH2 0x1A6 PUSH1 0x4 DUP1 CALLDATASIZE SUB DUP2 ADD SWAP1 PUSH2 0x1A1 SWAP2 SWAP1 PUSH2 0x305E JUMP JUMPDEST PUSH2 0x641 JUMP JUMPDEST STOP JUMPDEST CALLVALUE DUP1 ISZERO PUSH2 0x1B4 JUMPI PUSH1 0x0 DUP1 REVERT JUMPDEST POP PUSH2 0x1CF PUSH1 0x4 DUP1 CALLDATASIZE SUB DUP2 ADD SWAP1 PUSH2 0x1CA SWAP2 SWAP1 PUSH2 0x30D6 JUMP JUMPDEST PUSH2 0xA7A JUMP JUMPDEST PUSH1 0x40 MLOAD PUSH2 0x1DD SWAP3 SWAP2 SWAP1 PUSH2 0x32A5 JUMP JUMPDEST PUSH1 0x40 MLOAD DUP1 SWAP2 SUB SWAP1 RETURN JUMPDEST PUSH2 0x200 PUSH1 0x4 DUP1 CALLDATASIZE SUB DUP2 ADD SWAP1 PUSH2 0x1FB SWAP2 SWAP1 PUSH2 0x2DD8 JUMP JUMPDEST PUSH2 0xAB1 JUMP JUMPDEST PUSH1 0x40 MLOAD PUSH2 0x20E SWAP3 SWAP2 SWAP1 PUSH2 0x32A5 JUMP JUMPDEST PUSH1 0x40 MLOAD DUP1 SWAP2 SUB SWAP1 RETURN JUMPDEST CALLVALUE DUP1 ISZERO PUSH2 0x223 JUMPI PUSH1 0x0 DUP1 REVERT JUMPDEST POP PUSH2 0x22C PUSH2 0xAE1 JUMP JUMPDEST PUSH1 0x40 MLOAD PUSH2 0x239 SWAP2 SWAP1 PUSH2 0x32EB JUMP JUMPDEST PUSH1 0x40 MLOAD DUP1 SWAP2 SUB SWAP1 RETURN JUMPDEST CALLVALUE DUP1 ISZERO PUSH2 0x24E JUMPI PUSH1 0x0 DUP1 REVERT JUMPDEST POP PUSH2 0x269 PUSH1 0x4 DUP1 CALLDATASIZE SUB DUP2 ADD SWAP1 PUSH2 0x264 SWAP2 SWAP1 PUSH2 0x2DD8 JUMP JUMPDEST PUSH2 0xB07 JUMP JUMPDEST STOP JUMPDEST PUSH2 0x285 PUSH1 0x4 DUP1 CALLDATASIZE SUB DUP2 ADD SWAP1 PUSH2 0x280 SWAP2 SWAP1 PUSH2 0x2DD8 JUMP JUMPDEST PUSH2 0xC15 JUMP JUMPDEST STOP JUMPDEST CALLVALUE DUP1 ISZERO PUSH2 0x293 JUMPI PUSH1 0x0 DUP1 REVERT JUMPDEST POP PUSH2 0x2AE PUSH1 0x4 DUP1 CALLDATASIZE SUB DUP2 ADD SWAP1 PUSH2 0x2A9 SWAP2 SWAP1 PUSH2 0x33BB JUMP JUMPDEST PUSH2 0xF27 JUMP JUMPDEST PUSH1 0x40 MLOAD PUSH2 0x2BB SWAP2 SWAP1 PUSH2 0x32EB JUMP JUMPDEST PUSH1 0x40 MLOAD DUP1 SWAP2 SUB SWAP1 RETURN JUMPDEST CALLVALUE DUP1 ISZERO PUSH2 0x2D0 JUMPI PUSH1 0x0 DUP1 REVERT JUMPDEST POP PUSH2 0x2D9 PUSH2 0xF70 JUMP JUMPDEST STOP JUMPDEST CALLVALUE DUP1 ISZERO PUSH2 0x2E7 JUMPI PUSH1 0x0 DUP1 REVERT JUMPDEST POP PUSH2 0x2F0 PUSH2 0xF84 JUMP JUMPDEST PUSH1 0x40 MLOAD PUSH2 0x2FD SWAP2 SWAP1 PUSH2 0x32EB JUMP JUMPDEST PUSH1 0x40 MLOAD DUP1 SWAP2 SUB SWAP1 RETURN JUMPDEST CALLVALUE DUP1 ISZERO PUSH2 0x312 JUMPI PUSH1 0x0 DUP1 REVERT JUMPDEST POP PUSH2 0x32D PUSH1 0x4 DUP1 CALLDATASIZE SUB DUP2 ADD SWAP1 PUSH2 0x328 SWAP2 SWAP1 PUSH2 0x2DD8 JUMP JUMPDEST PUSH2 0xFAA JUMP JUMPDEST PUSH1 0x40 MLOAD PUSH2 0x33B SWAP3 SWAP2 SWAP1 PUSH2 0x32A5 JUMP JUMPDEST PUSH1 0x40 MLOAD DUP1 SWAP2 SUB SWAP1 RETURN JUMPDEST CALLVALUE DUP1 ISZERO PUSH2 0x350 JUMPI PUSH1 0x0 DUP1 REVERT JUMPDEST POP PUSH2 0x36B PUSH1 0x4 DUP1 CALLDATASIZE SUB DUP2 ADD SWAP1 PUSH2 0x366 SWAP2 SWAP1 PUSH2 0x3404 JUMP JUMPDEST PUSH2 0x1309 JUMP JUMPDEST STOP JUMPDEST CALLVALUE DUP1 ISZERO PUSH2 0x379 JUMPI PUSH1 0x0 DUP1 REVERT JUMPDEST POP PUSH2 0x394 PUSH1 0x4 DUP1 CALLDATASIZE SUB DUP2 ADD SWAP1 PUSH2 0x38F SWAP2 SWAP1 PUSH2 0x30D6 JUMP JUMPDEST PUSH2 0x1693 JUMP JUMPDEST PUSH1 0x40 MLOAD PUSH2 0x3A1 SWAP2 SWAP1 PUSH2 0x2E27 JUMP JUMPDEST PUSH1 0x40 MLOAD DUP1 SWAP2 SUB SWAP1 RETURN JUMPDEST CALLVALUE DUP1 ISZERO PUSH2 0x3B6 JUMPI PUSH1 0x0 DUP1 REVERT JUMPDEST POP PUSH2 0x3BF PUSH2 0x1918 JUMP JUMPDEST PUSH1 0x40 MLOAD PUSH2 0x3CC SWAP2 SWAP1 PUSH2 0x32EB JUMP JUMPDEST PUSH1 0x40 MLOAD DUP1 SWAP2 SUB SWAP1 RETURN JUMPDEST CALLVALUE DUP1 ISZERO PUSH2 0x3E1 JUMPI PUSH1 0x0 DUP1 REVERT JUMPDEST POP PUSH2 0x3FC PUSH1 0x4 DUP1 CALLDATASIZE SUB DUP2 ADD SWAP1 PUSH2 0x3F7 SWAP2 SWAP1 PUSH2 0x3404 JUMP JUMPDEST PUSH2 0x1942 JUMP JUMPDEST PUSH1 0x40 MLOAD PUSH2 0x40A SWAP3 SWAP2 SWAP1 PUSH2 0x32A5 JUMP JUMPDEST PUSH1 0x40 MLOAD DUP1 SWAP2 SUB SWAP1 RETURN JUMPDEST CALLVALUE DUP1 ISZERO PUSH2 0x41F JUMPI PUSH1 0x0 DUP1 REVERT JUMPDEST POP PUSH2 0x43A PUSH1 0x4 DUP1 CALLDATASIZE SUB DUP2 ADD SWAP1 PUSH2 0x435 SWAP2 SWAP1 PUSH2 0x3457 JUMP JUMPDEST PUSH2 0x1974 JUMP JUMPDEST PUSH1 0x40 MLOAD PUSH2 0x447 SWAP2 SWAP1 PUSH2 0x2E27 JUMP JUMPDEST PUSH1 0x40 MLOAD DUP1 SWAP2 SUB SWAP1 RETURN JUMPDEST CALLVALUE DUP1 ISZERO PUSH2 0x45C JUMPI PUSH1 0x0 DUP1 REVERT JUMPDEST POP PUSH2 0x477 PUSH1 0x4 DUP1 CALLDATASIZE SUB DUP2 ADD SWAP1 PUSH2 0x472 SWAP2 SWAP1 PUSH2 0x3497 JUMP JUMPDEST PUSH2 0x1A43 JUMP JUMPDEST PUSH1 0x40 MLOAD PUSH2 0x484 SWAP2 SWAP1 PUSH2 0x2E27 JUMP JUMPDEST PUSH1 0x40 MLOAD DUP1 SWAP2 SUB SWAP1 RETURN JUMPDEST CALLVALUE DUP1 ISZERO PUSH2 0x499 JUMPI PUSH1 0x0 DUP1 REVERT JUMPDEST POP PUSH2 0x4B4 PUSH1 0x4 DUP1 CALLDATASIZE SUB DUP2 ADD SWAP1 PUSH2 0x4AF SWAP2 SWAP1 PUSH2 0x2DD8 JUMP JUMPDEST PUSH2 0x1A68 JUMP JUMPDEST PUSH1 0x40 MLOAD PUSH2 0x4C2 SWAP3 SWAP2 SWAP1 PUSH2 0x32A5 JUMP JUMPDEST PUSH1 0x40 MLOAD DUP1 SWAP2 SUB SWAP1 RETURN JUMPDEST PUSH2 0x4E5 PUSH1 0x4 DUP1 CALLDATASIZE SUB DUP2 ADD SWAP1 PUSH2 0x4E0 SWAP2 SWAP1 PUSH2 0x34D7 JUMP JUMPDEST PUSH2 0x1A98 JUMP JUMPDEST PUSH1 0x40 MLOAD PUSH2 0x4F2 SWAP2 SWAP1 PUSH2 0x2E27 JUMP JUMPDEST PUSH1 0x40 MLOAD DUP1 SWAP2 SUB SWAP1 RETURN JUMPDEST PUSH2 0x515 PUSH1 0x4 DUP1 CALLDATASIZE SUB DUP2 ADD SWAP1 PUSH2 0x510 SWAP2 SWAP1 PUSH2 0x34D7 JUMP JUMPDEST PUSH2 0x1C9E JUMP JUMPDEST PUSH1 0x40 MLOAD PUSH2 0x523 SWAP3 SWAP2 SWAP1 PUSH2 0x32A5 JUMP JUMPDEST PUSH1 0x40 MLOAD DUP1 SWAP2 SUB SWAP1 RETURN JUMPDEST CALLVALUE DUP1 ISZERO PUSH2 0x538 JUMPI PUSH1 0x0 DUP1 REVERT JUMPDEST POP PUSH2 0x553 PUSH1 0x4 DUP1 CALLDATASIZE SUB DUP2 ADD SWAP1 PUSH2 0x54E SWAP2 SWAP1 PUSH2 0x34D7 JUMP JUMPDEST PUSH2 0x1CD0 JUMP JUMPDEST STOP JUMPDEST CALLVALUE DUP1 ISZERO PUSH2 0x561 JUMPI PUSH1 0x0 DUP1 REVERT JUMPDEST POP PUSH2 0x57C PUSH1 0x4 DUP1 CALLDATASIZE SUB DUP2 ADD SWAP1 PUSH2 0x577 SWAP2 SWAP1 PUSH2 0x2DD8 JUMP JUMPDEST PUSH2 0x1D53 JUMP JUMPDEST STOP JUMPDEST PUSH1 0x0 DUP3 PUSH2 0x58A DUP2 PUSH2 0x1ED4 JUMP JUMPDEST PUSH2 0x5C9 JUMPI PUSH1 0x40 MLOAD PUSH32 0x8C379A000000000000000000000000000000000000000000000000000000000 DUP2 MSTORE PUSH1 0x4 ADD PUSH2 0x5C0 SWAP1 PUSH2 0x3561 JUMP JUMPDEST PUSH1 0x40 MLOAD DUP1 SWAP2 SUB SWAP1 REVERT JUMPDEST PUSH1 0x0 PUSH1 0x65 PUSH1 0x40 MLOAD PUSH2 0x5D9 SWAP1 PUSH2 0x35D8 JUMP JUMPDEST SWAP1 DUP2 MSTORE PUSH1 0x20 ADD PUSH1 0x40 MLOAD DUP1 SWAP2 SUB SWAP1 KECCAK256 PUSH1 0x0 SWAP1 SLOAD SWAP1 PUSH2 0x100 EXP SWAP1 DIV PUSH20 0xFFFFFFFFFFFFFFFFFFFFFFFFFFFFFFFFFFFFFFFF AND SWAP1 POP PUSH1 0x0 PUSH2 0x617 DUP3 DUP8 DUP8 PUSH2 0x1FD0 JUMP JUMPDEST SWAP2 POP POP DUP1 PUSH1 0x0 DUP2 MLOAD DUP2 LT PUSH2 0x62E JUMPI PUSH2 0x62D PUSH2 0x35ED JUMP JUMPDEST JUMPDEST PUSH1 0x20 MUL PUSH1 0x20 ADD ADD MLOAD SWAP4 POP POP POP POP SWAP3 SWAP2 POP POP JUMP JUMPDEST PUSH1 0x0 DUP3 MLOAD SWAP1 POP PUSH1 0x0 DUP2 SUB PUSH2 0x68A JUMPI PUSH1 0x40 MLOAD PUSH32 0x8C379A000000000000000000000000000000000000000000000000000000000 DUP2 MSTORE PUSH1 0x4 ADD PUSH2 0x681 SWAP1 PUSH2 0x3668 JUMP JUMPDEST PUSH1 0x40 MLOAD DUP1 SWAP2 SUB SWAP1 REVERT JUMPDEST DUP2 MLOAD DUP2 EQ PUSH2 0x6CD JUMPI PUSH1 0x40 MLOAD PUSH32 0x8C379A000000000000000000000000000000000000000000000000000000000 DUP2 MSTORE PUSH1 0x4 ADD PUSH2 0x6C4 SWAP1 PUSH2 0x36D4 JUMP JUMPDEST PUSH1 0x40 MLOAD DUP1 SWAP2 SUB SWAP1 REVERT JUMPDEST PUSH1 0x0 JUMPDEST DUP2 DUP2 LT ISZERO PUSH2 0xA74 JUMPI PUSH1 0x0 DUP4 DUP3 DUP2 MLOAD DUP2 LT PUSH2 0x6ED JUMPI PUSH2 0x6EC PUSH2 0x35ED JUMP JUMPDEST JUMPDEST PUSH1 0x20 MUL PUSH1 0x20 ADD ADD MLOAD SUB PUSH2 0x707 JUMPI DUP1 DUP1 PUSH1 0x1 ADD SWAP2 POP POP PUSH2 0x6D0 JUMP JUMPDEST DUP3 DUP2 DUP2 MLOAD DUP2 LT PUSH2 0x71A JUMPI PUSH2 0x719 PUSH2 0x35ED JUMP JUMPDEST JUMPDEST PUSH1 0x20 MUL PUSH1 0x20 ADD ADD MLOAD PUSH1 0x68 PUSH1 0x0 CALLER PUSH20 0xFFFFFFFFFFFFFFFFFFFFFFFFFFFFFFFFFFFFFFFF AND PUSH20 0xFFFFFFFFFFFFFFFFFFFFFFFFFFFFFFFFFFFFFFFF AND DUP2 MSTORE PUSH1 0x20 ADD SWAP1 DUP2 MSTORE PUSH1 0x20 ADD PUSH1 0x0 KECCAK256 PUSH1 0x0 DUP7 DUP5 DUP2 MLOAD DUP2 LT PUSH2 0x776 JUMPI PUSH2 0x775 PUSH2 0x35ED JUMP JUMPDEST JUMPDEST PUSH1 0x20 MUL PUSH1 0x20 ADD ADD MLOAD PUSH20 0xFFFFFFFFFFFFFFFFFFFFFFFFFFFFFFFFFFFFFFFF AND PUSH20 0xFFFFFFFFFFFFFFFFFFFFFFFFFFFFFFFFFFFFFFFF AND DUP2 MSTORE PUSH1 0x20 ADD SWAP1 DUP2 MSTORE PUSH1 0x20 ADD PUSH1 0x0 KECCAK256 SLOAD LT ISZERO PUSH2 0x7FA JUMPI PUSH1 0x40 MLOAD PUSH32 0x8C379A000000000000000000000000000000000000000000000000000000000 DUP2 MSTORE PUSH1 0x4 ADD PUSH2 0x7F1 SWAP1 PUSH2 0x3740 JUMP JUMPDEST PUSH1 0x40 MLOAD DUP1 SWAP2 SUB SWAP1 REVERT JUMPDEST DUP3 DUP2 DUP2 MLOAD DUP2 LT PUSH2 0x80D JUMPI PUSH2 0x80C PUSH2 0x35ED JUMP JUMPDEST JUMPDEST PUSH1 0x20 MUL PUSH1 0x20 ADD ADD MLOAD PUSH1 0x68 PUSH1 0x0 CALLER PUSH20 0xFFFFFFFFFFFFFFFFFFFFFFFFFFFFFFFFFFFFFFFF AND PUSH20 0xFFFFFFFFFFFFFFFFFFFFFFFFFFFFFFFFFFFFFFFF AND DUP2 MSTORE PUSH1 0x20 ADD SWAP1 DUP2 MSTORE PUSH1 0x20 ADD PUSH1 0x0 KECCAK256 PUSH1 0x0 DUP7 DUP5 DUP2 MLOAD DUP2 LT PUSH2 0x869 JUMPI PUSH2 0x868 PUSH2 0x35ED JUMP JUMPDEST JUMPDEST PUSH1 0x20 MUL PUSH1 0x20 ADD ADD MLOAD PUSH20 0xFFFFFFFFFFFFFFFFFFFFFFFFFFFFFFFFFFFFFFFF AND PUSH20 0xFFFFFFFFFFFFFFFFFFFFFFFFFFFFFFFFFFFFFFFF AND DUP2 MSTORE PUSH1 0x20 ADD SWAP1 DUP2 MSTORE PUSH1 0x20 ADD PUSH1 0x0 KECCAK256 PUSH1 0x0 DUP3 DUP3 SLOAD PUSH2 0x8BA SWAP2 SWAP1 PUSH2 0x378F JUMP JUMPDEST SWAP3 POP POP DUP2 SWAP1 SSTORE POP DUP4 DUP2 DUP2 MLOAD DUP2 LT PUSH2 0x8D4 JUMPI PUSH2 0x8D3 PUSH2 0x35ED JUMP JUMPDEST JUMPDEST PUSH1 0x20 MUL PUSH1 0x20 ADD ADD MLOAD PUSH20 0xFFFFFFFFFFFFFFFFFFFFFFFFFFFFFFFFFFFFFFFF AND PUSH4 0x3790CF57 DUP5 DUP4 DUP2 MLOAD DUP2 LT PUSH2 0x90A JUMPI PUSH2 0x909 PUSH2 0x35ED JUMP JUMPDEST JUMPDEST PUSH1 0x20 MUL PUSH1 0x20 ADD ADD MLOAD PUSH1 0x40 MLOAD DUP3 PUSH4 0xFFFFFFFF AND PUSH1 0xE0 SHL DUP2 MSTORE PUSH1 0x4 ADD PUSH2 0x92E SWAP2 SWAP1 PUSH2 0x2E27 JUMP JUMPDEST PUSH1 0x0 PUSH1 0x40 MLOAD DUP1 DUP4 SUB DUP2 PUSH1 0x0 DUP8 DUP1 EXTCODESIZE ISZERO DUP1 ISZERO PUSH2 0x948 JUMPI PUSH1 0x0 DUP1 REVERT JUMPDEST POP GAS CALL SWAP3 POP POP POP DUP1 ISZERO PUSH2 0x959 JUMPI POP PUSH1 0x1 JUMPDEST PUSH2 0xA33 JUMPI PUSH2 0x965 PUSH2 0x37D0 JUMP JUMPDEST DUP1 PUSH4 0x8C379A0 SUB PUSH2 0x9C1 JUMPI POP PUSH2 0x979 PUSH2 0x37F2 JUMP JUMPDEST DUP1 PUSH2 0x984 JUMPI POP PUSH2 0x9C3 JUMP JUMPDEST PUSH32 0x551303DD5F39CBFE6DABA6B3E27754B8A7D72F519756A2CDE2B92C2BBDE159A7 DUP2 PUSH1 0x40 MLOAD PUSH2 0x9B3 SWAP2 SWAP1 PUSH2 0x38F0 JUMP JUMPDEST PUSH1 0x40 MLOAD DUP1 SWAP2 SUB SWAP1 LOG1 POP PUSH2 0xA2E JUMP JUMPDEST POP JUMPDEST RETURNDATASIZE DUP1 PUSH1 0x0 DUP2 EQ PUSH2 0x9EF JUMPI PUSH1 0x40 MLOAD SWAP2 POP PUSH1 0x1F NOT PUSH1 0x3F RETURNDATASIZE ADD AND DUP3 ADD PUSH1 0x40 MSTORE RETURNDATASIZE DUP3 MSTORE RETURNDATASIZE PUSH1 0x0 PUSH1 0x20 DUP5 ADD RETURNDATACOPY PUSH2 0x9F4 JUMP JUMPDEST PUSH1 0x60 SWAP2 POP JUMPDEST POP PUSH32 0x1D577ABE557BCD9A1615464321C9B76968F5C8594282EF564970EBD2F9729FDF DUP2 PUSH1 0x40 MLOAD PUSH2 0xA24 SWAP2 SWAP1 PUSH2 0x3967 JUMP JUMPDEST PUSH1 0x40 MLOAD DUP1 SWAP2 SUB SWAP1 LOG1 POP JUMPDEST PUSH2 0xA69 JUMP JUMPDEST PUSH32 0x551303DD5F39CBFE6DABA6B3E27754B8A7D72F519756A2CDE2B92C2BBDE159A7 PUSH1 0x40 MLOAD PUSH2 0xA60 SWAP1 PUSH2 0x39FB JUMP JUMPDEST PUSH1 0x40 MLOAD DUP1 SWAP2 SUB SWAP1 LOG1 JUMPDEST DUP1 PUSH1 0x1 ADD SWAP1 POP PUSH2 0x6D0 JUMP JUMPDEST POP POP POP POP JUMP JUMPDEST PUSH1 0x60 DUP1 PUSH1 0x0 PUSH2 0xA8A DUP7 DUP7 DUP7 PUSH2 0x1693 JUMP JUMPDEST SWAP1 POP PUSH2 0xA96 DUP5 DUP3 PUSH2 0xFAA JUMP JUMPDEST DUP1 SWAP4 POP DUP2 SWAP5 POP POP POP PUSH2 0xAA8 DUP4 DUP4 PUSH2 0x641 JUMP JUMPDEST POP SWAP4 POP SWAP4 SWAP2 POP POP JUMP JUMPDEST PUSH1 0x60 DUP1 PUSH2 0xABE DUP5 DUP5 PUSH2 0xC15 JUMP JUMPDEST PUSH2 0xAC8 DUP5 DUP5 PUSH2 0xFAA JUMP JUMPDEST DUP1 SWAP3 POP DUP2 SWAP4 POP POP POP PUSH2 0xADA DUP3 DUP3 PUSH2 0x641 JUMP JUMPDEST SWAP3 POP SWAP3 SWAP1 POP JUMP JUMPDEST PUSH1 0x66 PUSH1 0x0 SWAP1 SLOAD SWAP1 PUSH2 0x100 EXP SWAP1 DIV PUSH20 0xFFFFFFFFFFFFFFFFFFFFFFFFFFFFFFFFFFFFFFFF AND DUP2 JUMP JUMPDEST DUP2 PUSH2 0xB11 DUP2 PUSH2 0x1ED4 JUMP JUMPDEST PUSH2 0xB50 JUMPI PUSH1 0x40 MLOAD PUSH32 0x8C379A000000000000000000000000000000000000000000000000000000000 DUP2 MSTORE PUSH1 0x4 ADD PUSH2 0xB47 SWAP1 PUSH2 0x3561 JUMP JUMPDEST PUSH1 0x40 MLOAD DUP1 SWAP2 SUB SWAP1 REVERT JUMPDEST PUSH2 0xB7D CALLER ADDRESS DUP5 DUP7 PUSH20 0xFFFFFFFFFFFFFFFFFFFFFFFFFFFFFFFFFFFFFFFF AND PUSH2 0x2123 SWAP1 SWAP4 SWAP3 SWAP2 SWAP1 PUSH4 0xFFFFFFFF AND JUMP JUMPDEST DUP2 PUSH1 0x68 PUSH1 0x0 CALLER PUSH20 0xFFFFFFFFFFFFFFFFFFFFFFFFFFFFFFFFFFFFFFFF AND PUSH20 0xFFFFFFFFFFFFFFFFFFFFFFFFFFFFFFFFFFFFFFFF AND DUP2 MSTORE PUSH1 0x20 ADD SWAP1 DUP2 MSTORE PUSH1 0x20 ADD PUSH1 0x0 KECCAK256 PUSH1 0x0 DUP6 PUSH20 0xFFFFFFFFFFFFFFFFFFFFFFFFFFFFFFFFFFFFFFFF AND PUSH20 0xFFFFFFFFFFFFFFFFFFFFFFFFFFFFFFFFFFFFFFFF AND DUP2 MSTORE PUSH1 0x20 ADD SWAP1 DUP2 MSTORE PUSH1 0x20 ADD PUSH1 0x0 KECCAK256 PUSH1 0x0 DUP3 DUP3 SLOAD PUSH2 0xC09 SWAP2 SWAP1 PUSH2 0x3A1B JUMP JUMPDEST SWAP3 POP POP DUP2 SWAP1 SSTORE POP POP POP POP JUMP JUMPDEST DUP2 PUSH2 0xC1F DUP2 PUSH2 0x1ED4 JUMP JUMPDEST PUSH2 0xC5E JUMPI PUSH1 0x40 MLOAD PUSH32 0x8C379A000000000000000000000000000000000000000000000000000000000 DUP2 MSTORE PUSH1 0x4 ADD PUSH2 0xC55 SWAP1 PUSH2 0x3561 JUMP JUMPDEST PUSH1 0x40 MLOAD DUP1 SWAP2 SUB SWAP1 REVERT JUMPDEST PUSH1 0x0 PUSH1 0x65 PUSH1 0x40 MLOAD PUSH2 0xC6E SWAP1 PUSH2 0x35D8 JUMP JUMPDEST SWAP1 DUP2 MSTORE PUSH1 0x20 ADD PUSH1 0x40 MLOAD DUP1 SWAP2 SUB SWAP1 KECCAK256 PUSH1 0x0 SWAP1 SLOAD SWAP1 PUSH2 0x100 EXP SWAP1 DIV PUSH20 0xFFFFFFFFFFFFFFFFFFFFFFFFFFFFFFFFFFFFFFFF AND SWAP1 POP PUSH1 0x0 PUSH2 0xCAB DUP3 DUP7 PUSH2 0x21AC JUMP JUMPDEST SWAP1 POP PUSH1 0x0 PUSH2 0xCB7 PUSH2 0x2494 JUMP JUMPDEST PUSH20 0xFFFFFFFFFFFFFFFFFFFFFFFFFFFFFFFFFFFFFFFF AND PUSH4 0xFB3BDB41 CALLVALUE DUP8 DUP6 ADDRESS TIMESTAMP PUSH1 0x40 MLOAD DUP7 PUSH4 0xFFFFFFFF AND PUSH1 0xE0 SHL DUP2 MSTORE PUSH1 0x4 ADD PUSH2 0xCF6 SWAP5 SWAP4 SWAP3 SWAP2 SWAP1 PUSH2 0x3A4F JUMP JUMPDEST PUSH1 0x0 PUSH1 0x40 MLOAD DUP1 DUP4 SUB DUP2 DUP6 DUP9 GAS CALL ISZERO DUP1 ISZERO PUSH2 0xD14 JUMPI RETURNDATASIZE PUSH1 0x0 DUP1 RETURNDATACOPY RETURNDATASIZE PUSH1 0x0 REVERT JUMPDEST POP POP POP POP POP PUSH1 0x40 MLOAD RETURNDATASIZE PUSH1 0x0 DUP3 RETURNDATACOPY RETURNDATASIZE PUSH1 0x1F NOT PUSH1 0x1F DUP3 ADD AND DUP3 ADD DUP1 PUSH1 0x40 MSTORE POP DUP2 ADD SWAP1 PUSH2 0xD3E SWAP2 SWAP1 PUSH2 0x3B47 JUMP JUMPDEST SWAP1 POP DUP1 PUSH1 0x0 DUP2 MLOAD DUP2 LT PUSH2 0xD54 JUMPI PUSH2 0xD53 PUSH2 0x35ED JUMP JUMPDEST JUMPDEST PUSH1 0x20 MUL PUSH1 0x20 ADD ADD MLOAD CALLVALUE GT ISZERO PUSH2 0xE8C JUMPI PUSH1 0x0 DUP2 PUSH1 0x0 DUP2 MLOAD DUP2 LT PUSH2 0xD79 JUMPI PUSH2 0xD78 PUSH2 0x35ED JUMP JUMPDEST JUMPDEST PUSH1 0x20 MUL PUSH1 0x20 ADD ADD MLOAD CALLVALUE PUSH2 0xD8C SWAP2 SWAP1 PUSH2 0x378F JUMP JUMPDEST SWAP1 POP PUSH1 0x0 CALLER PUSH20 0xFFFFFFFFFFFFFFFFFFFFFFFFFFFFFFFFFFFFFFFF AND DUP3 PUSH1 0x0 PUSH8 0xFFFFFFFFFFFFFFFF DUP2 GT ISZERO PUSH2 0xDC3 JUMPI PUSH2 0xDC2 PUSH2 0x2E58 JUMP JUMPDEST JUMPDEST PUSH1 0x40 MLOAD SWAP1 DUP1 DUP3 MSTORE DUP1 PUSH1 0x1F ADD PUSH1 0x1F NOT AND PUSH1 0x20 ADD DUP3 ADD PUSH1 0x40 MSTORE DUP1 ISZERO PUSH2 0xDF5 JUMPI DUP2 PUSH1 0x20 ADD PUSH1 0x1 DUP3 MUL DUP1 CALLDATASIZE DUP4 CALLDATACOPY DUP1 DUP3 ADD SWAP2 POP POP SWAP1 POP JUMPDEST POP PUSH1 0x40 MLOAD PUSH2 0xE03 SWAP2 SWAP1 PUSH2 0x3BCC JUMP JUMPDEST PUSH1 0x0 PUSH1 0x40 MLOAD DUP1 DUP4 SUB DUP2 DUP6 DUP8 GAS CALL SWAP3 POP POP POP RETURNDATASIZE DUP1 PUSH1 0x0 DUP2 EQ PUSH2 0xE40 JUMPI PUSH1 0x40 MLOAD SWAP2 POP PUSH1 0x1F NOT PUSH1 0x3F RETURNDATASIZE ADD AND DUP3 ADD PUSH1 0x40 MSTORE RETURNDATASIZE DUP3 MSTORE RETURNDATASIZE PUSH1 0x0 PUSH1 0x20 DUP5 ADD RETURNDATACOPY PUSH2 0xE45 JUMP JUMPDEST PUSH1 0x60 SWAP2 POP JUMPDEST POP POP SWAP1 POP DUP1 PUSH2 0xE89 JUMPI PUSH1 0x40 MLOAD PUSH32 0x8C379A000000000000000000000000000000000000000000000000000000000 DUP2 MSTORE PUSH1 0x4 ADD PUSH2 0xE80 SWAP1 PUSH2 0x3C2F JUMP JUMPDEST PUSH1 0x40 MLOAD DUP1 SWAP2 SUB SWAP1 REVERT JUMPDEST POP POP JUMPDEST DUP5 PUSH1 0x68 PUSH1 0x0 CALLER PUSH20 0xFFFFFFFFFFFFFFFFFFFFFFFFFFFFFFFFFFFFFFFF AND PUSH20 0xFFFFFFFFFFFFFFFFFFFFFFFFFFFFFFFFFFFFFFFF AND DUP2 MSTORE PUSH1 0x20 ADD SWAP1 DUP2 MSTORE PUSH1 0x20 ADD PUSH1 0x0 KECCAK256 PUSH1 0x0 DUP9 PUSH20 0xFFFFFFFFFFFFFFFFFFFFFFFFFFFFFFFFFFFFFFFF AND PUSH20 0xFFFFFFFFFFFFFFFFFFFFFFFFFFFFFFFFFFFFFFFF AND DUP2 MSTORE PUSH1 0x20 ADD SWAP1 DUP2 MSTORE PUSH1 0x20 ADD PUSH1 0x0 KECCAK256 PUSH1 0x0 DUP3 DUP3 SLOAD PUSH2 0xF18 SWAP2 SWAP1 PUSH2 0x3A1B JUMP JUMPDEST SWAP3 POP POP DUP2 SWAP1 SSTORE POP POP POP POP POP POP POP JUMP JUMPDEST PUSH1 0x65 DUP2 DUP1 MLOAD PUSH1 0x20 DUP2 ADD DUP3 ADD DUP1 MLOAD DUP5 DUP3 MSTORE PUSH1 0x20 DUP4 ADD PUSH1 0x20 DUP6 ADD KECCAK256 DUP2 DUP4 MSTORE DUP1 SWAP6 POP POP POP POP POP POP PUSH1 0x0 SWAP2 POP SLOAD SWAP1 PUSH2 0x100 EXP SWAP1 DIV PUSH20 0xFFFFFFFFFFFFFFFFFFFFFFFFFFFFFFFFFFFFFFFF AND DUP2 JUMP JUMPDEST PUSH2 0xF78 PUSH2 0x24BE JUMP JUMPDEST PUSH2 0xF82 PUSH1 0x0 PUSH2 0x253C JUMP JUMPDEST JUMP JUMPDEST PUSH1 0x67 PUSH1 0x0 SWAP1 SLOAD SWAP1 PUSH2 0x100 EXP SWAP1 DIV PUSH20 0xFFFFFFFFFFFFFFFFFFFFFFFFFFFFFFFFFFFFFFFF AND DUP2 JUMP JUMPDEST PUSH1 0x60 DUP1 DUP4 PUSH2 0xFB7 DUP2 PUSH2 0x1ED4 JUMP JUMPDEST PUSH2 0xFF6 JUMPI PUSH1 0x40 MLOAD PUSH32 0x8C379A000000000000000000000000000000000000000000000000000000000 DUP2 MSTORE PUSH1 0x4 ADD PUSH2 0xFED SWAP1 PUSH2 0x3561 JUMP JUMPDEST PUSH1 0x40 MLOAD DUP1 SWAP2 SUB SWAP1 REVERT JUMPDEST DUP4 PUSH1 0x68 PUSH1 0x0 CALLER PUSH20 0xFFFFFFFFFFFFFFFFFFFFFFFFFFFFFFFFFFFFFFFF AND PUSH20 0xFFFFFFFFFFFFFFFFFFFFFFFFFFFFFFFFFFFFFFFF AND DUP2 MSTORE PUSH1 0x20 ADD SWAP1 DUP2 MSTORE PUSH1 0x20 ADD PUSH1 0x0 KECCAK256 PUSH1 0x0 DUP8 PUSH20 0xFFFFFFFFFFFFFFFFFFFFFFFFFFFFFFFFFFFFFFFF AND PUSH20 0xFFFFFFFFFFFFFFFFFFFFFFFFFFFFFFFFFFFFFFFF AND DUP2 MSTORE PUSH1 0x20 ADD SWAP1 DUP2 MSTORE PUSH1 0x20 ADD PUSH1 0x0 KECCAK256 SLOAD LT ISZERO PUSH2 0x10B5 JUMPI PUSH1 0x40 MLOAD PUSH32 0x8C379A000000000000000000000000000000000000000000000000000000000 DUP2 MSTORE PUSH1 0x4 ADD PUSH2 0x10AC SWAP1 PUSH2 0x3C9B JUMP JUMPDEST PUSH1 0x40 MLOAD DUP1 SWAP2 SUB SWAP1 REVERT JUMPDEST PUSH1 0x0 DUP6 SWAP1 POP DUP1 PUSH20 0xFFFFFFFFFFFFFFFFFFFFFFFFFFFFFFFFFFFFFFFF AND PUSH4 0x4C02CAD1 DUP7 PUSH1 0x40 MLOAD DUP3 PUSH4 0xFFFFFFFF AND PUSH1 0xE0 SHL DUP2 MSTORE PUSH1 0x4 ADD PUSH2 0x10F3 SWAP2 SWAP1 PUSH2 0x2E27 JUMP JUMPDEST PUSH1 0x0 PUSH1 0x40 MLOAD DUP1 DUP4 SUB DUP2 PUSH1 0x0 DUP8 GAS CALL ISZERO DUP1 ISZERO PUSH2 0x1112 JUMPI RETURNDATASIZE PUSH1 0x0 DUP1 RETURNDATACOPY RETURNDATASIZE PUSH1 0x0 REVERT JUMPDEST POP POP POP POP PUSH1 0x40 MLOAD RETURNDATASIZE PUSH1 0x0 DUP3 RETURNDATACOPY RETURNDATASIZE PUSH1 0x1F NOT PUSH1 0x1F DUP3 ADD AND DUP3 ADD DUP1 PUSH1 0x40 MSTORE POP DUP2 ADD SWAP1 PUSH2 0x113B SWAP2 SWAP1 PUSH2 0x3D67 JUMP JUMPDEST DUP1 SWAP5 POP DUP2 SWAP6 POP POP POP DUP5 PUSH1 0x68 PUSH1 0x0 CALLER PUSH20 0xFFFFFFFFFFFFFFFFFFFFFFFFFFFFFFFFFFFFFFFF AND PUSH20 0xFFFFFFFFFFFFFFFFFFFFFFFFFFFFFFFFFFFFFFFF AND DUP2 MSTORE PUSH1 0x20 ADD SWAP1 DUP2 MSTORE PUSH1 0x20 ADD PUSH1 0x0 KECCAK256 PUSH1 0x0 DUP9 PUSH20 0xFFFFFFFFFFFFFFFFFFFFFFFFFFFFFFFFFFFFFFFF AND PUSH20 0xFFFFFFFFFFFFFFFFFFFFFFFFFFFFFFFFFFFFFFFF AND DUP2 MSTORE PUSH1 0x20 ADD SWAP1 DUP2 MSTORE PUSH1 0x20 ADD PUSH1 0x0 KECCAK256 PUSH1 0x0 DUP3 DUP3 SLOAD PUSH2 0x11CF SWAP2 SWAP1 PUSH2 0x378F JUMP JUMPDEST SWAP3 POP POP DUP2 SWAP1 SSTORE POP PUSH1 0x0 DUP5 MLOAD SWAP1 POP PUSH1 0x0 JUMPDEST DUP2 DUP2 LT ISZERO PUSH2 0x12C1 JUMPI DUP5 DUP2 DUP2 MLOAD DUP2 LT PUSH2 0x11FA JUMPI PUSH2 0x11F9 PUSH2 0x35ED JUMP JUMPDEST JUMPDEST PUSH1 0x20 MUL PUSH1 0x20 ADD ADD MLOAD PUSH1 0x68 PUSH1 0x0 CALLER PUSH20 0xFFFFFFFFFFFFFFFFFFFFFFFFFFFFFFFFFFFFFFFF AND PUSH20 0xFFFFFFFFFFFFFFFFFFFFFFFFFFFFFFFFFFFFFFFF AND DUP2 MSTORE PUSH1 0x20 ADD SWAP1 DUP2 MSTORE PUSH1 0x20 ADD PUSH1 0x0 KECCAK256 PUSH1 0x0 DUP9 DUP5 DUP2 MLOAD DUP2 LT PUSH2 0x1256 JUMPI PUSH2 0x1255 PUSH2 0x35ED JUMP JUMPDEST JUMPDEST PUSH1 0x20 MUL PUSH1 0x20 ADD ADD MLOAD PUSH20 0xFFFFFFFFFFFFFFFFFFFFFFFFFFFFFFFFFFFFFFFF AND PUSH20 0xFFFFFFFFFFFFFFFFFFFFFFFFFFFFFFFFFFFFFFFF AND DUP2 MSTORE PUSH1 0x20 ADD SWAP1 DUP2 MSTORE PUSH1 0x20 ADD PUSH1 0x0 KECCAK256 PUSH1 0x0 DUP3 DUP3 SLOAD PUSH2 0x12A7 SWAP2 SWAP1 PUSH2 0x3A1B JUMP JUMPDEST SWAP3 POP POP DUP2 SWAP1 SSTORE POP DUP1 DUP1 PUSH2 0x12B9 SWAP1 PUSH2 0x3DDF JUMP JUMPDEST SWAP2 POP POP PUSH2 0x11DF JUMP JUMPDEST POP PUSH32 0x3D29F82A20EC733DB9F357C4DC1AE0EE60C572CC4B877384AA4639E4D877B188 CALLER DUP9 DUP8 DUP8 PUSH1 0x40 MLOAD PUSH2 0x12F7 SWAP5 SWAP4 SWAP3 SWAP2 SWAP1 PUSH2 0x3E27 JUMP JUMPDEST PUSH1 0x40 MLOAD DUP1 SWAP2 SUB SWAP1 LOG1 POP POP POP SWAP3 POP SWAP3 SWAP1 POP JUMP JUMPDEST DUP3 PUSH2 0x1313 DUP2 PUSH2 0x2602 JUMP JUMPDEST PUSH2 0x1352 JUMPI PUSH1 0x40 MLOAD PUSH32 0x8C379A000000000000000000000000000000000000000000000000000000000 DUP2 MSTORE PUSH1 0x4 ADD PUSH2 0x1349 SWAP1 PUSH2 0x3EC6 JUMP JUMPDEST PUSH1 0x40 MLOAD DUP1 SWAP2 SUB SWAP1 REVERT JUMPDEST DUP3 PUSH2 0x135C DUP2 PUSH2 0x1ED4 JUMP JUMPDEST PUSH2 0x139B JUMPI PUSH1 0x40 MLOAD PUSH32 0x8C379A000000000000000000000000000000000000000000000000000000000 DUP2 MSTORE PUSH1 0x4 ADD PUSH2 0x1392 SWAP1 PUSH2 0x3561 JUMP JUMPDEST PUSH1 0x40 MLOAD DUP1 SWAP2 SUB SWAP1 REVERT JUMPDEST PUSH1 0x0 DUP1 PUSH2 0x13A9 DUP8 DUP8 DUP8 PUSH2 0x1FD0 JUMP JUMPDEST SWAP2 POP SWAP2 POP PUSH1 0x0 DUP2 PUSH1 0x0 DUP2 MLOAD DUP2 LT PUSH2 0x13C3 JUMPI PUSH2 0x13C2 PUSH2 0x35ED JUMP JUMPDEST JUMPDEST PUSH1 0x20 MUL PUSH1 0x20 ADD ADD MLOAD SWAP1 POP PUSH2 0x13FA CALLER ADDRESS DUP4 DUP12 PUSH20 0xFFFFFFFFFFFFFFFFFFFFFFFFFFFFFFFFFFFFFFFF AND PUSH2 0x2123 SWAP1 SWAP4 SWAP3 SWAP2 SWAP1 PUSH4 0xFFFFFFFF AND JUMP JUMPDEST DUP8 PUSH20 0xFFFFFFFFFFFFFFFFFFFFFFFFFFFFFFFFFFFFFFFF AND PUSH4 0x95EA7B3 PUSH1 0x67 PUSH1 0x0 SWAP1 SLOAD SWAP1 PUSH2 0x100 EXP SWAP1 DIV PUSH20 0xFFFFFFFFFFFFFFFFFFFFFFFFFFFFFFFFFFFFFFFF AND DUP4 PUSH1 0x40 MLOAD DUP4 PUSH4 0xFFFFFFFF AND PUSH1 0xE0 SHL DUP2 MSTORE PUSH1 0x4 ADD PUSH2 0x1457 SWAP3 SWAP2 SWAP1 PUSH2 0x3EE6 JUMP JUMPDEST PUSH1 0x20 PUSH1 0x40 MLOAD DUP1 DUP4 SUB DUP2 PUSH1 0x0 DUP8 GAS CALL ISZERO DUP1 ISZERO PUSH2 0x1476 JUMPI RETURNDATASIZE PUSH1 0x0 DUP1 RETURNDATACOPY RETURNDATASIZE PUSH1 0x0 REVERT JUMPDEST POP POP POP POP PUSH1 0x40 MLOAD RETURNDATASIZE PUSH1 0x1F NOT PUSH1 0x1F DUP3 ADD AND DUP3 ADD DUP1 PUSH1 0x40 MSTORE POP DUP2 ADD SWAP1 PUSH2 0x149A SWAP2 SWAP1 PUSH2 0x3F47 JUMP JUMPDEST POP PUSH1 0x0 PUSH2 0x14A5 PUSH2 0x2494 JUMP JUMPDEST PUSH20 0xFFFFFFFFFFFFFFFFFFFFFFFFFFFFFFFFFFFFFFFF AND PUSH4 0x8803DBEE DUP9 DUP5 DUP8 ADDRESS TIMESTAMP PUSH1 0x40 MLOAD DUP7 PUSH4 0xFFFFFFFF AND PUSH1 0xE0 SHL DUP2 MSTORE PUSH1 0x4 ADD PUSH2 0x14E5 SWAP6 SWAP5 SWAP4 SWAP3 SWAP2 SWAP1 PUSH2 0x3F74 JUMP JUMPDEST PUSH1 0x0 PUSH1 0x40 MLOAD DUP1 DUP4 SUB DUP2 PUSH1 0x0 DUP8 GAS CALL ISZERO DUP1 ISZERO PUSH2 0x1504 JUMPI RETURNDATASIZE PUSH1 0x0 DUP1 RETURNDATACOPY RETURNDATASIZE PUSH1 0x0 REVERT JUMPDEST POP POP POP POP PUSH1 0x40 MLOAD RETURNDATASIZE PUSH1 0x0 DUP3 RETURNDATACOPY RETURNDATASIZE PUSH1 0x1F NOT PUSH1 0x1F DUP3 ADD AND DUP3 ADD DUP1 PUSH1 0x40 MSTORE POP DUP2 ADD SWAP1 PUSH2 0x152D SWAP2 SWAP1 PUSH2 0x3B47 JUMP JUMPDEST SWAP1 POP DUP2 DUP2 PUSH1 0x0 DUP2 MLOAD DUP2 LT PUSH2 0x1544 JUMPI PUSH2 0x1543 PUSH2 0x35ED JUMP JUMPDEST JUMPDEST PUSH1 0x20 MUL PUSH1 0x20 ADD ADD MLOAD LT ISZERO PUSH2 0x15F5 JUMPI DUP9 PUSH20 0xFFFFFFFFFFFFFFFFFFFFFFFFFFFFFFFFFFFFFFFF AND PUSH4 0x95EA7B3 PUSH1 0x67 PUSH1 0x0 SWAP1 SLOAD SWAP1 PUSH2 0x100 EXP SWAP1 DIV PUSH20 0xFFFFFFFFFFFFFFFFFFFFFFFFFFFFFFFFFFFFFFFF AND PUSH1 0x0 PUSH1 0x40 MLOAD DUP4 PUSH4 0xFFFFFFFF AND PUSH1 0xE0 SHL DUP2 MSTORE PUSH1 0x4 ADD PUSH2 0x15B0 SWAP3 SWAP2 SWAP1 PUSH2 0x4013 JUMP JUMPDEST PUSH1 0x20 PUSH1 0x40 MLOAD DUP1 DUP4 SUB DUP2 PUSH1 0x0 DUP8 GAS CALL ISZERO DUP1 ISZERO PUSH2 0x15CF JUMPI RETURNDATASIZE PUSH1 0x0 DUP1 RETURNDATACOPY RETURNDATASIZE PUSH1 0x0 REVERT JUMPDEST POP POP POP POP PUSH1 0x40 MLOAD RETURNDATASIZE PUSH1 0x1F NOT PUSH1 0x1F DUP3 ADD AND DUP3 ADD DUP1 PUSH1 0x40 MSTORE POP DUP2 ADD SWAP1 PUSH2 0x15F3 SWAP2 SWAP1 PUSH2 0x3F47 JUMP JUMPDEST POP JUMPDEST DUP7 PUSH1 0x68 PUSH1 0x0 CALLER PUSH20 0xFFFFFFFFFFFFFFFFFFFFFFFFFFFFFFFFFFFFFFFF AND PUSH20 0xFFFFFFFFFFFFFFFFFFFFFFFFFFFFFFFFFFFFFFFF AND DUP2 MSTORE PUSH1 0x20 ADD SWAP1 DUP2 MSTORE PUSH1 0x20 ADD PUSH1 0x0 KECCAK256 PUSH1 0x0 DUP11 PUSH20 0xFFFFFFFFFFFFFFFFFFFFFFFFFFFFFFFFFFFFFFFF AND PUSH20 0xFFFFFFFFFFFFFFFFFFFFFFFFFFFFFFFFFFFFFFFF AND DUP2 MSTORE PUSH1 0x20 ADD SWAP1 DUP2 MSTORE PUSH1 0x20 ADD PUSH1 0x0 KECCAK256 PUSH1 0x0 DUP3 DUP3 SLOAD PUSH2 0x1681 SWAP2 SWAP1 PUSH2 0x3A1B JUMP JUMPDEST SWAP3 POP POP DUP2 SWAP1 SSTORE POP POP POP POP POP POP POP POP POP POP JUMP JUMPDEST PUSH1 0x0 DUP4 PUSH2 0x169F DUP2 PUSH2 0x2602 JUMP JUMPDEST PUSH2 0x16DE JUMPI PUSH1 0x40 MLOAD PUSH32 0x8C379A000000000000000000000000000000000000000000000000000000000 DUP2 MSTORE PUSH1 0x4 ADD PUSH2 0x16D5 SWAP1 PUSH2 0x3EC6 JUMP JUMPDEST PUSH1 0x40 MLOAD DUP1 SWAP2 SUB SWAP1 REVERT JUMPDEST DUP3 PUSH2 0x16E8 DUP2 PUSH2 0x1ED4 JUMP JUMPDEST PUSH2 0x1727 JUMPI PUSH1 0x40 MLOAD PUSH32 0x8C379A000000000000000000000000000000000000000000000000000000000 DUP2 MSTORE PUSH1 0x4 ADD PUSH2 0x171E SWAP1 PUSH2 0x3561 JUMP JUMPDEST PUSH1 0x40 MLOAD DUP1 SWAP2 SUB SWAP1 REVERT JUMPDEST PUSH1 0x0 PUSH2 0x1733 DUP8 DUP7 PUSH2 0x21AC JUMP JUMPDEST SWAP1 POP PUSH1 0x0 DUP2 MLOAD SWAP1 POP PUSH2 0x1768 CALLER ADDRESS DUP10 DUP12 PUSH20 0xFFFFFFFFFFFFFFFFFFFFFFFFFFFFFFFFFFFFFFFF AND PUSH2 0x2123 SWAP1 SWAP4 SWAP3 SWAP2 SWAP1 PUSH4 0xFFFFFFFF AND JUMP JUMPDEST PUSH2 0x17B5 PUSH1 0x67 PUSH1 0x0 SWAP1 SLOAD SWAP1 PUSH2 0x100 EXP SWAP1 DIV PUSH20 0xFFFFFFFFFFFFFFFFFFFFFFFFFFFFFFFFFFFFFFFF AND DUP9 DUP11 PUSH20 0xFFFFFFFFFFFFFFFFFFFFFFFFFFFFFFFFFFFFFFFF AND PUSH2 0x2776 SWAP1 SWAP3 SWAP2 SWAP1 PUSH4 0xFFFFFFFF AND JUMP JUMPDEST PUSH1 0x0 PUSH2 0x17BF PUSH2 0x2494 JUMP JUMPDEST PUSH20 0xFFFFFFFFFFFFFFFFFFFFFFFFFFFFFFFFFFFFFFFF AND PUSH4 0x38ED1739 DUP10 PUSH1 0x0 DUP7 ADDRESS TIMESTAMP PUSH1 0x40 MLOAD DUP7 PUSH4 0xFFFFFFFF AND PUSH1 0xE0 SHL DUP2 MSTORE PUSH1 0x4 ADD PUSH2 0x1800 SWAP6 SWAP5 SWAP4 SWAP3 SWAP2 SWAP1 PUSH2 0x403C JUMP JUMPDEST PUSH1 0x0 PUSH1 0x40 MLOAD DUP1 DUP4 SUB DUP2 PUSH1 0x0 DUP8 GAS CALL ISZERO DUP1 ISZERO PUSH2 0x181F JUMPI RETURNDATASIZE PUSH1 0x0 DUP1 RETURNDATACOPY RETURNDATASIZE PUSH1 0x0 REVERT JUMPDEST POP POP POP POP PUSH1 0x40 MLOAD RETURNDATASIZE PUSH1 0x0 DUP3 RETURNDATACOPY RETURNDATASIZE PUSH1 0x1F NOT PUSH1 0x1F DUP3 ADD AND DUP3 ADD DUP1 PUSH1 0x40 MSTORE POP DUP2 ADD SWAP1 PUSH2 0x1848 SWAP2 SWAP1 PUSH2 0x3B47 JUMP JUMPDEST SWAP1 POP PUSH1 0x0 DUP2 PUSH1 0x1 DUP5 PUSH2 0x185A SWAP2 SWAP1 PUSH2 0x378F JUMP JUMPDEST DUP2 MLOAD DUP2 LT PUSH2 0x186B JUMPI PUSH2 0x186A PUSH2 0x35ED JUMP JUMPDEST JUMPDEST PUSH1 0x20 MUL PUSH1 0x20 ADD ADD MLOAD SWAP1 POP DUP1 PUSH1 0x68 PUSH1 0x0 CALLER PUSH20 0xFFFFFFFFFFFFFFFFFFFFFFFFFFFFFFFFFFFFFFFF AND PUSH20 0xFFFFFFFFFFFFFFFFFFFFFFFFFFFFFFFFFFFFFFFF AND DUP2 MSTORE PUSH1 0x20 ADD SWAP1 DUP2 MSTORE PUSH1 0x20 ADD PUSH1 0x0 KECCAK256 PUSH1 0x0 DUP11 PUSH20 0xFFFFFFFFFFFFFFFFFFFFFFFFFFFFFFFFFFFFFFFF AND PUSH20 0xFFFFFFFFFFFFFFFFFFFFFFFFFFFFFFFFFFFFFFFF AND DUP2 MSTORE PUSH1 0x20 ADD SWAP1 DUP2 MSTORE PUSH1 0x20 ADD PUSH1 0x0 KECCAK256 PUSH1 0x0 DUP3 DUP3 SLOAD PUSH2 0x1901 SWAP2 SWAP1 PUSH2 0x3A1B JUMP JUMPDEST SWAP3 POP POP DUP2 SWAP1 SSTORE POP DUP1 SWAP7 POP POP POP POP POP POP POP SWAP4 SWAP3 POP POP POP JUMP JUMPDEST PUSH1 0x0 PUSH1 0x33 PUSH1 0x0 SWAP1 SLOAD SWAP1 PUSH2 0x100 EXP SWAP1 DIV PUSH20 0xFFFFFFFFFFFFFFFFFFFFFFFFFFFFFFFFFFFFFFFF AND SWAP1 POP SWAP1 JUMP JUMPDEST PUSH1 0x60 DUP1 PUSH2 0x1950 DUP6 DUP6 DUP6 PUSH2 0x1309 JUMP JUMPDEST PUSH2 0x195A DUP5 DUP5 PUSH2 0xFAA JUMP JUMPDEST DUP1 SWAP3 POP DUP2 SWAP4 POP POP POP PUSH2 0x196C DUP3 DUP3 PUSH2 0x641 JUMP JUMPDEST SWAP4 POP SWAP4 SWAP2 POP POP JUMP JUMPDEST PUSH1 0x0 DUP2 PUSH2 0x1980 DUP2 PUSH2 0x1ED4 JUMP JUMPDEST PUSH2 0x19BF JUMPI PUSH1 0x40 MLOAD PUSH32 0x8C379A000000000000000000000000000000000000000000000000000000000 DUP2 MSTORE PUSH1 0x4 ADD PUSH2 0x19B6 SWAP1 PUSH2 0x3561 JUMP JUMPDEST PUSH1 0x40 MLOAD DUP1 SWAP2 SUB SWAP1 REVERT JUMPDEST PUSH1 0x0 PUSH1 0x65 PUSH1 0x40 MLOAD PUSH2 0x19CF SWAP1 PUSH2 0x35D8 JUMP JUMPDEST SWAP1 DUP2 MSTORE PUSH1 0x20 ADD PUSH1 0x40 MLOAD DUP1 SWAP2 SUB SWAP1 KECCAK256 PUSH1 0x0 SWAP1 SLOAD SWAP1 PUSH2 0x100 EXP SWAP1 DIV PUSH20 0xFFFFFFFFFFFFFFFFFFFFFFFFFFFFFFFFFFFFFFFF AND SWAP1 POP PUSH1 0x0 PUSH2 0x1A0D DUP3 DUP8 DUP8 PUSH2 0x28C5 JUMP JUMPDEST SWAP2 POP POP DUP1 PUSH1 0x1 DUP3 MLOAD PUSH2 0x1A1F SWAP2 SWAP1 PUSH2 0x378F JUMP JUMPDEST DUP2 MLOAD DUP2 LT PUSH2 0x1A30 JUMPI PUSH2 0x1A2F PUSH2 0x35ED JUMP JUMPDEST JUMPDEST PUSH1 0x20 MUL PUSH1 0x20 ADD ADD MLOAD SWAP4 POP POP POP POP SWAP3 SWAP2 POP POP JUMP JUMPDEST PUSH1 0x68 PUSH1 0x20 MSTORE DUP2 PUSH1 0x0 MSTORE PUSH1 0x40 PUSH1 0x0 KECCAK256 PUSH1 0x20 MSTORE DUP1 PUSH1 0x0 MSTORE PUSH1 0x40 PUSH1 0x0 KECCAK256 PUSH1 0x0 SWAP2 POP SWAP2 POP POP SLOAD DUP2 JUMP JUMPDEST PUSH1 0x60 DUP1 PUSH2 0x1A75 DUP5 DUP5 PUSH2 0xB07 JUMP JUMPDEST PUSH2 0x1A7F DUP5 DUP5 PUSH2 0xFAA JUMP JUMPDEST DUP1 SWAP3 POP DUP2 SWAP4 POP POP POP PUSH2 0x1A91 DUP3 DUP3 PUSH2 0x641 JUMP JUMPDEST SWAP3 POP SWAP3 SWAP1 POP JUMP JUMPDEST PUSH1 0x0 DUP2 PUSH2 0x1AA4 DUP2 PUSH2 0x1ED4 JUMP JUMPDEST PUSH2 0x1AE3 JUMPI PUSH1 0x40 MLOAD PUSH32 0x8C379A000000000000000000000000000000000000000000000000000000000 DUP2 MSTORE PUSH1 0x4 ADD PUSH2 0x1ADA SWAP1 PUSH2 0x3561 JUMP JUMPDEST PUSH1 0x40 MLOAD DUP1 SWAP2 SUB SWAP1 REVERT JUMPDEST PUSH1 0x0 CALLVALUE SWAP1 POP PUSH1 0x0 PUSH1 0x65 PUSH1 0x40 MLOAD PUSH2 0x1AF8 SWAP1 PUSH2 0x35D8 JUMP JUMPDEST SWAP1 DUP2 MSTORE PUSH1 0x20 ADD PUSH1 0x40 MLOAD DUP1 SWAP2 SUB SWAP1 KECCAK256 PUSH1 0x0 SWAP1 SLOAD SWAP1 PUSH2 0x100 EXP SWAP1 DIV PUSH20 0xFFFFFFFFFFFFFFFFFFFFFFFFFFFFFFFFFFFFFFFF AND SWAP1 POP PUSH1 0x0 PUSH2 0x1B35 DUP3 DUP8 PUSH2 0x21AC JUMP JUMPDEST SWAP1 POP PUSH1 0x0 DUP2 MLOAD SWAP1 POP PUSH1 0x0 PUSH2 0x1B47 PUSH2 0x2494 JUMP JUMPDEST PUSH20 0xFFFFFFFFFFFFFFFFFFFFFFFFFFFFFFFFFFFFFFFF AND PUSH4 0x7FF36AB5 DUP7 PUSH1 0x0 DUP7 ADDRESS TIMESTAMP PUSH1 0x40 MLOAD DUP7 PUSH4 0xFFFFFFFF AND PUSH1 0xE0 SHL DUP2 MSTORE PUSH1 0x4 ADD PUSH2 0x1B87 SWAP5 SWAP4 SWAP3 SWAP2 SWAP1 PUSH2 0x4096 JUMP JUMPDEST PUSH1 0x0 PUSH1 0x40 MLOAD DUP1 DUP4 SUB DUP2 DUP6 DUP9 GAS CALL ISZERO DUP1 ISZERO PUSH2 0x1BA5 JUMPI RETURNDATASIZE PUSH1 0x0 DUP1 RETURNDATACOPY RETURNDATASIZE PUSH1 0x0 REVERT JUMPDEST POP POP POP POP POP PUSH1 0x40 MLOAD RETURNDATASIZE PUSH1 0x0 DUP3 RETURNDATACOPY RETURNDATASIZE PUSH1 0x1F NOT PUSH1 0x1F DUP3 ADD AND DUP3 ADD DUP1 PUSH1 0x40 MSTORE POP DUP2 ADD SWAP1 PUSH2 0x1BCF SWAP2 SWAP1 PUSH2 0x3B47 JUMP JUMPDEST SWAP1 POP PUSH1 0x0 DUP2 PUSH1 0x1 DUP5 PUSH2 0x1BE1 SWAP2 SWAP1 PUSH2 0x378F JUMP JUMPDEST DUP2 MLOAD DUP2 LT PUSH2 0x1BF2 JUMPI PUSH2 0x1BF1 PUSH2 0x35ED JUMP JUMPDEST JUMPDEST PUSH1 0x20 MUL PUSH1 0x20 ADD ADD MLOAD SWAP1 POP DUP1 PUSH1 0x68 PUSH1 0x0 CALLER PUSH20 0xFFFFFFFFFFFFFFFFFFFFFFFFFFFFFFFFFFFFFFFF AND PUSH20 0xFFFFFFFFFFFFFFFFFFFFFFFFFFFFFFFFFFFFFFFF AND DUP2 MSTORE PUSH1 0x20 ADD SWAP1 DUP2 MSTORE PUSH1 0x20 ADD PUSH1 0x0 KECCAK256 PUSH1 0x0 DUP12 PUSH20 0xFFFFFFFFFFFFFFFFFFFFFFFFFFFFFFFFFFFFFFFF AND PUSH20 0xFFFFFFFFFFFFFFFFFFFFFFFFFFFFFFFFFFFFFFFF AND DUP2 MSTORE PUSH1 0x20 ADD SWAP1 DUP2 MSTORE PUSH1 0x20 ADD PUSH1 0x0 KECCAK256 PUSH1 0x0 DUP3 DUP3 SLOAD PUSH2 0x1C88 SWAP2 SWAP1 PUSH2 0x3A1B JUMP JUMPDEST SWAP3 POP POP DUP2 SWAP1 SSTORE POP DUP1 SWAP8 POP POP POP POP POP POP POP POP SWAP2 SWAP1 POP JUMP JUMPDEST PUSH1 0x60 DUP1 PUSH1 0x0 PUSH2 0x1CAC DUP5 PUSH2 0x1A98 JUMP JUMPDEST SWAP1 POP PUSH2 0x1CB8 DUP5 DUP3 PUSH2 0xFAA JUMP JUMPDEST DUP1 SWAP4 POP DUP2 SWAP5 POP POP POP PUSH2 0x1CCA DUP4 DUP4 PUSH2 0x641 JUMP JUMPDEST POP SWAP2 POP SWAP2 JUMP JUMPDEST PUSH2 0x1CD8 PUSH2 0x24BE JUMP JUMPDEST PUSH1 0x0 PUSH20 0xFFFFFFFFFFFFFFFFFFFFFFFFFFFFFFFFFFFFFFFF AND DUP2 PUSH20 0xFFFFFFFFFFFFFFFFFFFFFFFFFFFFFFFFFFFFFFFF AND SUB PUSH2 0x1D47 JUMPI PUSH1 0x40 MLOAD PUSH32 0x8C379A000000000000000000000000000000000000000000000000000000000 DUP2 MSTORE PUSH1 0x4 ADD PUSH2 0x1D3E SWAP1 PUSH2 0x4154 JUMP JUMPDEST PUSH1 0x40 MLOAD DUP1 SWAP2 SUB SWAP1 REVERT JUMPDEST PUSH2 0x1D50 DUP2 PUSH2 0x253C JUMP JUMPDEST POP JUMP JUMPDEST DUP1 PUSH1 0x68 PUSH1 0x0 CALLER PUSH20 0xFFFFFFFFFFFFFFFFFFFFFFFFFFFFFFFFFFFFFFFF AND PUSH20 0xFFFFFFFFFFFFFFFFFFFFFFFFFFFFFFFFFFFFFFFF AND DUP2 MSTORE PUSH1 0x20 ADD SWAP1 DUP2 MSTORE PUSH1 0x20 ADD PUSH1 0x0 KECCAK256 PUSH1 0x0 DUP5 PUSH20 0xFFFFFFFFFFFFFFFFFFFFFFFFFFFFFFFFFFFFFFFF AND PUSH20 0xFFFFFFFFFFFFFFFFFFFFFFFFFFFFFFFFFFFFFFFF AND DUP2 MSTORE PUSH1 0x20 ADD SWAP1 DUP2 MSTORE PUSH1 0x20 ADD PUSH1 0x0 KECCAK256 SLOAD LT ISZERO PUSH2 0x1E12 JUMPI PUSH1 0x40 MLOAD PUSH32 0x8C379A000000000000000000000000000000000000000000000000000000000 DUP2 MSTORE PUSH1 0x4 ADD PUSH2 0x1E09 SWAP1 PUSH2 0x41C0 JUMP JUMPDEST PUSH1 0x40 MLOAD DUP1 SWAP2 SUB SWAP1 REVERT JUMPDEST PUSH2 0x1E3D CALLER DUP3 DUP5 PUSH20 0xFFFFFFFFFFFFFFFFFFFFFFFFFFFFFFFFFFFFFFFF AND PUSH2 0x2A0D SWAP1 SWAP3 SWAP2 SWAP1 PUSH4 0xFFFFFFFF AND JUMP JUMPDEST DUP1 PUSH1 0x68 PUSH1 0x0 CALLER PUSH20 0xFFFFFFFFFFFFFFFFFFFFFFFFFFFFFFFFFFFFFFFF AND PUSH20 0xFFFFFFFFFFFFFFFFFFFFFFFFFFFFFFFFFFFFFFFF AND DUP2 MSTORE PUSH1 0x20 ADD SWAP1 DUP2 MSTORE PUSH1 0x20 ADD PUSH1 0x0 KECCAK256 PUSH1 0x0 DUP5 PUSH20 0xFFFFFFFFFFFFFFFFFFFFFFFFFFFFFFFFFFFFFFFF AND PUSH20 0xFFFFFFFFFFFFFFFFFFFFFFFFFFFFFFFFFFFFFFFF AND DUP2 MSTORE PUSH1 0x20 ADD SWAP1 DUP2 MSTORE PUSH1 0x20 ADD PUSH1 0x0 KECCAK256 PUSH1 0x0 DUP3 DUP3 SLOAD PUSH2 0x1EC9 SWAP2 SWAP1 PUSH2 0x378F JUMP JUMPDEST SWAP3 POP POP DUP2 SWAP1 SSTORE POP POP POP JUMP JUMPDEST PUSH1 0x0 PUSH1 0x65 PUSH1 0x40 MLOAD PUSH2 0x1EE4 SWAP1 PUSH2 0x422C JUMP JUMPDEST SWAP1 DUP2 MSTORE PUSH1 0x20 ADD PUSH1 0x40 MLOAD DUP1 SWAP2 SUB SWAP1 KECCAK256 PUSH1 0x0 SWAP1 SLOAD SWAP1 PUSH2 0x100 EXP SWAP1 DIV PUSH20 0xFFFFFFFFFFFFFFFFFFFFFFFFFFFFFFFFFFFFFFFF AND PUSH20 0xFFFFFFFFFFFFFFFFFFFFFFFFFFFFFFFFFFFFFFFF AND DUP3 PUSH20 0xFFFFFFFFFFFFFFFFFFFFFFFFFFFFFFFFFFFFFFFF AND SUB PUSH2 0x1F4E JUMPI PUSH1 0x1 SWAP1 POP PUSH2 0x1FCB JUMP JUMPDEST PUSH1 0x65 PUSH1 0x40 MLOAD PUSH2 0x1F5C SWAP1 PUSH2 0x428D JUMP JUMPDEST SWAP1 DUP2 MSTORE PUSH1 0x20 ADD PUSH1 0x40 MLOAD DUP1 SWAP2 SUB SWAP1 KECCAK256 PUSH1 0x0 SWAP1 SLOAD SWAP1 PUSH2 0x100 EXP SWAP1 DIV PUSH20 0xFFFFFFFFFFFFFFFFFFFFFFFFFFFFFFFFFFFFFFFF AND PUSH20 0xFFFFFFFFFFFFFFFFFFFFFFFFFFFFFFFFFFFFFFFF AND DUP3 PUSH20 0xFFFFFFFFFFFFFFFFFFFFFFFFFFFFFFFFFFFFFFFF AND SUB PUSH2 0x1FC6 JUMPI PUSH1 0x1 SWAP1 POP PUSH2 0x1FCB JUMP JUMPDEST PUSH1 0x0 SWAP1 POP JUMPDEST SWAP2 SWAP1 POP JUMP JUMPDEST PUSH1 0x60 DUP1 PUSH2 0x1FDD DUP6 DUP6 PUSH2 0x21AC JUMP JUMPDEST SWAP2 POP PUSH1 0x0 DUP3 MLOAD SWAP1 POP PUSH2 0x1FED PUSH2 0x2494 JUMP JUMPDEST PUSH20 0xFFFFFFFFFFFFFFFFFFFFFFFFFFFFFFFFFFFFFFFF AND PUSH4 0x1F00CA74 DUP6 DUP6 PUSH1 0x40 MLOAD DUP4 PUSH4 0xFFFFFFFF AND PUSH1 0xE0 SHL DUP2 MSTORE PUSH1 0x4 ADD PUSH2 0x2027 SWAP3 SWAP2 SWAP1 PUSH2 0x42A2 JUMP JUMPDEST PUSH1 0x0 PUSH1 0x40 MLOAD DUP1 DUP4 SUB DUP2 DUP7 GAS STATICCALL ISZERO DUP1 ISZERO PUSH2 0x2044 JUMPI RETURNDATASIZE PUSH1 0x0 DUP1 RETURNDATACOPY RETURNDATASIZE PUSH1 0x0 REVERT JUMPDEST POP POP POP POP PUSH1 0x40 MLOAD RETURNDATASIZE PUSH1 0x0 DUP3 RETURNDATACOPY RETURNDATASIZE PUSH1 0x1F NOT PUSH1 0x1F DUP3 ADD AND DUP3 ADD DUP1 PUSH1 0x40 MSTORE POP DUP2 ADD SWAP1 PUSH2 0x206D SWAP2 SWAP1 PUSH2 0x3B47 JUMP JUMPDEST SWAP2 POP DUP2 MLOAD DUP2 EQ PUSH2 0x20B2 JUMPI PUSH1 0x40 MLOAD PUSH32 0x8C379A000000000000000000000000000000000000000000000000000000000 DUP2 MSTORE PUSH1 0x4 ADD PUSH2 0x20A9 SWAP1 PUSH2 0x36D4 JUMP JUMPDEST PUSH1 0x40 MLOAD DUP1 SWAP2 SUB SWAP1 REVERT JUMPDEST DUP2 PUSH1 0x1 DUP3 PUSH2 0x20C0 SWAP2 SWAP1 PUSH2 0x378F JUMP JUMPDEST DUP2 MLOAD DUP2 LT PUSH2 0x20D1 JUMPI PUSH2 0x20D0 PUSH2 0x35ED JUMP JUMPDEST JUMPDEST PUSH1 0x20 MUL PUSH1 0x20 ADD ADD MLOAD DUP5 EQ PUSH2 0x211A JUMPI PUSH1 0x40 MLOAD PUSH32 0x8C379A000000000000000000000000000000000000000000000000000000000 DUP2 MSTORE PUSH1 0x4 ADD PUSH2 0x2111 SWAP1 PUSH2 0x431E JUMP JUMPDEST PUSH1 0x40 MLOAD DUP1 SWAP2 SUB SWAP1 REVERT JUMPDEST POP SWAP4 POP SWAP4 SWAP2 POP POP JUMP JUMPDEST PUSH2 0x21A6 DUP5 PUSH4 0x23B872DD PUSH1 0xE0 SHL DUP6 DUP6 DUP6 PUSH1 0x40 MLOAD PUSH1 0x24 ADD PUSH2 0x2144 SWAP4 SWAP3 SWAP2 SWAP1 PUSH2 0x433E JUMP JUMPDEST PUSH1 0x40 MLOAD PUSH1 0x20 DUP2 DUP4 SUB SUB DUP2 MSTORE SWAP1 PUSH1 0x40 MSTORE SWAP1 PUSH28 0xFFFFFFFFFFFFFFFFFFFFFFFFFFFFFFFFFFFFFFFFFFFFFFFFFFFFFFFF NOT AND PUSH1 0x20 DUP3 ADD DUP1 MLOAD PUSH28 0xFFFFFFFFFFFFFFFFFFFFFFFFFFFFFFFFFFFFFFFFFFFFFFFFFFFFFFFF DUP4 DUP2 DUP4 AND OR DUP4 MSTORE POP POP POP POP PUSH2 0x2A93 JUMP JUMPDEST POP POP POP POP JUMP JUMPDEST PUSH1 0x60 PUSH1 0x65 PUSH1 0x40 MLOAD PUSH2 0x21BC SWAP1 PUSH2 0x43C1 JUMP JUMPDEST SWAP1 DUP2 MSTORE PUSH1 0x20 ADD PUSH1 0x40 MLOAD DUP1 SWAP2 SUB SWAP1 KECCAK256 PUSH1 0x0 SWAP1 SLOAD SWAP1 PUSH2 0x100 EXP SWAP1 DIV PUSH20 0xFFFFFFFFFFFFFFFFFFFFFFFFFFFFFFFFFFFFFFFF AND PUSH20 0xFFFFFFFFFFFFFFFFFFFFFFFFFFFFFFFFFFFFFFFF AND DUP4 PUSH20 0xFFFFFFFFFFFFFFFFFFFFFFFFFFFFFFFFFFFFFFFF AND SUB PUSH2 0x2312 JUMPI PUSH1 0x0 PUSH1 0x2 PUSH8 0xFFFFFFFFFFFFFFFF DUP2 GT ISZERO PUSH2 0x223A JUMPI PUSH2 0x2239 PUSH2 0x2E58 JUMP JUMPDEST JUMPDEST PUSH1 0x40 MLOAD SWAP1 DUP1 DUP3 MSTORE DUP1 PUSH1 0x20 MUL PUSH1 0x20 ADD DUP3 ADD PUSH1 0x40 MSTORE DUP1 ISZERO PUSH2 0x2268 JUMPI DUP2 PUSH1 0x20 ADD PUSH1 0x20 DUP3 MUL DUP1 CALLDATASIZE DUP4 CALLDATACOPY DUP1 DUP3 ADD SWAP2 POP POP SWAP1 POP JUMPDEST POP SWAP1 POP DUP4 DUP2 PUSH1 0x0 DUP2 MLOAD DUP2 LT PUSH2 0x2280 JUMPI PUSH2 0x227F PUSH2 0x35ED JUMP JUMPDEST JUMPDEST PUSH1 0x20 MUL PUSH1 0x20 ADD ADD SWAP1 PUSH20 0xFFFFFFFFFFFFFFFFFFFFFFFFFFFFFFFFFFFFFFFF AND SWAP1 DUP2 PUSH20 0xFFFFFFFFFFFFFFFFFFFFFFFFFFFFFFFFFFFFFFFF AND DUP2 MSTORE POP POP DUP3 DUP2 PUSH1 0x1 DUP2 MLOAD DUP2 LT PUSH2 0x22CF JUMPI PUSH2 0x22CE PUSH2 0x35ED JUMP JUMPDEST JUMPDEST PUSH1 0x20 MUL PUSH1 0x20 ADD ADD SWAP1 PUSH20 0xFFFFFFFFFFFFFFFFFFFFFFFFFFFFFFFFFFFFFFFF AND SWAP1 DUP2 PUSH20 0xFFFFFFFFFFFFFFFFFFFFFFFFFFFFFFFFFFFFFFFF AND DUP2 MSTORE POP POP DUP1 SWAP2 POP POP PUSH2 0x248E JUMP JUMPDEST PUSH1 0x0 PUSH1 0x3 PUSH8 0xFFFFFFFFFFFFFFFF DUP2 GT ISZERO PUSH2 0x232F JUMPI PUSH2 0x232E PUSH2 0x2E58 JUMP JUMPDEST JUMPDEST PUSH1 0x40 MLOAD SWAP1 DUP1 DUP3 MSTORE DUP1 PUSH1 0x20 MUL PUSH1 0x20 ADD DUP3 ADD PUSH1 0x40 MSTORE DUP1 ISZERO PUSH2 0x235D JUMPI DUP2 PUSH1 0x20 ADD PUSH1 0x20 DUP3 MUL DUP1 CALLDATASIZE DUP4 CALLDATACOPY DUP1 DUP3 ADD SWAP2 POP POP SWAP1 POP JUMPDEST POP SWAP1 POP DUP4 DUP2 PUSH1 0x0 DUP2 MLOAD DUP2 LT PUSH2 0x2375 JUMPI PUSH2 0x2374 PUSH2 0x35ED JUMP JUMPDEST JUMPDEST PUSH1 0x20 MUL PUSH1 0x20 ADD ADD SWAP1 PUSH20 0xFFFFFFFFFFFFFFFFFFFFFFFFFFFFFFFFFFFFFFFF AND SWAP1 DUP2 PUSH20 0xFFFFFFFFFFFFFFFFFFFFFFFFFFFFFFFFFFFFFFFF AND DUP2 MSTORE POP POP PUSH1 0x65 PUSH1 0x40 MLOAD PUSH2 0x23BD SWAP1 PUSH2 0x43C1 JUMP JUMPDEST SWAP1 DUP2 MSTORE PUSH1 0x20 ADD PUSH1 0x40 MLOAD DUP1 SWAP2 SUB SWAP1 KECCAK256 PUSH1 0x0 SWAP1 SLOAD SWAP1 PUSH2 0x100 EXP SWAP1 DIV PUSH20 0xFFFFFFFFFFFFFFFFFFFFFFFFFFFFFFFFFFFFFFFF AND DUP2 PUSH1 0x1 DUP2 MLOAD DUP2 LT PUSH2 0x2400 JUMPI PUSH2 0x23FF PUSH2 0x35ED JUMP JUMPDEST JUMPDEST PUSH1 0x20 MUL PUSH1 0x20 ADD ADD SWAP1 PUSH20 0xFFFFFFFFFFFFFFFFFFFFFFFFFFFFFFFFFFFFFFFF AND SWAP1 DUP2 PUSH20 0xFFFFFFFFFFFFFFFFFFFFFFFFFFFFFFFFFFFFFFFF AND DUP2 MSTORE POP POP DUP3 DUP2 PUSH1 0x2 DUP2 MLOAD DUP2 LT PUSH2 0x244F JUMPI PUSH2 0x244E PUSH2 0x35ED JUMP JUMPDEST JUMPDEST PUSH1 0x20 MUL PUSH1 0x20 ADD ADD SWAP1 PUSH20 0xFFFFFFFFFFFFFFFFFFFFFFFFFFFFFFFFFFFFFFFF AND SWAP1 DUP2 PUSH20 0xFFFFFFFFFFFFFFFFFFFFFFFFFFFFFFFFFFFFFFFF AND DUP2 MSTORE POP POP DUP1 SWAP2 POP POP JUMPDEST SWAP3 SWAP2 POP POP JUMP JUMPDEST PUSH1 0x0 PUSH1 0x67 PUSH1 0x0 SWAP1 SLOAD SWAP1 PUSH2 0x100 EXP SWAP1 DIV PUSH20 0xFFFFFFFFFFFFFFFFFFFFFFFFFFFFFFFFFFFFFFFF AND SWAP1 POP SWAP1 JUMP JUMPDEST PUSH2 0x24C6 PUSH2 0x2B5B JUMP JUMPDEST PUSH20 0xFFFFFFFFFFFFFFFFFFFFFFFFFFFFFFFFFFFFFFFF AND PUSH2 0x24E4 PUSH2 0x1918 JUMP JUMPDEST PUSH20 0xFFFFFFFFFFFFFFFFFFFFFFFFFFFFFFFFFFFFFFFF AND EQ PUSH2 0x253A JUMPI PUSH1 0x40 MLOAD PUSH32 0x8C379A000000000000000000000000000000000000000000000000000000000 DUP2 MSTORE PUSH1 0x4 ADD PUSH2 0x2531 SWAP1 PUSH2 0x4422 JUMP JUMPDEST PUSH1 0x40 MLOAD DUP1 SWAP2 SUB SWAP1 REVERT JUMPDEST JUMP JUMPDEST PUSH1 0x0 PUSH1 0x33 PUSH1 0x0 SWAP1 SLOAD SWAP1 PUSH2 0x100 EXP SWAP1 DIV PUSH20 0xFFFFFFFFFFFFFFFFFFFFFFFFFFFFFFFFFFFFFFFF AND SWAP1 POP DUP2 PUSH1 0x33 PUSH1 0x0 PUSH2 0x100 EXP DUP2 SLOAD DUP2 PUSH20 0xFFFFFFFFFFFFFFFFFFFFFFFFFFFFFFFFFFFFFFFF MUL NOT AND SWAP1 DUP4 PUSH20 0xFFFFFFFFFFFFFFFFFFFFFFFFFFFFFFFFFFFFFFFF AND MUL OR SWAP1 SSTORE POP DUP2 PUSH20 0xFFFFFFFFFFFFFFFFFFFFFFFFFFFFFFFFFFFFFFFF AND DUP2 PUSH20 0xFFFFFFFFFFFFFFFFFFFFFFFFFFFFFFFFFFFFFFFF AND PUSH32 0x8BE0079C531659141344CD1FD0A4F28419497F9722A3DAAFE3B4186F6B6457E0 PUSH1 0x40 MLOAD PUSH1 0x40 MLOAD DUP1 SWAP2 SUB SWAP1 LOG3 POP POP JUMP JUMPDEST PUSH1 0x0 PUSH1 0x65 PUSH1 0x40 MLOAD PUSH2 0x2612 SWAP1 PUSH2 0x43C1 JUMP JUMPDEST SWAP1 DUP2 MSTORE PUSH1 0x20 ADD PUSH1 0x40 MLOAD DUP1 SWAP2 SUB SWAP1 KECCAK256 PUSH1 0x0 SWAP1 SLOAD SWAP1 PUSH2 0x100 EXP SWAP1 DIV PUSH20 0xFFFFFFFFFFFFFFFFFFFFFFFFFFFFFFFFFFFFFFFF AND PUSH20 0xFFFFFFFFFFFFFFFFFFFFFFFFFFFFFFFFFFFFFFFF AND DUP3 PUSH20 0xFFFFFFFFFFFFFFFFFFFFFFFFFFFFFFFFFFFFFFFF AND SUB PUSH2 0x267C JUMPI PUSH1 0x1 SWAP1 POP PUSH2 0x2771 JUMP JUMPDEST PUSH1 0x65 PUSH1 0x40 MLOAD PUSH2 0x268A SWAP1 PUSH2 0x448E JUMP JUMPDEST SWAP1 DUP2 MSTORE PUSH1 0x20 ADD PUSH1 0x40 MLOAD DUP1 SWAP2 SUB SWAP1 KECCAK256 PUSH1 0x0 SWAP1 SLOAD SWAP1 PUSH2 0x100 EXP SWAP1 DIV PUSH20 0xFFFFFFFFFFFFFFFFFFFFFFFFFFFFFFFFFFFFFFFF AND PUSH20 0xFFFFFFFFFFFFFFFFFFFFFFFFFFFFFFFFFFFFFFFF AND DUP3 PUSH20 0xFFFFFFFFFFFFFFFFFFFFFFFFFFFFFFFFFFFFFFFF AND SUB PUSH2 0x26F4 JUMPI PUSH1 0x1 SWAP1 POP PUSH2 0x2771 JUMP JUMPDEST PUSH1 0x65 PUSH1 0x40 MLOAD PUSH2 0x2702 SWAP1 PUSH2 0x44EF JUMP JUMPDEST SWAP1 DUP2 MSTORE PUSH1 0x20 ADD PUSH1 0x40 MLOAD DUP1 SWAP2 SUB SWAP1 KECCAK256 PUSH1 0x0 SWAP1 SLOAD SWAP1 PUSH2 0x100 EXP SWAP1 DIV PUSH20 0xFFFFFFFFFFFFFFFFFFFFFFFFFFFFFFFFFFFFFFFF AND PUSH20 0xFFFFFFFFFFFFFFFFFFFFFFFFFFFFFFFFFFFFFFFF AND DUP3 PUSH20 0xFFFFFFFFFFFFFFFFFFFFFFFFFFFFFFFFFFFFFFFF AND SUB PUSH2 0x276C JUMPI PUSH1 0x1 SWAP1 POP PUSH2 0x2771 JUMP JUMPDEST PUSH1 0x0 SWAP1 POP JUMPDEST SWAP2 SWAP1 POP JUMP JUMPDEST PUSH1 0x0 DUP2 EQ DUP1 PUSH2 0x2800 JUMPI POP PUSH1 0x0 DUP4 PUSH20 0xFFFFFFFFFFFFFFFFFFFFFFFFFFFFFFFFFFFFFFFF AND PUSH4 0xDD62ED3E ADDRESS DUP6 PUSH1 0x40 MLOAD DUP4 PUSH4 0xFFFFFFFF AND PUSH1 0xE0 SHL DUP2 MSTORE PUSH1 0x4 ADD PUSH2 0x27BD SWAP3 SWAP2 SWAP1 PUSH2 0x4504 JUMP JUMPDEST PUSH1 0x20 PUSH1 0x40 MLOAD DUP1 DUP4 SUB DUP2 DUP7 GAS STATICCALL ISZERO DUP1 ISZERO PUSH2 0x27DA JUMPI RETURNDATASIZE PUSH1 0x0 DUP1 RETURNDATACOPY RETURNDATASIZE PUSH1 0x0 REVERT JUMPDEST POP POP POP POP PUSH1 0x40 MLOAD RETURNDATASIZE PUSH1 0x1F NOT PUSH1 0x1F DUP3 ADD AND DUP3 ADD DUP1 PUSH1 0x40 MSTORE POP DUP2 ADD SWAP1 PUSH2 0x27FE SWAP2 SWAP1 PUSH2 0x452D JUMP JUMPDEST EQ JUMPDEST PUSH2 0x283F JUMPI PUSH1 0x40 MLOAD PUSH32 0x8C379A000000000000000000000000000000000000000000000000000000000 DUP2 MSTORE PUSH1 0x4 ADD PUSH2 0x2836 SWAP1 PUSH2 0x45CC JUMP JUMPDEST PUSH1 0x40 MLOAD DUP1 SWAP2 SUB SWAP1 REVERT JUMPDEST PUSH2 0x28C0 DUP4 PUSH4 0x95EA7B3 PUSH1 0xE0 SHL DUP5 DUP5 PUSH1 0x40 MLOAD PUSH1 0x24 ADD PUSH2 0x285E SWAP3 SWAP2 SWAP1 PUSH2 0x3EE6 JUMP JUMPDEST PUSH1 0x40 MLOAD PUSH1 0x20 DUP2 DUP4 SUB SUB DUP2 MSTORE SWAP1 PUSH1 0x40 MSTORE SWAP1 PUSH28 0xFFFFFFFFFFFFFFFFFFFFFFFFFFFFFFFFFFFFFFFFFFFFFFFFFFFFFFFF NOT AND PUSH1 0x20 DUP3 ADD DUP1 MLOAD PUSH28 0xFFFFFFFFFFFFFFFFFFFFFFFFFFFFFFFFFFFFFFFFFFFFFFFFFFFFFFFF DUP4 DUP2 DUP4 AND OR DUP4 MSTORE POP POP POP POP PUSH2 0x2A93 JUMP JUMPDEST POP POP POP JUMP JUMPDEST PUSH1 0x60 DUP1 PUSH2 0x28D2 DUP6 DUP5 PUSH2 0x21AC JUMP JUMPDEST SWAP2 POP PUSH1 0x0 DUP3 MLOAD SWAP1 POP PUSH2 0x28E2 PUSH2 0x2494 JUMP JUMPDEST PUSH20 0xFFFFFFFFFFFFFFFFFFFFFFFFFFFFFFFFFFFFFFFF AND PUSH4 0xD06CA61F DUP7 DUP6 PUSH1 0x40 MLOAD DUP4 PUSH4 0xFFFFFFFF AND PUSH1 0xE0 SHL DUP2 MSTORE PUSH1 0x4 ADD PUSH2 0x291C SWAP3 SWAP2 SWAP1 PUSH2 0x42A2 JUMP JUMPDEST PUSH1 0x0 PUSH1 0x40 MLOAD DUP1 DUP4 SUB DUP2 DUP7 GAS STATICCALL ISZERO DUP1 ISZERO PUSH2 0x2939 JUMPI RETURNDATASIZE PUSH1 0x0 DUP1 RETURNDATACOPY RETURNDATASIZE PUSH1 0x0 REVERT JUMPDEST POP POP POP POP PUSH1 0x40 MLOAD RETURNDATASIZE PUSH1 0x0 DUP3 RETURNDATACOPY RETURNDATASIZE PUSH1 0x1F NOT PUSH1 0x1F DUP3 ADD AND DUP3 ADD DUP1 PUSH1 0x40 MSTORE POP DUP2 ADD SWAP1 PUSH2 0x2962 SWAP2 SWAP1 PUSH2 0x3B47 JUMP JUMPDEST SWAP2 POP DUP2 MLOAD DUP2 EQ PUSH2 0x29A7 JUMPI PUSH1 0x40 MLOAD PUSH32 0x8C379A000000000000000000000000000000000000000000000000000000000 DUP2 MSTORE PUSH1 0x4 ADD PUSH2 0x299E SWAP1 PUSH2 0x36D4 JUMP JUMPDEST PUSH1 0x40 MLOAD DUP1 SWAP2 SUB SWAP1 REVERT JUMPDEST DUP2 PUSH1 0x0 DUP2 MLOAD DUP2 LT PUSH2 0x29BB JUMPI PUSH2 0x29BA PUSH2 0x35ED JUMP JUMPDEST JUMPDEST PUSH1 0x20 MUL PUSH1 0x20 ADD ADD MLOAD DUP6 EQ PUSH2 0x2A04 JUMPI PUSH1 0x40 MLOAD PUSH32 0x8C379A000000000000000000000000000000000000000000000000000000000 DUP2 MSTORE PUSH1 0x4 ADD PUSH2 0x29FB SWAP1 PUSH2 0x4638 JUMP JUMPDEST PUSH1 0x40 MLOAD DUP1 SWAP2 SUB SWAP1 REVERT JUMPDEST POP SWAP4 POP SWAP4 SWAP2 POP POP JUMP JUMPDEST PUSH2 0x2A8E DUP4 PUSH4 0xA9059CBB PUSH1 0xE0 SHL DUP5 DUP5 PUSH1 0x40 MLOAD PUSH1 0x24 ADD PUSH2 0x2A2C SWAP3 SWAP2 SWAP1 PUSH2 0x3EE6 JUMP JUMPDEST PUSH1 0x40 MLOAD PUSH1 0x20 DUP2 DUP4 SUB SUB DUP2 MSTORE SWAP1 PUSH1 0x40 MSTORE SWAP1 PUSH28 0xFFFFFFFFFFFFFFFFFFFFFFFFFFFFFFFFFFFFFFFFFFFFFFFFFFFFFFFF NOT AND PUSH1 0x20 DUP3 ADD DUP1 MLOAD PUSH28 0xFFFFFFFFFFFFFFFFFFFFFFFFFFFFFFFFFFFFFFFFFFFFFFFFFFFFFFFF DUP4 DUP2 DUP4 AND OR DUP4 MSTORE POP POP POP POP PUSH2 0x2A93 JUMP JUMPDEST POP POP POP JUMP JUMPDEST PUSH1 0x0 PUSH2 0x2AF5 DUP3 PUSH1 0x40 MLOAD DUP1 PUSH1 0x40 ADD PUSH1 0x40 MSTORE DUP1 PUSH1 0x20 DUP2 MSTORE PUSH1 0x20 ADD PUSH32 0x5361666545524332303A206C6F772D6C6576656C2063616C6C206661696C6564 DUP2 MSTORE POP DUP6 PUSH20 0xFFFFFFFFFFFFFFFFFFFFFFFFFFFFFFFFFFFFFFFF AND PUSH2 0x2B63 SWAP1 SWAP3 SWAP2 SWAP1 PUSH4 0xFFFFFFFF AND JUMP JUMPDEST SWAP1 POP PUSH1 0x0 DUP2 MLOAD EQ DUP1 PUSH2 0x2B17 JUMPI POP DUP1 DUP1 PUSH1 0x20 ADD SWAP1 MLOAD DUP2 ADD SWAP1 PUSH2 0x2B16 SWAP2 SWAP1 PUSH2 0x3F47 JUMP JUMPDEST JUMPDEST PUSH2 0x2B56 JUMPI PUSH1 0x40 MLOAD PUSH32 0x8C379A000000000000000000000000000000000000000000000000000000000 DUP2 MSTORE PUSH1 0x4 ADD PUSH2 0x2B4D SWAP1 PUSH2 0x46CA JUMP JUMPDEST PUSH1 0x40 MLOAD DUP1 SWAP2 SUB SWAP1 REVERT JUMPDEST POP POP POP JUMP JUMPDEST PUSH1 0x0 CALLER SWAP1 POP SWAP1 JUMP JUMPDEST PUSH1 0x60 PUSH2 0x2B72 DUP5 DUP5 PUSH1 0x0 DUP6 PUSH2 0x2B7B JUMP JUMPDEST SWAP1 POP SWAP4 SWAP3 POP POP POP JUMP JUMPDEST PUSH1 0x60 DUP3 SELFBALANCE LT ISZERO PUSH2 0x2BC0 JUMPI PUSH1 0x40 MLOAD PUSH32 0x8C379A000000000000000000000000000000000000000000000000000000000 DUP2 MSTORE PUSH1 0x4 ADD PUSH2 0x2BB7 SWAP1 PUSH2 0x475C JUMP JUMPDEST PUSH1 0x40 MLOAD DUP1 SWAP2 SUB SWAP1 REVERT JUMPDEST PUSH1 0x0 DUP1 DUP7 PUSH20 0xFFFFFFFFFFFFFFFFFFFFFFFFFFFFFFFFFFFFFFFF AND DUP6 DUP8 PUSH1 0x40 MLOAD PUSH2 0x2BE9 SWAP2 SWAP1 PUSH2 0x3BCC JUMP JUMPDEST PUSH1 0x0 PUSH1 0x40 MLOAD DUP1 DUP4 SUB DUP2 DUP6 DUP8 GAS CALL SWAP3 POP POP POP RETURNDATASIZE DUP1 PUSH1 0x0 DUP2 EQ PUSH2 0x2C26 JUMPI PUSH1 0x40 MLOAD SWAP2 POP PUSH1 0x1F NOT PUSH1 0x3F RETURNDATASIZE ADD AND DUP3 ADD PUSH1 0x40 MSTORE RETURNDATASIZE DUP3 MSTORE RETURNDATASIZE PUSH1 0x0 PUSH1 0x20 DUP5 ADD RETURNDATACOPY PUSH2 0x2C2B JUMP JUMPDEST PUSH1 0x60 SWAP2 POP JUMPDEST POP SWAP2 POP SWAP2 POP PUSH2 0x2C3C DUP8 DUP4 DUP4 DUP8 PUSH2 0x2C48 JUMP JUMPDEST SWAP3 POP POP POP SWAP5 SWAP4 POP POP POP POP JUMP JUMPDEST PUSH1 0x60 DUP4 ISZERO PUSH2 0x2CAA JUMPI PUSH1 0x0 DUP4 MLOAD SUB PUSH2 0x2CA2 JUMPI PUSH2 0x2C62 DUP6 PUSH2 0x2CBD JUMP JUMPDEST PUSH2 0x2CA1 JUMPI PUSH1 0x40 MLOAD PUSH32 0x8C379A000000000000000000000000000000000000000000000000000000000 DUP2 MSTORE PUSH1 0x4 ADD PUSH2 0x2C98 SWAP1 PUSH2 0x47C8 JUMP JUMPDEST PUSH1 0x40 MLOAD DUP1 SWAP2 SUB SWAP1 REVERT JUMPDEST JUMPDEST DUP3 SWAP1 POP PUSH2 0x2CB5 JUMP JUMPDEST PUSH2 0x2CB4 DUP4 DUP4 PUSH2 0x2CE0 JUMP JUMPDEST JUMPDEST SWAP5 SWAP4 POP POP POP POP JUMP JUMPDEST PUSH1 0x0 DUP1 DUP3 PUSH20 0xFFFFFFFFFFFFFFFFFFFFFFFFFFFFFFFFFFFFFFFF AND EXTCODESIZE GT SWAP1 POP SWAP2 SWAP1 POP JUMP JUMPDEST PUSH1 0x0 DUP3 MLOAD GT ISZERO PUSH2 0x2CF3 JUMPI DUP2 MLOAD DUP1 DUP4 PUSH1 0x20 ADD REVERT JUMPDEST DUP1 PUSH1 0x40 MLOAD PUSH32 0x8C379A000000000000000000000000000000000000000000000000000000000 DUP2 MSTORE PUSH1 0x4 ADD PUSH2 0x2D27 SWAP2 SWAP1 PUSH2 0x38F0 JUMP JUMPDEST PUSH1 0x40 MLOAD DUP1 SWAP2 SUB SWAP1 REVERT JUMPDEST PUSH1 0x0 PUSH1 0x40 MLOAD SWAP1 POP SWAP1 JUMP JUMPDEST PUSH1 0x0 DUP1 REVERT JUMPDEST PUSH1 0x0 DUP1 REVERT JUMPDEST PUSH1 0x0 PUSH20 0xFFFFFFFFFFFFFFFFFFFFFFFFFFFFFFFFFFFFFFFF DUP3 AND SWAP1 POP SWAP2 SWAP1 POP JUMP JUMPDEST PUSH1 0x0 PUSH2 0x2D6F DUP3 PUSH2 0x2D44 JUMP JUMPDEST SWAP1 POP SWAP2 SWAP1 POP JUMP JUMPDEST PUSH2 0x2D7F DUP2 PUSH2 0x2D64 JUMP JUMPDEST DUP2 EQ PUSH2 0x2D8A JUMPI PUSH1 0x0 DUP1 REVERT JUMPDEST POP JUMP JUMPDEST PUSH1 0x0 DUP2 CALLDATALOAD SWAP1 POP PUSH2 0x2D9C DUP2 PUSH2 0x2D76 JUMP JUMPDEST SWAP3 SWAP2 POP POP JUMP JUMPDEST PUSH1 0x0 DUP2 SWAP1 POP SWAP2 SWAP1 POP JUMP JUMPDEST PUSH2 0x2DB5 DUP2 PUSH2 0x2DA2 JUMP JUMPDEST DUP2 EQ PUSH2 0x2DC0 JUMPI PUSH1 0x0 DUP1 REVERT JUMPDEST POP JUMP JUMPDEST PUSH1 0x0 DUP2 CALLDATALOAD SWAP1 POP PUSH2 0x2DD2 DUP2 PUSH2 0x2DAC JUMP JUMPDEST SWAP3 SWAP2 POP POP JUMP JUMPDEST PUSH1 0x0 DUP1 PUSH1 0x40 DUP4 DUP6 SUB SLT ISZERO PUSH2 0x2DEF JUMPI PUSH2 0x2DEE PUSH2 0x2D3A JUMP JUMPDEST JUMPDEST PUSH1 0x0 PUSH2 0x2DFD DUP6 DUP3 DUP7 ADD PUSH2 0x2D8D JUMP JUMPDEST SWAP3 POP POP PUSH1 0x20 PUSH2 0x2E0E DUP6 DUP3 DUP7 ADD PUSH2 0x2DC3 JUMP JUMPDEST SWAP2 POP POP SWAP3 POP SWAP3 SWAP1 POP JUMP JUMPDEST PUSH2 0x2E21 DUP2 PUSH2 0x2DA2 JUMP JUMPDEST DUP3 MSTORE POP POP JUMP JUMPDEST PUSH1 0x0 PUSH1 0x20 DUP3 ADD SWAP1 POP PUSH2 0x2E3C PUSH1 0x0 DUP4 ADD DUP5 PUSH2 0x2E18 JUMP JUMPDEST SWAP3 SWAP2 POP POP JUMP JUMPDEST PUSH1 0x0 DUP1 REVERT JUMPDEST PUSH1 0x0 PUSH1 0x1F NOT PUSH1 0x1F DUP4 ADD AND SWAP1 POP SWAP2 SWAP1 POP JUMP JUMPDEST PUSH32 0x4E487B7100000000000000000000000000000000000000000000000000000000 PUSH1 0x0 MSTORE PUSH1 0x41 PUSH1 0x4 MSTORE PUSH1 0x24 PUSH1 0x0 REVERT JUMPDEST PUSH2 0x2E90 DUP3 PUSH2 0x2E47 JUMP JUMPDEST DUP2 ADD DUP2 DUP2 LT PUSH8 0xFFFFFFFFFFFFFFFF DUP3 GT OR ISZERO PUSH2 0x2EAF JUMPI PUSH2 0x2EAE PUSH2 0x2E58 JUMP JUMPDEST JUMPDEST DUP1 PUSH1 0x40 MSTORE POP POP POP JUMP JUMPDEST PUSH1 0x0 PUSH2 0x2EC2 PUSH2 0x2D30 JUMP JUMPDEST SWAP1 POP PUSH2 0x2ECE DUP3 DUP3 PUSH2 0x2E87 JUMP JUMPDEST SWAP2 SWAP1 POP JUMP JUMPDEST PUSH1 0x0 PUSH8 0xFFFFFFFFFFFFFFFF DUP3 GT ISZERO PUSH2 0x2EEE JUMPI PUSH2 0x2EED PUSH2 0x2E58 JUMP JUMPDEST JUMPDEST PUSH1 0x20 DUP3 MUL SWAP1 POP PUSH1 0x20 DUP2 ADD SWAP1 POP SWAP2 SWAP1 POP JUMP JUMPDEST PUSH1 0x0 DUP1 REVERT JUMPDEST PUSH1 0x0 PUSH2 0x2F17 PUSH2 0x2F12 DUP5 PUSH2 0x2ED3 JUMP JUMPDEST PUSH2 0x2EB8 JUMP JUMPDEST SWAP1 POP DUP1 DUP4 DUP3 MSTORE PUSH1 0x20 DUP3 ADD SWAP1 POP PUSH1 0x20 DUP5 MUL DUP4 ADD DUP6 DUP2 GT ISZERO PUSH2 0x2F3A JUMPI PUSH2 0x2F39 PUSH2 0x2EFF JUMP JUMPDEST JUMPDEST DUP4 JUMPDEST DUP2 DUP2 LT ISZERO PUSH2 0x2F63 JUMPI DUP1 PUSH2 0x2F4F DUP9 DUP3 PUSH2 0x2D8D JUMP JUMPDEST DUP5 MSTORE PUSH1 0x20 DUP5 ADD SWAP4 POP POP PUSH1 0x20 DUP2 ADD SWAP1 POP PUSH2 0x2F3C JUMP JUMPDEST POP POP POP SWAP4 SWAP3 POP POP POP JUMP JUMPDEST PUSH1 0x0 DUP3 PUSH1 0x1F DUP4 ADD SLT PUSH2 0x2F82 JUMPI PUSH2 0x2F81 PUSH2 0x2E42 JUMP JUMPDEST JUMPDEST DUP2 CALLDATALOAD PUSH2 0x2F92 DUP5 DUP3 PUSH1 0x20 DUP7 ADD PUSH2 0x2F04 JUMP JUMPDEST SWAP2 POP POP SWAP3 SWAP2 POP POP JUMP JUMPDEST PUSH1 0x0 PUSH8 0xFFFFFFFFFFFFFFFF DUP3 GT ISZERO PUSH2 0x2FB6 JUMPI PUSH2 0x2FB5 PUSH2 0x2E58 JUMP JUMPDEST JUMPDEST PUSH1 0x20 DUP3 MUL SWAP1 POP PUSH1 0x20 DUP2 ADD SWAP1 POP SWAP2 SWAP1 POP JUMP JUMPDEST PUSH1 0x0 PUSH2 0x2FDA PUSH2 0x2FD5 DUP5 PUSH2 0x2F9B JUMP JUMPDEST PUSH2 0x2EB8 JUMP JUMPDEST SWAP1 POP DUP1 DUP4 DUP3 MSTORE PUSH1 0x20 DUP3 ADD SWAP1 POP PUSH1 0x20 DUP5 MUL DUP4 ADD DUP6 DUP2 GT ISZERO PUSH2 0x2FFD JUMPI PUSH2 0x2FFC PUSH2 0x2EFF JUMP JUMPDEST JUMPDEST DUP4 JUMPDEST DUP2 DUP2 LT ISZERO PUSH2 0x3026 JUMPI DUP1 PUSH2 0x3012 DUP9 DUP3 PUSH2 0x2DC3 JUMP JUMPDEST DUP5 MSTORE PUSH1 0x20 DUP5 ADD SWAP4 POP POP PUSH1 0x20 DUP2 ADD SWAP1 POP PUSH2 0x2FFF JUMP JUMPDEST POP POP POP SWAP4 SWAP3 POP POP POP JUMP JUMPDEST PUSH1 0x0 DUP3 PUSH1 0x1F DUP4 ADD SLT PUSH2 0x3045 JUMPI PUSH2 0x3044 PUSH2 0x2E42 JUMP JUMPDEST JUMPDEST DUP2 CALLDATALOAD PUSH2 0x3055 DUP5 DUP3 PUSH1 0x20 DUP7 ADD PUSH2 0x2FC7 JUMP JUMPDEST SWAP2 POP POP SWAP3 SWAP2 POP POP JUMP JUMPDEST PUSH1 0x0 DUP1 PUSH1 0x40 DUP4 DUP6 SUB SLT ISZERO PUSH2 0x3075 JUMPI PUSH2 0x3074 PUSH2 0x2D3A JUMP JUMPDEST JUMPDEST PUSH1 0x0 DUP4 ADD CALLDATALOAD PUSH8 0xFFFFFFFFFFFFFFFF DUP2 GT ISZERO PUSH2 0x3093 JUMPI PUSH2 0x3092 PUSH2 0x2D3F JUMP JUMPDEST JUMPDEST PUSH2 0x309F DUP6 DUP3 DUP7 ADD PUSH2 0x2F6D JUMP JUMPDEST SWAP3 POP POP PUSH1 0x20 DUP4 ADD CALLDATALOAD PUSH8 0xFFFFFFFFFFFFFFFF DUP2 GT ISZERO PUSH2 0x30C0 JUMPI PUSH2 0x30BF PUSH2 0x2D3F JUMP JUMPDEST JUMPDEST PUSH2 0x30CC DUP6 DUP3 DUP7 ADD PUSH2 0x3030 JUMP JUMPDEST SWAP2 POP POP SWAP3 POP SWAP3 SWAP1 POP JUMP JUMPDEST PUSH1 0x0 DUP1 PUSH1 0x0 PUSH1 0x60 DUP5 DUP7 SUB SLT ISZERO PUSH2 0x30EF JUMPI PUSH2 0x30EE PUSH2 0x2D3A JUMP JUMPDEST JUMPDEST PUSH1 0x0 PUSH2 0x30FD DUP7 DUP3 DUP8 ADD PUSH2 0x2D8D JUMP JUMPDEST SWAP4 POP POP PUSH1 0x20 PUSH2 0x310E DUP7 DUP3 DUP8 ADD PUSH2 0x2DC3 JUMP JUMPDEST SWAP3 POP POP PUSH1 0x40 PUSH2 0x311F DUP7 DUP3 DUP8 ADD PUSH2 0x2D8D JUMP JUMPDEST SWAP2 POP POP SWAP3 POP SWAP3 POP SWAP3 JUMP JUMPDEST PUSH1 0x0 DUP2 MLOAD SWAP1 POP SWAP2 SWAP1 POP JUMP JUMPDEST PUSH1 0x0 DUP3 DUP3 MSTORE PUSH1 0x20 DUP3 ADD SWAP1 POP SWAP3 SWAP2 POP POP JUMP JUMPDEST PUSH1 0x0 DUP2 SWAP1 POP PUSH1 0x20 DUP3 ADD SWAP1 POP SWAP2 SWAP1 POP JUMP JUMPDEST PUSH2 0x315E DUP2 PUSH2 0x2D64 JUMP JUMPDEST DUP3 MSTORE POP POP JUMP JUMPDEST PUSH1 0x0 PUSH2 0x3170 DUP4 DUP4 PUSH2 0x3155 JUMP JUMPDEST PUSH1 0x20 DUP4 ADD SWAP1 POP SWAP3 SWAP2 POP POP JUMP JUMPDEST PUSH1 0x0 PUSH1 0x20 DUP3 ADD SWAP1 POP SWAP2 SWAP1 POP JUMP JUMPDEST PUSH1 0x0 PUSH2 0x3194 DUP3 PUSH2 0x3129 JUMP JUMPDEST PUSH2 0x319E DUP2 DUP6 PUSH2 0x3134 JUMP JUMPDEST SWAP4 POP PUSH2 0x31A9 DUP4 PUSH2 0x3145 JUMP JUMPDEST DUP1 PUSH1 0x0 JUMPDEST DUP4 DUP2 LT ISZERO PUSH2 0x31DA JUMPI DUP2 MLOAD PUSH2 0x31C1 DUP9 DUP3 PUSH2 0x3164 JUMP JUMPDEST SWAP8 POP PUSH2 0x31CC DUP4 PUSH2 0x317C JUMP JUMPDEST SWAP3 POP POP PUSH1 0x1 DUP2 ADD SWAP1 POP PUSH2 0x31AD JUMP JUMPDEST POP DUP6 SWAP4 POP POP POP POP SWAP3 SWAP2 POP POP JUMP JUMPDEST PUSH1 0x0 DUP2 MLOAD SWAP1 POP SWAP2 SWAP1 POP JUMP JUMPDEST PUSH1 0x0 DUP3 DUP3 MSTORE PUSH1 0x20 DUP3 ADD SWAP1 POP SWAP3 SWAP2 POP POP JUMP JUMPDEST PUSH1 0x0 DUP2 SWAP1 POP PUSH1 0x20 DUP3 ADD SWAP1 POP SWAP2 SWAP1 POP JUMP JUMPDEST PUSH2 0x321C DUP2 PUSH2 0x2DA2 JUMP JUMPDEST DUP3 MSTORE POP POP JUMP JUMPDEST PUSH1 0x0 PUSH2 0x322E DUP4 DUP4 PUSH2 0x3213 JUMP JUMPDEST PUSH1 0x20 DUP4 ADD SWAP1 POP SWAP3 SWAP2 POP POP JUMP JUMPDEST PUSH1 0x0 PUSH1 0x20 DUP3 ADD SWAP1 POP SWAP2 SWAP1 POP JUMP JUMPDEST PUSH1 0x0 PUSH2 0x3252 DUP3 PUSH2 0x31E7 JUMP JUMPDEST PUSH2 0x325C DUP2 DUP6 PUSH2 0x31F2 JUMP JUMPDEST SWAP4 POP PUSH2 0x3267 DUP4 PUSH2 0x3203 JUMP JUMPDEST DUP1 PUSH1 0x0 JUMPDEST DUP4 DUP2 LT ISZERO PUSH2 0x3298 JUMPI DUP2 MLOAD PUSH2 0x327F DUP9 DUP3 PUSH2 0x3222 JUMP JUMPDEST SWAP8 POP PUSH2 0x328A DUP4 PUSH2 0x323A JUMP JUMPDEST SWAP3 POP POP PUSH1 0x1 DUP2 ADD SWAP1 POP PUSH2 0x326B JUMP JUMPDEST POP DUP6 SWAP4 POP POP POP POP SWAP3 SWAP2 POP POP JUMP JUMPDEST PUSH1 0x0 PUSH1 0x40 DUP3 ADD SWAP1 POP DUP2 DUP2 SUB PUSH1 0x0 DUP4 ADD MSTORE PUSH2 0x32BF DUP2 DUP6 PUSH2 0x3189 JUMP JUMPDEST SWAP1 POP DUP2 DUP2 SUB PUSH1 0x20 DUP4 ADD MSTORE PUSH2 0x32D3 DUP2 DUP5 PUSH2 0x3247 JUMP JUMPDEST SWAP1 POP SWAP4 SWAP3 POP POP POP JUMP JUMPDEST PUSH2 0x32E5 DUP2 PUSH2 0x2D64 JUMP JUMPDEST DUP3 MSTORE POP POP JUMP JUMPDEST PUSH1 0x0 PUSH1 0x20 DUP3 ADD SWAP1 POP PUSH2 0x3300 PUSH1 0x0 DUP4 ADD DUP5 PUSH2 0x32DC JUMP JUMPDEST SWAP3 SWAP2 POP POP JUMP JUMPDEST PUSH1 0x0 DUP1 REVERT JUMPDEST PUSH1 0x0 PUSH8 0xFFFFFFFFFFFFFFFF DUP3 GT ISZERO PUSH2 0x3326 JUMPI PUSH2 0x3325 PUSH2 0x2E58 JUMP JUMPDEST JUMPDEST PUSH2 0x332F DUP3 PUSH2 0x2E47 JUMP JUMPDEST SWAP1 POP PUSH1 0x20 DUP2 ADD SWAP1 POP SWAP2 SWAP1 POP JUMP JUMPDEST DUP3 DUP2 DUP4 CALLDATACOPY PUSH1 0x0 DUP4 DUP4 ADD MSTORE POP POP POP JUMP JUMPDEST PUSH1 0x0 PUSH2 0x335E PUSH2 0x3359 DUP5 PUSH2 0x330B JUMP JUMPDEST PUSH2 0x2EB8 JUMP JUMPDEST SWAP1 POP DUP3 DUP2 MSTORE PUSH1 0x20 DUP2 ADD DUP5 DUP5 DUP5 ADD GT ISZERO PUSH2 0x337A JUMPI PUSH2 0x3379 PUSH2 0x3306 JUMP JUMPDEST JUMPDEST PUSH2 0x3385 DUP5 DUP3 DUP6 PUSH2 0x333C JUMP JUMPDEST POP SWAP4 SWAP3 POP POP POP JUMP JUMPDEST PUSH1 0x0 DUP3 PUSH1 0x1F DUP4 ADD SLT PUSH2 0x33A2 JUMPI PUSH2 0x33A1 PUSH2 0x2E42 JUMP JUMPDEST JUMPDEST DUP2 CALLDATALOAD PUSH2 0x33B2 DUP5 DUP3 PUSH1 0x20 DUP7 ADD PUSH2 0x334B JUMP JUMPDEST SWAP2 POP POP SWAP3 SWAP2 POP POP JUMP JUMPDEST PUSH1 0x0 PUSH1 0x20 DUP3 DUP5 SUB SLT ISZERO PUSH2 0x33D1 JUMPI PUSH2 0x33D0 PUSH2 0x2D3A JUMP JUMPDEST JUMPDEST PUSH1 0x0 DUP3 ADD CALLDATALOAD PUSH8 0xFFFFFFFFFFFFFFFF DUP2 GT ISZERO PUSH2 0x33EF JUMPI PUSH2 0x33EE PUSH2 0x2D3F JUMP JUMPDEST JUMPDEST PUSH2 0x33FB DUP5 DUP3 DUP6 ADD PUSH2 0x338D JUMP JUMPDEST SWAP2 POP POP SWAP3 SWAP2 POP POP JUMP JUMPDEST PUSH1 0x0 DUP1 PUSH1 0x0 PUSH1 0x60 DUP5 DUP7 SUB SLT ISZERO PUSH2 0x341D JUMPI PUSH2 0x341C PUSH2 0x2D3A JUMP JUMPDEST JUMPDEST PUSH1 0x0 PUSH2 0x342B DUP7 DUP3 DUP8 ADD PUSH2 0x2D8D JUMP JUMPDEST SWAP4 POP POP PUSH1 0x20 PUSH2 0x343C DUP7 DUP3 DUP8 ADD PUSH2 0x2D8D JUMP JUMPDEST SWAP3 POP POP PUSH1 0x40 PUSH2 0x344D DUP7 DUP3 DUP8 ADD PUSH2 0x2DC3 JUMP JUMPDEST SWAP2 POP POP SWAP3 POP SWAP3 POP SWAP3 JUMP JUMPDEST PUSH1 0x0 DUP1 PUSH1 0x40 DUP4 DUP6 SUB SLT ISZERO PUSH2 0x346E JUMPI PUSH2 0x346D PUSH2 0x2D3A JUMP JUMPDEST JUMPDEST PUSH1 0x0 PUSH2 0x347C DUP6 DUP3 DUP7 ADD PUSH2 0x2DC3 JUMP JUMPDEST SWAP3 POP POP PUSH1 0x20 PUSH2 0x348D DUP6 DUP3 DUP7 ADD PUSH2 0x2D8D JUMP JUMPDEST SWAP2 POP POP SWAP3 POP SWAP3 SWAP1 POP JUMP JUMPDEST PUSH1 0x0 DUP1 PUSH1 0x40 DUP4 DUP6 SUB SLT ISZERO PUSH2 0x34AE JUMPI PUSH2 0x34AD PUSH2 0x2D3A JUMP JUMPDEST JUMPDEST PUSH1 0x0 PUSH2 0x34BC DUP6 DUP3 DUP7 ADD PUSH2 0x2D8D JUMP JUMPDEST SWAP3 POP POP PUSH1 0x20 PUSH2 0x34CD DUP6 DUP3 DUP7 ADD PUSH2 0x2D8D JUMP JUMPDEST SWAP2 POP POP SWAP3 POP SWAP3 SWAP1 POP JUMP JUMPDEST PUSH1 0x0 PUSH1 0x20 DUP3 DUP5 SUB SLT ISZERO PUSH2 0x34ED JUMPI PUSH2 0x34EC PUSH2 0x2D3A JUMP JUMPDEST JUMPDEST PUSH1 0x0 PUSH2 0x34FB DUP5 DUP3 DUP6 ADD PUSH2 0x2D8D JUMP JUMPDEST SWAP2 POP POP SWAP3 SWAP2 POP POP JUMP JUMPDEST PUSH1 0x0 DUP3 DUP3 MSTORE PUSH1 0x20 DUP3 ADD SWAP1 POP SWAP3 SWAP2 POP POP JUMP JUMPDEST PUSH32 0x546F6B656E206E6F742072656465656D61626C65000000000000000000000000 PUSH1 0x0 DUP3 ADD MSTORE POP JUMP JUMPDEST PUSH1 0x0 PUSH2 0x354B PUSH1 0x14 DUP4 PUSH2 0x3504 JUMP JUMPDEST SWAP2 POP PUSH2 0x3556 DUP3 PUSH2 0x3515 JUMP JUMPDEST PUSH1 0x20 DUP3 ADD SWAP1 POP SWAP2 SWAP1 POP JUMP JUMPDEST PUSH1 0x0 PUSH1 0x20 DUP3 ADD SWAP1 POP DUP2 DUP2 SUB PUSH1 0x0 DUP4 ADD MSTORE PUSH2 0x357A DUP2 PUSH2 0x353E JUMP JUMPDEST SWAP1 POP SWAP2 SWAP1 POP JUMP JUMPDEST PUSH1 0x0 DUP2 SWAP1 POP SWAP3 SWAP2 POP POP JUMP JUMPDEST PUSH32 0x5743454C4F000000000000000000000000000000000000000000000000000000 PUSH1 0x0 DUP3 ADD MSTORE POP JUMP JUMPDEST PUSH1 0x0 PUSH2 0x35C2 PUSH1 0x5 DUP4 PUSH2 0x3581 JUMP JUMPDEST SWAP2 POP PUSH2 0x35CD DUP3 PUSH2 0x358C JUMP JUMPDEST PUSH1 0x5 DUP3 ADD SWAP1 POP SWAP2 SWAP1 POP JUMP JUMPDEST PUSH1 0x0 PUSH2 0x35E3 DUP3 PUSH2 0x35B5 JUMP JUMPDEST SWAP2 POP DUP2 SWAP1 POP SWAP2 SWAP1 POP JUMP JUMPDEST PUSH32 0x4E487B7100000000000000000000000000000000000000000000000000000000 PUSH1 0x0 MSTORE PUSH1 0x32 PUSH1 0x4 MSTORE PUSH1 0x24 PUSH1 0x0 REVERT JUMPDEST PUSH32 0x417272617920656D707479000000000000000000000000000000000000000000 PUSH1 0x0 DUP3 ADD MSTORE POP JUMP JUMPDEST PUSH1 0x0 PUSH2 0x3652 PUSH1 0xB DUP4 PUSH2 0x3504 JUMP JUMPDEST SWAP2 POP PUSH2 0x365D DUP3 PUSH2 0x361C JUMP JUMPDEST PUSH1 0x20 DUP3 ADD SWAP1 POP SWAP2 SWAP1 POP JUMP JUMPDEST PUSH1 0x0 PUSH1 0x20 DUP3 ADD SWAP1 POP DUP2 DUP2 SUB PUSH1 0x0 DUP4 ADD MSTORE PUSH2 0x3681 DUP2 PUSH2 0x3645 JUMP JUMPDEST SWAP1 POP SWAP2 SWAP1 POP JUMP JUMPDEST PUSH32 0x41727261797320756E657175616C000000000000000000000000000000000000 PUSH1 0x0 DUP3 ADD MSTORE POP JUMP JUMPDEST PUSH1 0x0 PUSH2 0x36BE PUSH1 0xE DUP4 PUSH2 0x3504 JUMP JUMPDEST SWAP2 POP PUSH2 0x36C9 DUP3 PUSH2 0x3688 JUMP JUMPDEST PUSH1 0x20 DUP3 ADD SWAP1 POP SWAP2 SWAP1 POP JUMP JUMPDEST PUSH1 0x0 PUSH1 0x20 DUP3 ADD SWAP1 POP DUP2 DUP2 SUB PUSH1 0x0 DUP4 ADD MSTORE PUSH2 0x36ED DUP2 PUSH2 0x36B1 JUMP JUMPDEST SWAP1 POP SWAP2 SWAP1 POP JUMP JUMPDEST PUSH32 0x496E73756666696369656E742054434F322062616C616E636500000000000000 PUSH1 0x0 DUP3 ADD MSTORE POP JUMP JUMPDEST PUSH1 0x0 PUSH2 0x372A PUSH1 0x19 DUP4 PUSH2 0x3504 JUMP JUMPDEST SWAP2 POP PUSH2 0x3735 DUP3 PUSH2 0x36F4 JUMP JUMPDEST PUSH1 0x20 DUP3 ADD SWAP1 POP SWAP2 SWAP1 POP JUMP JUMPDEST PUSH1 0x0 PUSH1 0x20 DUP3 ADD SWAP1 POP DUP2 DUP2 SUB PUSH1 0x0 DUP4 ADD MSTORE PUSH2 0x3759 DUP2 PUSH2 0x371D JUMP JUMPDEST SWAP1 POP SWAP2 SWAP1 POP JUMP JUMPDEST PUSH32 0x4E487B7100000000000000000000000000000000000000000000000000000000 PUSH1 0x0 MSTORE PUSH1 0x11 PUSH1 0x4 MSTORE PUSH1 0x24 PUSH1 0x0 REVERT JUMPDEST PUSH1 0x0 PUSH2 0x379A DUP3 PUSH2 0x2DA2 JUMP JUMPDEST SWAP2 POP PUSH2 0x37A5 DUP4 PUSH2 0x2DA2 JUMP JUMPDEST SWAP3 POP DUP3 DUP3 SUB SWAP1 POP DUP2 DUP2 GT ISZERO PUSH2 0x37BD JUMPI PUSH2 0x37BC PUSH2 0x3760 JUMP JUMPDEST JUMPDEST SWAP3 SWAP2 POP POP JUMP JUMPDEST PUSH1 0x0 DUP2 PUSH1 0xE0 SHR SWAP1 POP SWAP2 SWAP1 POP JUMP JUMPDEST PUSH1 0x0 PUSH1 0x3 RETURNDATASIZE GT ISZERO PUSH2 0x37EF JUMPI PUSH1 0x4 PUSH1 0x0 DUP1 RETURNDATACOPY PUSH2 0x37EC PUSH1 0x0 MLOAD PUSH2 0x37C3 JUMP JUMPDEST SWAP1 POP JUMPDEST SWAP1 JUMP JUMPDEST PUSH1 0x0 PUSH1 0x44 RETURNDATASIZE LT PUSH2 0x387F JUMPI PUSH2 0x3804 PUSH2 0x2D30 JUMP JUMPDEST PUSH1 0x4 RETURNDATASIZE SUB PUSH1 0x4 DUP3 RETURNDATACOPY DUP1 MLOAD RETURNDATASIZE PUSH1 0x24 DUP3 ADD GT PUSH8 0xFFFFFFFFFFFFFFFF DUP3 GT OR ISZERO PUSH2 0x382C JUMPI POP POP PUSH2 0x387F JUMP JUMPDEST DUP1 DUP3 ADD DUP1 MLOAD PUSH8 0xFFFFFFFFFFFFFFFF DUP2 GT ISZERO PUSH2 0x384A JUMPI POP POP POP POP PUSH2 0x387F JUMP JUMPDEST DUP1 PUSH1 0x20 DUP4 ADD ADD PUSH1 0x4 RETURNDATASIZE SUB DUP6 ADD DUP2 GT ISZERO PUSH2 0x3867 JUMPI POP POP POP POP POP PUSH2 0x387F JUMP JUMPDEST PUSH2 0x3876 DUP3 PUSH1 0x20 ADD DUP6 ADD DUP7 PUSH2 0x2E87 JUMP JUMPDEST DUP3 SWAP6 POP POP POP POP POP POP JUMPDEST SWAP1 JUMP JUMPDEST PUSH1 0x0 DUP2 MLOAD SWAP1 POP SWAP2 SWAP1 POP JUMP JUMPDEST PUSH1 0x0 JUMPDEST DUP4 DUP2 LT ISZERO PUSH2 0x38AB JUMPI DUP1 DUP3 ADD MLOAD DUP2 DUP5 ADD MSTORE PUSH1 0x20 DUP2 ADD SWAP1 POP PUSH2 0x3890 JUMP JUMPDEST PUSH1 0x0 DUP5 DUP5 ADD MSTORE POP POP POP POP JUMP JUMPDEST PUSH1 0x0 PUSH2 0x38C2 DUP3 PUSH2 0x3882 JUMP JUMPDEST PUSH2 0x38CC DUP2 DUP6 PUSH2 0x3504 JUMP JUMPDEST SWAP4 POP PUSH2 0x38DC DUP2 DUP6 PUSH1 0x20 DUP7 ADD PUSH2 0x388D JUMP JUMPDEST PUSH2 0x38E5 DUP2 PUSH2 0x2E47 JUMP JUMPDEST DUP5 ADD SWAP2 POP POP SWAP3 SWAP2 POP POP JUMP JUMPDEST PUSH1 0x0 PUSH1 0x20 DUP3 ADD SWAP1 POP DUP2 DUP2 SUB PUSH1 0x0 DUP4 ADD MSTORE PUSH2 0x390A DUP2 DUP5 PUSH2 0x38B7 JUMP JUMPDEST SWAP1 POP SWAP3 SWAP2 POP POP JUMP JUMPDEST PUSH1 0x0 DUP2 MLOAD SWAP1 POP SWAP2 SWAP1 POP JUMP JUMPDEST PUSH1 0x0 DUP3 DUP3 MSTORE PUSH1 0x20 DUP3 ADD SWAP1 POP SWAP3 SWAP2 POP POP JUMP JUMPDEST PUSH1 0x0 PUSH2 0x3939 DUP3 PUSH2 0x3912 JUMP JUMPDEST PUSH2 0x3943 DUP2 DUP6 PUSH2 0x391D JUMP JUMPDEST SWAP4 POP PUSH2 0x3953 DUP2 DUP6 PUSH1 0x20 DUP7 ADD PUSH2 0x388D JUMP JUMPDEST PUSH2 0x395C DUP2 PUSH2 0x2E47 JUMP JUMPDEST DUP5 ADD SWAP2 POP POP SWAP3 SWAP2 POP POP JUMP JUMPDEST PUSH1 0x0 PUSH1 0x20 DUP3 ADD SWAP1 POP DUP2 DUP2 SUB PUSH1 0x0 DUP4 ADD MSTORE PUSH2 0x3981 DUP2 DUP5 PUSH2 0x392E JUMP JUMPDEST SWAP1 POP SWAP3 SWAP2 POP POP JUMP JUMPDEST PUSH32 0x726574697265642074636F3220776974682063686565736563616B652E206E69 PUSH1 0x0 DUP3 ADD MSTORE PUSH32 0x6365210000000000000000000000000000000000000000000000000000000000 PUSH1 0x20 DUP3 ADD MSTORE POP JUMP JUMPDEST PUSH1 0x0 PUSH2 0x39E5 PUSH1 0x23 DUP4 PUSH2 0x3504 JUMP JUMPDEST SWAP2 POP PUSH2 0x39F0 DUP3 PUSH2 0x3989 JUMP JUMPDEST PUSH1 0x40 DUP3 ADD SWAP1 POP SWAP2 SWAP1 POP JUMP JUMPDEST PUSH1 0x0 PUSH1 0x20 DUP3 ADD SWAP1 POP DUP2 DUP2 SUB PUSH1 0x0 DUP4 ADD MSTORE PUSH2 0x3A14 DUP2 PUSH2 0x39D8 JUMP JUMPDEST SWAP1 POP SWAP2 SWAP1 POP JUMP JUMPDEST PUSH1 0x0 PUSH2 0x3A26 DUP3 PUSH2 0x2DA2 JUMP JUMPDEST SWAP2 POP PUSH2 0x3A31 DUP4 PUSH2 0x2DA2 JUMP JUMPDEST SWAP3 POP DUP3 DUP3 ADD SWAP1 POP DUP1 DUP3 GT ISZERO PUSH2 0x3A49 JUMPI PUSH2 0x3A48 PUSH2 0x3760 JUMP JUMPDEST JUMPDEST SWAP3 SWAP2 POP POP JUMP JUMPDEST PUSH1 0x0 PUSH1 0x80 DUP3 ADD SWAP1 POP PUSH2 0x3A64 PUSH1 0x0 DUP4 ADD DUP8 PUSH2 0x2E18 JUMP JUMPDEST DUP2 DUP2 SUB PUSH1 0x20 DUP4 ADD MSTORE PUSH2 0x3A76 DUP2 DUP7 PUSH2 0x3189 JUMP JUMPDEST SWAP1 POP PUSH2 0x3A85 PUSH1 0x40 DUP4 ADD DUP6 PUSH2 0x32DC JUMP JUMPDEST PUSH2 0x3A92 PUSH1 0x60 DUP4 ADD DUP5 PUSH2 0x2E18 JUMP JUMPDEST SWAP6 SWAP5 POP POP POP POP POP JUMP JUMPDEST PUSH1 0x0 DUP2 MLOAD SWAP1 POP PUSH2 0x3AAA DUP2 PUSH2 0x2DAC JUMP JUMPDEST SWAP3 SWAP2 POP POP JUMP JUMPDEST PUSH1 0x0 PUSH2 0x3AC3 PUSH2 0x3ABE DUP5 PUSH2 0x2F9B JUMP JUMPDEST PUSH2 0x2EB8 JUMP JUMPDEST SWAP1 POP DUP1 DUP4 DUP3 MSTORE PUSH1 0x20 DUP3 ADD SWAP1 POP PUSH1 0x20 DUP5 MUL DUP4 ADD DUP6 DUP2 GT ISZERO PUSH2 0x3AE6 JUMPI PUSH2 0x3AE5 PUSH2 0x2EFF JUMP JUMPDEST JUMPDEST DUP4 JUMPDEST DUP2 DUP2 LT ISZERO PUSH2 0x3B0F JUMPI DUP1 PUSH2 0x3AFB DUP9 DUP3 PUSH2 0x3A9B JUMP JUMPDEST DUP5 MSTORE PUSH1 0x20 DUP5 ADD SWAP4 POP POP PUSH1 0x20 DUP2 ADD SWAP1 POP PUSH2 0x3AE8 JUMP JUMPDEST POP POP POP SWAP4 SWAP3 POP POP POP JUMP JUMPDEST PUSH1 0x0 DUP3 PUSH1 0x1F DUP4 ADD SLT PUSH2 0x3B2E JUMPI PUSH2 0x3B2D PUSH2 0x2E42 JUMP JUMPDEST JUMPDEST DUP2 MLOAD PUSH2 0x3B3E DUP5 DUP3 PUSH1 0x20 DUP7 ADD PUSH2 0x3AB0 JUMP JUMPDEST SWAP2 POP POP SWAP3 SWAP2 POP POP JUMP JUMPDEST PUSH1 0x0 PUSH1 0x20 DUP3 DUP5 SUB SLT ISZERO PUSH2 0x3B5D JUMPI PUSH2 0x3B5C PUSH2 0x2D3A JUMP JUMPDEST JUMPDEST PUSH1 0x0 DUP3 ADD MLOAD PUSH8 0xFFFFFFFFFFFFFFFF DUP2 GT ISZERO PUSH2 0x3B7B JUMPI PUSH2 0x3B7A PUSH2 0x2D3F JUMP JUMPDEST JUMPDEST PUSH2 0x3B87 DUP5 DUP3 DUP6 ADD PUSH2 0x3B19 JUMP JUMPDEST SWAP2 POP POP SWAP3 SWAP2 POP POP JUMP JUMPDEST PUSH1 0x0 DUP2 SWAP1 POP SWAP3 SWAP2 POP POP JUMP JUMPDEST PUSH1 0x0 PUSH2 0x3BA6 DUP3 PUSH2 0x3912 JUMP JUMPDEST PUSH2 0x3BB0 DUP2 DUP6 PUSH2 0x3B90 JUMP JUMPDEST SWAP4 POP PUSH2 0x3BC0 DUP2 DUP6 PUSH1 0x20 DUP7 ADD PUSH2 0x388D JUMP JUMPDEST DUP1 DUP5 ADD SWAP2 POP POP SWAP3 SWAP2 POP POP JUMP JUMPDEST PUSH1 0x0 PUSH2 0x3BD8 DUP3 DUP5 PUSH2 0x3B9B JUMP JUMPDEST SWAP2 POP DUP2 SWAP1 POP SWAP3 SWAP2 POP POP JUMP JUMPDEST PUSH32 0x4661696C656420746F2073656E6420737572706C7573206261636B0000000000 PUSH1 0x0 DUP3 ADD MSTORE POP JUMP JUMPDEST PUSH1 0x0 PUSH2 0x3C19 PUSH1 0x1B DUP4 PUSH2 0x3504 JUMP JUMPDEST SWAP2 POP PUSH2 0x3C24 DUP3 PUSH2 0x3BE3 JUMP JUMPDEST PUSH1 0x20 DUP3 ADD SWAP1 POP SWAP2 SWAP1 POP JUMP JUMPDEST PUSH1 0x0 PUSH1 0x20 DUP3 ADD SWAP1 POP DUP2 DUP2 SUB PUSH1 0x0 DUP4 ADD MSTORE PUSH2 0x3C48 DUP2 PUSH2 0x3C0C JUMP JUMPDEST SWAP1 POP SWAP2 SWAP1 POP JUMP JUMPDEST PUSH32 0x496E73756666696369656E74204E43542F4243542062616C616E636500000000 PUSH1 0x0 DUP3 ADD MSTORE POP JUMP JUMPDEST PUSH1 0x0 PUSH2 0x3C85 PUSH1 0x1C DUP4 PUSH2 0x3504 JUMP JUMPDEST SWAP2 POP PUSH2 0x3C90 DUP3 PUSH2 0x3C4F JUMP JUMPDEST PUSH1 0x20 DUP3 ADD SWAP1 POP SWAP2 SWAP1 POP JUMP JUMPDEST PUSH1 0x0 PUSH1 0x20 DUP3 ADD SWAP1 POP DUP2 DUP2 SUB PUSH1 0x0 DUP4 ADD MSTORE PUSH2 0x3CB4 DUP2 PUSH2 0x3C78 JUMP JUMPDEST SWAP1 POP SWAP2 SWAP1 POP JUMP JUMPDEST PUSH1 0x0 DUP2 MLOAD SWAP1 POP PUSH2 0x3CCA DUP2 PUSH2 0x2D76 JUMP JUMPDEST SWAP3 SWAP2 POP POP JUMP JUMPDEST PUSH1 0x0 PUSH2 0x3CE3 PUSH2 0x3CDE DUP5 PUSH2 0x2ED3 JUMP JUMPDEST PUSH2 0x2EB8 JUMP JUMPDEST SWAP1 POP DUP1 DUP4 DUP3 MSTORE PUSH1 0x20 DUP3 ADD SWAP1 POP PUSH1 0x20 DUP5 MUL DUP4 ADD DUP6 DUP2 GT ISZERO PUSH2 0x3D06 JUMPI PUSH2 0x3D05 PUSH2 0x2EFF JUMP JUMPDEST JUMPDEST DUP4 JUMPDEST DUP2 DUP2 LT ISZERO PUSH2 0x3D2F JUMPI DUP1 PUSH2 0x3D1B DUP9 DUP3 PUSH2 0x3CBB JUMP JUMPDEST DUP5 MSTORE PUSH1 0x20 DUP5 ADD SWAP4 POP POP PUSH1 0x20 DUP2 ADD SWAP1 POP PUSH2 0x3D08 JUMP JUMPDEST POP POP POP SWAP4 SWAP3 POP POP POP JUMP JUMPDEST PUSH1 0x0 DUP3 PUSH1 0x1F DUP4 ADD SLT PUSH2 0x3D4E JUMPI PUSH2 0x3D4D PUSH2 0x2E42 JUMP JUMPDEST JUMPDEST DUP2 MLOAD PUSH2 0x3D5E DUP5 DUP3 PUSH1 0x20 DUP7 ADD PUSH2 0x3CD0 JUMP JUMPDEST SWAP2 POP POP SWAP3 SWAP2 POP POP JUMP JUMPDEST PUSH1 0x0 DUP1 PUSH1 0x40 DUP4 DUP6 SUB SLT ISZERO PUSH2 0x3D7E JUMPI PUSH2 0x3D7D PUSH2 0x2D3A JUMP JUMPDEST JUMPDEST PUSH1 0x0 DUP4 ADD MLOAD PUSH8 0xFFFFFFFFFFFFFFFF DUP2 GT ISZERO PUSH2 0x3D9C JUMPI PUSH2 0x3D9B PUSH2 0x2D3F JUMP JUMPDEST JUMPDEST PUSH2 0x3DA8 DUP6 DUP3 DUP7 ADD PUSH2 0x3D39 JUMP JUMPDEST SWAP3 POP POP PUSH1 0x20 DUP4 ADD MLOAD PUSH8 0xFFFFFFFFFFFFFFFF DUP2 GT ISZERO PUSH2 0x3DC9 JUMPI PUSH2 0x3DC8 PUSH2 0x2D3F JUMP JUMPDEST JUMPDEST PUSH2 0x3DD5 DUP6 DUP3 DUP7 ADD PUSH2 0x3B19 JUMP JUMPDEST SWAP2 POP POP SWAP3 POP SWAP3 SWAP1 POP JUMP JUMPDEST PUSH1 0x0 PUSH2 0x3DEA DUP3 PUSH2 0x2DA2 JUMP JUMPDEST SWAP2 POP PUSH32 0xFFFFFFFFFFFFFFFFFFFFFFFFFFFFFFFFFFFFFFFFFFFFFFFFFFFFFFFFFFFFFFFF DUP3 SUB PUSH2 0x3E1C JUMPI PUSH2 0x3E1B PUSH2 0x3760 JUMP JUMPDEST JUMPDEST PUSH1 0x1 DUP3 ADD SWAP1 POP SWAP2 SWAP1 POP JUMP JUMPDEST PUSH1 0x0 PUSH1 0x80 DUP3 ADD SWAP1 POP PUSH2 0x3E3C PUSH1 0x0 DUP4 ADD DUP8 PUSH2 0x32DC JUMP JUMPDEST PUSH2 0x3E49 PUSH1 0x20 DUP4 ADD DUP7 PUSH2 0x32DC JUMP JUMPDEST DUP2 DUP2 SUB PUSH1 0x40 DUP4 ADD MSTORE PUSH2 0x3E5B DUP2 DUP6 PUSH2 0x3189 JUMP JUMPDEST SWAP1 POP DUP2 DUP2 SUB PUSH1 0x60 DUP4 ADD MSTORE PUSH2 0x3E6F DUP2 DUP5 PUSH2 0x3247 JUMP JUMPDEST SWAP1 POP SWAP6 SWAP5 POP POP POP POP POP JUMP JUMPDEST PUSH32 0x546F6B656E206E6F7420737761707061626C6500000000000000000000000000 PUSH1 0x0 DUP3 ADD MSTORE POP JUMP JUMPDEST PUSH1 0x0 PUSH2 0x3EB0 PUSH1 0x13 DUP4 PUSH2 0x3504 JUMP JUMPDEST SWAP2 POP PUSH2 0x3EBB DUP3 PUSH2 0x3E7A JUMP JUMPDEST PUSH1 0x20 DUP3 ADD SWAP1 POP SWAP2 SWAP1 POP JUMP JUMPDEST PUSH1 0x0 PUSH1 0x20 DUP3 ADD SWAP1 POP DUP2 DUP2 SUB PUSH1 0x0 DUP4 ADD MSTORE PUSH2 0x3EDF DUP2 PUSH2 0x3EA3 JUMP JUMPDEST SWAP1 POP SWAP2 SWAP1 POP JUMP JUMPDEST PUSH1 0x0 PUSH1 0x40 DUP3 ADD SWAP1 POP PUSH2 0x3EFB PUSH1 0x0 DUP4 ADD DUP6 PUSH2 0x32DC JUMP JUMPDEST PUSH2 0x3F08 PUSH1 0x20 DUP4 ADD DUP5 PUSH2 0x2E18 JUMP JUMPDEST SWAP4 SWAP3 POP POP POP JUMP JUMPDEST PUSH1 0x0 DUP2 ISZERO ISZERO SWAP1 POP SWAP2 SWAP1 POP JUMP JUMPDEST PUSH2 0x3F24 DUP2 PUSH2 0x3F0F JUMP JUMPDEST DUP2 EQ PUSH2 0x3F2F JUMPI PUSH1 0x0 DUP1 REVERT JUMPDEST POP JUMP JUMPDEST PUSH1 0x0 DUP2 MLOAD SWAP1 POP PUSH2 0x3F41 DUP2 PUSH2 0x3F1B JUMP JUMPDEST SWAP3 SWAP2 POP POP JUMP JUMPDEST PUSH1 0x0 PUSH1 0x20 DUP3 DUP5 SUB SLT ISZERO PUSH2 0x3F5D JUMPI PUSH2 0x3F5C PUSH2 0x2D3A JUMP JUMPDEST JUMPDEST PUSH1 0x0 PUSH2 0x3F6B DUP5 DUP3 DUP6 ADD PUSH2 0x3F32 JUMP JUMPDEST SWAP2 POP POP SWAP3 SWAP2 POP POP JUMP JUMPDEST PUSH1 0x0 PUSH1 0xA0 DUP3 ADD SWAP1 POP PUSH2 0x3F89 PUSH1 0x0 DUP4 ADD DUP9 PUSH2 0x2E18 JUMP JUMPDEST PUSH2 0x3F96 PUSH1 0x20 DUP4 ADD DUP8 PUSH2 0x2E18 JUMP JUMPDEST DUP2 DUP2 SUB PUSH1 0x40 DUP4 ADD MSTORE PUSH2 0x3FA8 DUP2 DUP7 PUSH2 0x3189 JUMP JUMPDEST SWAP1 POP PUSH2 0x3FB7 PUSH1 0x60 DUP4 ADD DUP6 PUSH2 0x32DC JUMP JUMPDEST PUSH2 0x3FC4 PUSH1 0x80 DUP4 ADD DUP5 PUSH2 0x2E18 JUMP JUMPDEST SWAP7 SWAP6 POP POP POP POP POP POP JUMP JUMPDEST PUSH1 0x0 DUP2 SWAP1 POP SWAP2 SWAP1 POP JUMP JUMPDEST PUSH1 0x0 DUP2 SWAP1 POP SWAP2 SWAP1 POP JUMP JUMPDEST PUSH1 0x0 PUSH2 0x3FFD PUSH2 0x3FF8 PUSH2 0x3FF3 DUP5 PUSH2 0x3FCE JUMP JUMPDEST PUSH2 0x3FD8 JUMP JUMPDEST PUSH2 0x2DA2 JUMP JUMPDEST SWAP1 POP SWAP2 SWAP1 POP JUMP JUMPDEST PUSH2 0x400D DUP2 PUSH2 0x3FE2 JUMP JUMPDEST DUP3 MSTORE POP POP JUMP JUMPDEST PUSH1 0x0 PUSH1 0x40 DUP3 ADD SWAP1 POP PUSH2 0x4028 PUSH1 0x0 DUP4 ADD DUP6 PUSH2 0x32DC JUMP JUMPDEST PUSH2 0x4035 PUSH1 0x20 DUP4 ADD DUP5 PUSH2 0x4004 JUMP JUMPDEST SWAP4 SWAP3 POP POP POP JUMP JUMPDEST PUSH1 0x0 PUSH1 0xA0 DUP3 ADD SWAP1 POP PUSH2 0x4051 PUSH1 0x0 DUP4 ADD DUP9 PUSH2 0x2E18 JUMP JUMPDEST PUSH2 0x405E PUSH1 0x20 DUP4 ADD DUP8 PUSH2 0x4004 JUMP JUMPDEST DUP2 DUP2 SUB PUSH1 0x40 DUP4 ADD MSTORE PUSH2 0x4070 DUP2 DUP7 PUSH2 0x3189 JUMP JUMPDEST SWAP1 POP PUSH2 0x407F PUSH1 0x60 DUP4 ADD DUP6 PUSH2 0x32DC JUMP JUMPDEST PUSH2 0x408C PUSH1 0x80 DUP4 ADD DUP5 PUSH2 0x2E18 JUMP JUMPDEST SWAP7 SWAP6 POP POP POP POP POP POP JUMP JUMPDEST PUSH1 0x0 PUSH1 0x80 DUP3 ADD SWAP1 POP PUSH2 0x40AB PUSH1 0x0 DUP4 ADD DUP8 PUSH2 0x4004 JUMP JUMPDEST DUP2 DUP2 SUB PUSH1 0x20 DUP4 ADD MSTORE PUSH2 0x40BD DUP2 DUP7 PUSH2 0x3189 JUMP JUMPDEST SWAP1 POP PUSH2 0x40CC PUSH1 0x40 DUP4 ADD DUP6 PUSH2 0x32DC JUMP JUMPDEST PUSH2 0x40D9 PUSH1 0x60 DUP4 ADD DUP5 PUSH2 0x2E18 JUMP JUMPDEST SWAP6 SWAP5 POP POP POP POP POP JUMP JUMPDEST PUSH32 0x4F776E61626C653A206E6577206F776E657220697320746865207A65726F2061 PUSH1 0x0 DUP3 ADD MSTORE PUSH32 0x6464726573730000000000000000000000000000000000000000000000000000 PUSH1 0x20 DUP3 ADD MSTORE POP JUMP JUMPDEST PUSH1 0x0 PUSH2 0x413E PUSH1 0x26 DUP4 PUSH2 0x3504 JUMP JUMPDEST SWAP2 POP PUSH2 0x4149 DUP3 PUSH2 0x40E2 JUMP JUMPDEST PUSH1 0x40 DUP3 ADD SWAP1 POP SWAP2 SWAP1 POP JUMP JUMPDEST PUSH1 0x0 PUSH1 0x20 DUP3 ADD SWAP1 POP DUP2 DUP2 SUB PUSH1 0x0 DUP4 ADD MSTORE PUSH2 0x416D DUP2 PUSH2 0x4131 JUMP JUMPDEST SWAP1 POP SWAP2 SWAP1 POP JUMP JUMPDEST PUSH32 0x496E73756666696369656E742062616C616E6365000000000000000000000000 PUSH1 0x0 DUP3 ADD MSTORE POP JUMP JUMPDEST PUSH1 0x0 PUSH2 0x41AA PUSH1 0x14 DUP4 PUSH2 0x3504 JUMP JUMPDEST SWAP2 POP PUSH2 0x41B5 DUP3 PUSH2 0x4174 JUMP JUMPDEST PUSH1 0x20 DUP3 ADD SWAP1 POP SWAP2 SWAP1 POP JUMP JUMPDEST PUSH1 0x0 PUSH1 0x20 DUP3 ADD SWAP1 POP DUP2 DUP2 SUB PUSH1 0x0 DUP4 ADD MSTORE PUSH2 0x41D9 DUP2 PUSH2 0x419D JUMP JUMPDEST SWAP1 POP SWAP2 SWAP1 POP JUMP JUMPDEST PUSH32 0x4243540000000000000000000000000000000000000000000000000000000000 PUSH1 0x0 DUP3 ADD MSTORE POP JUMP JUMPDEST PUSH1 0x0 PUSH2 0x4216 PUSH1 0x3 DUP4 PUSH2 0x3581 JUMP JUMPDEST SWAP2 POP PUSH2 0x4221 DUP3 PUSH2 0x41E0 JUMP JUMPDEST PUSH1 0x3 DUP3 ADD SWAP1 POP SWAP2 SWAP1 POP JUMP JUMPDEST PUSH1 0x0 PUSH2 0x4237 DUP3 PUSH2 0x4209 JUMP JUMPDEST SWAP2 POP DUP2 SWAP1 POP SWAP2 SWAP1 POP JUMP JUMPDEST PUSH32 0x4E43540000000000000000000000000000000000000000000000000000000000 PUSH1 0x0 DUP3 ADD MSTORE POP JUMP JUMPDEST PUSH1 0x0 PUSH2 0x4277 PUSH1 0x3 DUP4 PUSH2 0x3581 JUMP JUMPDEST SWAP2 POP PUSH2 0x4282 DUP3 PUSH2 0x4241 JUMP JUMPDEST PUSH1 0x3 DUP3 ADD SWAP1 POP SWAP2 SWAP1 POP JUMP JUMPDEST PUSH1 0x0 PUSH2 0x4298 DUP3 PUSH2 0x426A JUMP JUMPDEST SWAP2 POP DUP2 SWAP1 POP SWAP2 SWAP1 POP JUMP JUMPDEST PUSH1 0x0 PUSH1 0x40 DUP3 ADD SWAP1 POP PUSH2 0x42B7 PUSH1 0x0 DUP4 ADD DUP6 PUSH2 0x2E18 JUMP JUMPDEST DUP2 DUP2 SUB PUSH1 0x20 DUP4 ADD MSTORE PUSH2 0x42C9 DUP2 DUP5 PUSH2 0x3189 JUMP JUMPDEST SWAP1 POP SWAP4 SWAP3 POP POP POP JUMP JUMPDEST PUSH32 0x4F757470757420616D6F756E74206D69736D6174636800000000000000000000 PUSH1 0x0 DUP3 ADD MSTORE POP JUMP JUMPDEST PUSH1 0x0 PUSH2 0x4308 PUSH1 0x16 DUP4 PUSH2 0x3504 JUMP JUMPDEST SWAP2 POP PUSH2 0x4313 DUP3 PUSH2 0x42D2 JUMP JUMPDEST PUSH1 0x20 DUP3 ADD SWAP1 POP SWAP2 SWAP1 POP JUMP JUMPDEST PUSH1 0x0 PUSH1 0x20 DUP3 ADD SWAP1 POP DUP2 DUP2 SUB PUSH1 0x0 DUP4 ADD MSTORE PUSH2 0x4337 DUP2 PUSH2 0x42FB JUMP JUMPDEST SWAP1 POP SWAP2 SWAP1 POP JUMP JUMPDEST PUSH1 0x0 PUSH1 0x60 DUP3 ADD SWAP1 POP PUSH2 0x4353 PUSH1 0x0 DUP4 ADD DUP7 PUSH2 0x32DC JUMP JUMPDEST PUSH2 0x4360 PUSH1 0x20 DUP4 ADD DUP6 PUSH2 0x32DC JUMP JUMPDEST PUSH2 0x436D PUSH1 0x40 DUP4 ADD DUP5 PUSH2 0x2E18 JUMP JUMPDEST SWAP5 SWAP4 POP POP POP POP JUMP JUMPDEST PUSH32 0x6368555344000000000000000000000000000000000000000000000000000000 PUSH1 0x0 DUP3 ADD MSTORE POP JUMP JUMPDEST PUSH1 0x0 PUSH2 0x43AB PUSH1 0x5 DUP4 PUSH2 0x3581 JUMP JUMPDEST SWAP2 POP PUSH2 0x43B6 DUP3 PUSH2 0x4375 JUMP JUMPDEST PUSH1 0x5 DUP3 ADD SWAP1 POP SWAP2 SWAP1 POP JUMP JUMPDEST PUSH1 0x0 PUSH2 0x43CC DUP3 PUSH2 0x439E JUMP JUMPDEST SWAP2 POP DUP2 SWAP1 POP SWAP2 SWAP1 POP JUMP JUMPDEST PUSH32 0x4F776E61626C653A2063616C6C6572206973206E6F7420746865206F776E6572 PUSH1 0x0 DUP3 ADD MSTORE POP JUMP JUMPDEST PUSH1 0x0 PUSH2 0x440C PUSH1 0x20 DUP4 PUSH2 0x3504 JUMP JUMPDEST SWAP2 POP PUSH2 0x4417 DUP3 PUSH2 0x43D6 JUMP JUMPDEST PUSH1 0x20 DUP3 ADD SWAP1 POP SWAP2 SWAP1 POP JUMP JUMPDEST PUSH1 0x0 PUSH1 0x20 DUP3 ADD SWAP1 POP DUP2 DUP2 SUB PUSH1 0x0 DUP4 ADD MSTORE PUSH2 0x443B DUP2 PUSH2 0x43FF JUMP JUMPDEST SWAP1 POP SWAP2 SWAP1 POP JUMP JUMPDEST PUSH32 0x6368434F32000000000000000000000000000000000000000000000000000000 PUSH1 0x0 DUP3 ADD MSTORE POP JUMP JUMPDEST PUSH1 0x0 PUSH2 0x4478 PUSH1 0x5 DUP4 PUSH2 0x3581 JUMP JUMPDEST SWAP2 POP PUSH2 0x4483 DUP3 PUSH2 0x4442 JUMP JUMPDEST PUSH1 0x5 DUP3 ADD SWAP1 POP SWAP2 SWAP1 POP JUMP JUMPDEST PUSH1 0x0 PUSH2 0x4499 DUP3 PUSH2 0x446B JUMP JUMPDEST SWAP2 POP DUP2 SWAP1 POP SWAP2 SWAP1 POP JUMP JUMPDEST PUSH32 0x43454C4F00000000000000000000000000000000000000000000000000000000 PUSH1 0x0 DUP3 ADD MSTORE POP JUMP JUMPDEST PUSH1 0x0 PUSH2 0x44D9 PUSH1 0x4 DUP4 PUSH2 0x3581 JUMP JUMPDEST SWAP2 POP PUSH2 0x44E4 DUP3 PUSH2 0x44A3 JUMP JUMPDEST PUSH1 0x4 DUP3 ADD SWAP1 POP SWAP2 SWAP1 POP JUMP JUMPDEST PUSH1 0x0 PUSH2 0x44FA DUP3 PUSH2 0x44CC JUMP JUMPDEST SWAP2 POP DUP2 SWAP1 POP SWAP2 SWAP1 POP JUMP JUMPDEST PUSH1 0x0 PUSH1 0x40 DUP3 ADD SWAP1 POP PUSH2 0x4519 PUSH1 0x0 DUP4 ADD DUP6 PUSH2 0x32DC JUMP JUMPDEST PUSH2 0x4526 PUSH1 0x20 DUP4 ADD DUP5 PUSH2 0x32DC JUMP JUMPDEST SWAP4 SWAP3 POP POP POP JUMP JUMPDEST PUSH1 0x0 PUSH1 0x20 DUP3 DUP5 SUB SLT ISZERO PUSH2 0x4543 JUMPI PUSH2 0x4542 PUSH2 0x2D3A JUMP JUMPDEST JUMPDEST PUSH1 0x0 PUSH2 0x4551 DUP5 DUP3 DUP6 ADD PUSH2 0x3A9B JUMP JUMPDEST SWAP2 POP POP SWAP3 SWAP2 POP POP JUMP JUMPDEST PUSH32 0x5361666545524332303A20617070726F76652066726F6D206E6F6E2D7A65726F PUSH1 0x0 DUP3 ADD MSTORE PUSH32 0x20746F206E6F6E2D7A65726F20616C6C6F77616E636500000000000000000000 PUSH1 0x20 DUP3 ADD MSTORE POP JUMP JUMPDEST PUSH1 0x0 PUSH2 0x45B6 PUSH1 0x36 DUP4 PUSH2 0x3504 JUMP JUMPDEST SWAP2 POP PUSH2 0x45C1 DUP3 PUSH2 0x455A JUMP JUMPDEST PUSH1 0x40 DUP3 ADD SWAP1 POP SWAP2 SWAP1 POP JUMP JUMPDEST PUSH1 0x0 PUSH1 0x20 DUP3 ADD SWAP1 POP DUP2 DUP2 SUB PUSH1 0x0 DUP4 ADD MSTORE PUSH2 0x45E5 DUP2 PUSH2 0x45A9 JUMP JUMPDEST SWAP1 POP SWAP2 SWAP1 POP JUMP JUMPDEST PUSH32 0x496E70757420616D6F756E74206D69736D617463680000000000000000000000 PUSH1 0x0 DUP3 ADD MSTORE POP JUMP JUMPDEST PUSH1 0x0 PUSH2 0x4622 PUSH1 0x15 DUP4 PUSH2 0x3504 JUMP JUMPDEST SWAP2 POP PUSH2 0x462D DUP3 PUSH2 0x45EC JUMP JUMPDEST PUSH1 0x20 DUP3 ADD SWAP1 POP SWAP2 SWAP1 POP JUMP JUMPDEST PUSH1 0x0 PUSH1 0x20 DUP3 ADD SWAP1 POP DUP2 DUP2 SUB PUSH1 0x0 DUP4 ADD MSTORE PUSH2 0x4651 DUP2 PUSH2 0x4615 JUMP JUMPDEST SWAP1 POP SWAP2 SWAP1 POP JUMP JUMPDEST PUSH32 0x5361666545524332303A204552433230206F7065726174696F6E20646964206E PUSH1 0x0 DUP3 ADD MSTORE PUSH32 0x6F74207375636365656400000000000000000000000000000000000000000000 PUSH1 0x20 DUP3 ADD MSTORE POP JUMP JUMPDEST PUSH1 0x0 PUSH2 0x46B4 PUSH1 0x2A DUP4 PUSH2 0x3504 JUMP JUMPDEST SWAP2 POP PUSH2 0x46BF DUP3 PUSH2 0x4658 JUMP JUMPDEST PUSH1 0x40 DUP3 ADD SWAP1 POP SWAP2 SWAP1 POP JUMP JUMPDEST PUSH1 0x0 PUSH1 0x20 DUP3 ADD SWAP1 POP DUP2 DUP2 SUB PUSH1 0x0 DUP4 ADD MSTORE PUSH2 0x46E3 DUP2 PUSH2 0x46A7 JUMP JUMPDEST SWAP1 POP SWAP2 SWAP1 POP JUMP JUMPDEST PUSH32 0x416464726573733A20696E73756666696369656E742062616C616E636520666F PUSH1 0x0 DUP3 ADD MSTORE PUSH32 0x722063616C6C0000000000000000000000000000000000000000000000000000 PUSH1 0x20 DUP3 ADD MSTORE POP JUMP JUMPDEST PUSH1 0x0 PUSH2 0x4746 PUSH1 0x26 DUP4 PUSH2 0x3504 JUMP JUMPDEST SWAP2 POP PUSH2 0x4751 DUP3 PUSH2 0x46EA JUMP JUMPDEST PUSH1 0x40 DUP3 ADD SWAP1 POP SWAP2 SWAP1 POP JUMP JUMPDEST PUSH1 0x0 PUSH1 0x20 DUP3 ADD SWAP1 POP DUP2 DUP2 SUB PUSH1 0x0 DUP4 ADD MSTORE PUSH2 0x4775 DUP2 PUSH2 0x4739 JUMP JUMPDEST SWAP1 POP SWAP2 SWAP1 POP JUMP JUMPDEST PUSH32 0x416464726573733A2063616C6C20746F206E6F6E2D636F6E7472616374000000 PUSH1 0x0 DUP3 ADD MSTORE POP JUMP JUMPDEST PUSH1 0x0 PUSH2 0x47B2 PUSH1 0x1D DUP4 PUSH2 0x3504 JUMP JUMPDEST SWAP2 POP PUSH2 0x47BD DUP3 PUSH2 0x477C JUMP JUMPDEST PUSH1 0x20 DUP3 ADD SWAP1 POP SWAP2 SWAP1 POP JUMP JUMPDEST PUSH1 0x0 PUSH1 0x20 DUP3 ADD SWAP1 POP DUP2 DUP2 SUB PUSH1 0x0 DUP4 ADD MSTORE PUSH2 0x47E1 DUP2 PUSH2 0x47A5 JUMP JUMPDEST SWAP1 POP SWAP2 SWAP1 POP JUMP INVALID LOG2 PUSH5 0x6970667358 0x22 SLT KECCAK256 CALL 0xC6 0xD1 PUSH4 0x67D21066 SWAP1 PUSH29 0xDBF225FB0E8E6B6211368877CD6B7F4CBDDB04A18EFD64736F6C634300 ADDMOD SLT STOP CALLER "
		},
		"gasEstimates": {
			"creation": {
				"codeDepositCost": "3692400",
				"executionCost": "infinite",
				"totalCost": "infinite"
			},
			"external": {
				"": "219",
				"autoOffsetExactInETH(address)": "infinite",
				"autoOffsetExactInToken(address,uint256,address)": "infinite",
				"autoOffsetExactOutETH(address,uint256)": "infinite",
				"autoOffsetExactOutToken(address,address,uint256)": "infinite",
				"autoOffsetPoolToken(address,uint256)": "infinite",
				"autoRedeem(address,uint256)": "infinite",
				"autoRetire(address[],uint256[])": "infinite",
				"balances(address,address)": "infinite",
				"calculateExpectedPoolTokenForETH(uint256,address)": "infinite",
				"calculateNeededETHAmount(address,uint256)": "infinite",
				"contractRegistryAddress()": "2626",
				"deposit(address,uint256)": "infinite",
				"eligibleTokenAddresses(string)": "infinite",
				"owner()": "2589",
				"renounceOwnership()": "30487",
				"sushiRouterAddress()": "2625",
				"swapExactInETH(address)": "infinite",
				"swapExactInToken(address,uint256,address)": "infinite",
				"swapExactOutETH(address,uint256)": "infinite",
				"swapExactOutToken(address,address,uint256)": "infinite",
				"transferOwnership(address)": "30854",
				"withdraw(address,uint256)": "infinite"
			},
			"internal": {
				"calculateExactInSwap(address,uint256,address)": "infinite",
				"calculateExactOutSwap(address,address,uint256)": "infinite",
				"generatePath(address,address)": "infinite",
				"isEligible(address)": "infinite",
				"isRedeemable(address)": "infinite",
				"isSwappable(address)": "infinite",
				"routerSushi()": "2159"
			}
		},
		"methodIdentifiers": {
			"autoOffsetExactInETH(address)": "f04ad9d7",
			"autoOffsetExactInToken(address,uint256,address)": "226ee4ef",
			"autoOffsetExactOutETH(address,uint256)": "2e98c814",
			"autoOffsetExactOutToken(address,address,uint256)": "a0cd6049",
			"autoOffsetPoolToken(address,uint256)": "d08ec475",
			"autoRedeem(address,uint256)": "82155e7e",
			"autoRetire(address[],uint256[])": "1661f818",
			"balances(address,address)": "c23f001f",
			"calculateExpectedPoolTokenForETH(uint256,address)": "a59be914",
			"calculateNeededETHAmount(address,uint256)": "1109ec99",
			"contractRegistryAddress()": "46af6070",
			"deposit(address,uint256)": "47e7ef24",
			"eligibleTokenAddresses(string)": "5d25309d",
			"owner()": "8da5cb5b",
			"renounceOwnership()": "715018a6",
			"sushiRouterAddress()": "79bbce8f",
			"swapExactInETH(address)": "d8a90c40",
			"swapExactInToken(address,uint256,address)": "8aef324c",
			"swapExactOutETH(address,uint256)": "5367cd9c",
			"swapExactOutToken(address,address,uint256)": "8474c288",
			"transferOwnership(address)": "f2fde38b",
			"withdraw(address,uint256)": "f3fef3a3"
		}
	},
	"abi": [
		{
			"inputs": [
				{
					"internalType": "string[]",
					"name": "_eligibleTokenSymbols",
					"type": "string[]"
				},
				{
					"internalType": "address[]",
					"name": "_eligibleTokenAddresses",
					"type": "address[]"
				}
			],
			"stateMutability": "nonpayable",
			"type": "constructor"
		},
		{
			"anonymous": false,
			"inputs": [
				{
					"indexed": false,
					"internalType": "uint8",
					"name": "version",
					"type": "uint8"
				}
			],
			"name": "Initialized",
			"type": "event"
		},
		{
			"anonymous": false,
			"inputs": [
				{
					"indexed": false,
					"internalType": "string",
					"name": "message",
					"type": "string"
				}
			],
			"name": "LogErrorString",
			"type": "event"
		},
		{
			"anonymous": false,
			"inputs": [
				{
					"indexed": false,
					"internalType": "bytes",
					"name": "data",
					"type": "bytes"
				}
			],
			"name": "LowLevelError",
			"type": "event"
		},
		{
			"anonymous": false,
			"inputs": [
				{
					"indexed": true,
					"internalType": "address",
					"name": "previousOwner",
					"type": "address"
				},
				{
					"indexed": true,
					"internalType": "address",
					"name": "newOwner",
					"type": "address"
				}
			],
			"name": "OwnershipTransferred",
			"type": "event"
		},
		{
			"anonymous": false,
			"inputs": [
				{
					"indexed": false,
					"internalType": "address",
					"name": "who",
					"type": "address"
				},
				{
					"indexed": false,
					"internalType": "address",
					"name": "poolToken",
					"type": "address"
				},
				{
					"indexed": false,
					"internalType": "address[]",
					"name": "tco2s",
					"type": "address[]"
				},
				{
					"indexed": false,
					"internalType": "uint256[]",
					"name": "amounts",
					"type": "uint256[]"
				}
			],
			"name": "Redeemed",
			"type": "event"
		},
		{
			"stateMutability": "payable",
			"type": "fallback"
		},
		{
			"inputs": [
				{
					"internalType": "address",
					"name": "_poolToken",
					"type": "address"
				}
			],
			"name": "autoOffsetExactInETH",
			"outputs": [
				{
					"internalType": "address[]",
					"name": "tco2s",
					"type": "address[]"
				},
				{
					"internalType": "uint256[]",
					"name": "amounts",
					"type": "uint256[]"
				}
			],
			"stateMutability": "payable",
			"type": "function"
		},
		{
			"inputs": [
				{
					"internalType": "address",
					"name": "_fromToken",
					"type": "address"
				},
				{
					"internalType": "uint256",
					"name": "_amountToSwap",
					"type": "uint256"
				},
				{
					"internalType": "address",
					"name": "_poolToken",
					"type": "address"
				}
			],
			"name": "autoOffsetExactInToken",
			"outputs": [
				{
					"internalType": "address[]",
					"name": "tco2s",
					"type": "address[]"
				},
				{
					"internalType": "uint256[]",
					"name": "amounts",
					"type": "uint256[]"
				}
			],
			"stateMutability": "nonpayable",
			"type": "function"
		},
		{
			"inputs": [
				{
					"internalType": "address",
					"name": "_poolToken",
					"type": "address"
				},
				{
					"internalType": "uint256",
					"name": "_amountToOffset",
					"type": "uint256"
				}
			],
			"name": "autoOffsetExactOutETH",
			"outputs": [
				{
					"internalType": "address[]",
					"name": "tco2s",
					"type": "address[]"
				},
				{
					"internalType": "uint256[]",
					"name": "amounts",
					"type": "uint256[]"
				}
			],
			"stateMutability": "payable",
			"type": "function"
		},
		{
			"inputs": [
				{
					"internalType": "address",
					"name": "_depositedToken",
					"type": "address"
				},
				{
					"internalType": "address",
					"name": "_poolToken",
					"type": "address"
				},
				{
					"internalType": "uint256",
					"name": "_amountToOffset",
					"type": "uint256"
				}
			],
			"name": "autoOffsetExactOutToken",
			"outputs": [
				{
					"internalType": "address[]",
					"name": "tco2s",
					"type": "address[]"
				},
				{
					"internalType": "uint256[]",
					"name": "amounts",
					"type": "uint256[]"
				}
			],
			"stateMutability": "nonpayable",
			"type": "function"
		},
		{
			"inputs": [
				{
					"internalType": "address",
					"name": "_poolToken",
					"type": "address"
				},
				{
					"internalType": "uint256",
					"name": "_amountToOffset",
					"type": "uint256"
				}
			],
			"name": "autoOffsetPoolToken",
			"outputs": [
				{
					"internalType": "address[]",
					"name": "tco2s",
					"type": "address[]"
				},
				{
					"internalType": "uint256[]",
					"name": "amounts",
					"type": "uint256[]"
				}
			],
			"stateMutability": "nonpayable",
			"type": "function"
		},
		{
			"inputs": [
				{
					"internalType": "address",
					"name": "_fromToken",
					"type": "address"
				},
				{
					"internalType": "uint256",
					"name": "_amount",
					"type": "uint256"
				}
			],
			"name": "autoRedeem",
			"outputs": [
				{
					"internalType": "address[]",
					"name": "tco2s",
					"type": "address[]"
				},
				{
					"internalType": "uint256[]",
					"name": "amounts",
					"type": "uint256[]"
				}
			],
			"stateMutability": "nonpayable",
			"type": "function"
		},
		{
			"inputs": [
				{
					"internalType": "address[]",
					"name": "_tco2s",
					"type": "address[]"
				},
				{
					"internalType": "uint256[]",
					"name": "_amounts",
					"type": "uint256[]"
				}
			],
			"name": "autoRetire",
			"outputs": [],
			"stateMutability": "nonpayable",
			"type": "function"
		},
		{
			"inputs": [
				{
					"internalType": "address",
					"name": "",
					"type": "address"
				},
				{
					"internalType": "address",
					"name": "",
					"type": "address"
				}
			],
			"name": "balances",
			"outputs": [
				{
					"internalType": "uint256",
					"name": "",
					"type": "uint256"
				}
			],
			"stateMutability": "view",
			"type": "function"
		},
		{
			"inputs": [
				{
					"internalType": "uint256",
					"name": "_fromMaticAmount",
					"type": "uint256"
				},
				{
					"internalType": "address",
					"name": "_toToken",
					"type": "address"
				}
			],
			"name": "calculateExpectedPoolTokenForETH",
			"outputs": [
				{
					"internalType": "uint256",
					"name": "",
					"type": "uint256"
				}
			],
			"stateMutability": "view",
			"type": "function"
		},
		{
			"inputs": [
				{
					"internalType": "address",
					"name": "_toToken",
					"type": "address"
				},
				{
					"internalType": "uint256",
					"name": "_toAmount",
					"type": "uint256"
				}
			],
			"name": "calculateNeededETHAmount",
			"outputs": [
				{
					"internalType": "uint256",
					"name": "",
					"type": "uint256"
				}
			],
			"stateMutability": "view",
			"type": "function"
		},
		{
			"inputs": [],
			"name": "contractRegistryAddress",
			"outputs": [
				{
					"internalType": "address",
					"name": "",
					"type": "address"
				}
			],
			"stateMutability": "view",
			"type": "function"
		},
		{
			"inputs": [
				{
					"internalType": "address",
					"name": "_erc20Addr",
					"type": "address"
				},
				{
					"internalType": "uint256",
					"name": "_amount",
					"type": "uint256"
				}
			],
			"name": "deposit",
			"outputs": [],
			"stateMutability": "nonpayable",
			"type": "function"
		},
		{
			"inputs": [
				{
					"internalType": "string",
					"name": "",
					"type": "string"
				}
			],
			"name": "eligibleTokenAddresses",
			"outputs": [
				{
					"internalType": "address",
					"name": "",
					"type": "address"
				}
			],
			"stateMutability": "view",
			"type": "function"
		},
		{
			"inputs": [],
			"name": "owner",
			"outputs": [
				{
					"internalType": "address",
					"name": "",
					"type": "address"
				}
			],
			"stateMutability": "view",
			"type": "function"
		},
		{
			"inputs": [],
			"name": "renounceOwnership",
			"outputs": [],
			"stateMutability": "nonpayable",
			"type": "function"
		},
		{
			"inputs": [],
			"name": "sushiRouterAddress",
			"outputs": [
				{
					"internalType": "address",
					"name": "",
					"type": "address"
				}
			],
			"stateMutability": "view",
			"type": "function"
		},
		{
			"inputs": [
				{
					"internalType": "address",
					"name": "_toToken",
					"type": "address"
				}
			],
			"name": "swapExactInETH",
			"outputs": [
				{
					"internalType": "uint256",
					"name": "",
					"type": "uint256"
				}
			],
			"stateMutability": "payable",
			"type": "function"
		},
		{
			"inputs": [
				{
					"internalType": "address",
					"name": "_fromToken",
					"type": "address"
				},
				{
					"internalType": "uint256",
					"name": "_fromAmount",
					"type": "uint256"
				},
				{
					"internalType": "address",
					"name": "_toToken",
					"type": "address"
				}
			],
			"name": "swapExactInToken",
			"outputs": [
				{
					"internalType": "uint256",
					"name": "",
					"type": "uint256"
				}
			],
			"stateMutability": "nonpayable",
			"type": "function"
		},
		{
			"inputs": [
				{
					"internalType": "address",
					"name": "_toToken",
					"type": "address"
				},
				{
					"internalType": "uint256",
					"name": "_toAmount",
					"type": "uint256"
				}
			],
			"name": "swapExactOutETH",
			"outputs": [],
			"stateMutability": "payable",
			"type": "function"
		},
		{
			"inputs": [
				{
					"internalType": "address",
					"name": "_fromToken",
					"type": "address"
				},
				{
					"internalType": "address",
					"name": "_toToken",
					"type": "address"
				},
				{
					"internalType": "uint256",
					"name": "_toAmount",
					"type": "uint256"
				}
			],
			"name": "swapExactOutToken",
			"outputs": [],
			"stateMutability": "nonpayable",
			"type": "function"
		},
		{
			"inputs": [
				{
					"internalType": "address",
					"name": "newOwner",
					"type": "address"
				}
			],
			"name": "transferOwnership",
			"outputs": [],
			"stateMutability": "nonpayable",
			"type": "function"
		},
		{
			"inputs": [
				{
					"internalType": "address",
					"name": "_erc20Addr",
					"type": "address"
				},
				{
					"internalType": "uint256",
					"name": "_amount",
					"type": "uint256"
				}
			],
			"name": "withdraw",
			"outputs": [],
			"stateMutability": "nonpayable",
			"type": "function"
		},
		{
			"stateMutability": "payable",
			"type": "receive"
		}
	]
}